:020000040800F2
:1000000000500020ED0E0008EB0E0008E90E00087D
:10001000E90E0008E90E0008E90E000800000000E3
:10002000000000000000000000000000EB0E0008CF
:10003000EB0E000800000000EB0E0008EB0E0008BD
:10004000E90E0008E90E0008E90E0008E90E0008B4
:10005000E90E0008E90E0008E90E0008E90E0008A4
:10006000E90E0008E90E0008E90E0008E90E000894
:10007000E90E0008E90E0008E90E0008E90E000884
:10008000E90E0008E90E0008E90E0008E90E000874
:10009000B1030008E90E0008E90E0008E90E0008A7
:1000A000E90E0008E90E0008E90E0008E90E000854
:1000B000E90E0008E90E0008E90E0008E90E000844
:1000C000E90E0008E90E0008E90E0008E90E000834
:1000D000E90E0008E90E0008E90E0008ED0300082B
:1000E000E90E0008E90E0008E90E0008E90E000814
:1000F000E90E0008E90E0008E90E0008E90E000804
:10010000E90E0008E90E0008E90E0008E90E0008F3
:10011000E90E0008E90E0008E90E0008E90E0008E3
:10012000E90E0008E90E0008E90E0008E90E0008D3
:10013000E90E0008E90E0008E90E0008E90E0008C3
:10014000E90E0008E90E0008E90E0008E90E0008B3
:100150004FF4003382B00193019B0BB902B070479A
:10016000019B013BF7E700001FB50DF10F03019361
:100170000123009300238DF80F001A4640F2DE7130
:10018000064800F071FB064B1B7823B19DF80F1059
:10019000044800F08DFE05B05DF804FB00640040EB
:1001A0001D0000200048004070B5024604464FF094
:1001B000FF3300F5806152F8040B8A4203EA000322
:1001C000F9D1013302D0204600F08EFC0025054E07
:1001D000601956F8041B043500F0E0FCB5F5806F9B
:1001E000F6D170BD2000002070B5384D04462B7844
:1001F000032B1CD801A252F823F000BF0D02000807
:10020000310200084F02000899020008304B1B78A9
:1002100013B10378AA2B05D02E4B2268D3F8F03700
:100220009A4204D15320FFF79FFF01232B7070BD2A
:100230000278294B50201A70022300222B70274B82
:100240001A60FFF791FFBDE8704000F0E1BB234E5C
:1002500001683368224A42F82310991C31604168D2
:10026000013342F82310006800F0DAFB606800F008
:10027000D7FB1C4B18603368B3F5807F06D103238E
:1002800043202B70BDE87040FFF76EBF104B1B780A
:10029000002BCCD15020F5E70022104B1A6000F063
:1002A000B7FB104B22681B689A4209D10A4A13789F
:1002B000013BDBB213700BB90523B7E70423B5E7A5
:1002C0004520FFF751FF0223B0E700BF20040020C4
:1002D0001D00002000F0FF1F1C000020180000205F
:1002E00020000020140000207FB500F0BFF800F0CF
:1002F00089F940F2DD7000F009F900F055F90023AA
:100300003322CDE90223254A40F2DE71D2F8F027EC
:100310002348039202AA01920822224C00921A4614
:1003200000F0A2FA3221204800F0D2FDFFF710FFC2
:100330002378012B02D02378022B0BD100F014FC80
:1003400002261A4D2378052B19D12846FFF72CFFDA
:1003500000F016FC4420FFF707FFFFF7F9FE00F05E
:1003600017F900F045F900F0C7F84FF0E0210F4B06
:100370005A68C1F8083D9047002004B070BD23784A
:10038000042B08D12846FFF70FFF502005F58065A4
:100390002670FFF7E9FE00F08BFCD3E700F0FF1FAB
:1003A00000640040200400200048004000100008C5
:1003B000002110B58AB006AB03930DF11B03029325
:1003C0000DF11A0308AC01930DF1190301220591F7
:1003D0000093049407AB044800F0BDFA2046FFF7F1
:1003E00003FF0AB010BD00BF0064004007B51A4803
:1003F00000F072FD0122194BC0B21A70184B8DF833
:1004000007001B78022BDAB20AD004D9032A19D0CC
:1004100003B05DF804FB0DF10700FFF7E5FEF7E719
:1004200010490A78531CDBB20B700F49082B885413
:10043000EED100220B4B0C481A7003B05DF804EBB0
:10044000FFF7D2BE07490A78531CDBB20B7006498E
:10045000042B8854ECE700BF004800401D0000203A
:1004600020040020080000200900002008B5042016
:1004700000F0C4FC002000F0CBFC002000F054FC95
:10048000002000F049FC022000F0AEFC062000F045
:100490004BFC164B164A40F202301360154A1360AB
:1004A00000F0C0FC40F2033000F0BCFC4FF441709F
:1004B00000F0B8FC40F2862000F0B4FC40F2993025
:1004C00000F0B0FC40F2923000F0ACFC4FF4407011
:1004D00000F0A8FC062000F01FFC4FF4FA6000F0CA
:1004E000BFFBBDE8084000F0ABBB00BF00366E01AB
:1004F000040000200000002008B5002000F074FC7B
:10050000BDE80840002000F03FBC000030B54FF4CB
:1005100000638BB00546022200211B4800F04AFB15
:100520004FF40061184800F085FB4FF4805302221D
:1005300003211548002400F03DFB0623CDE90543C7
:100540004FF4A0232146CDE9034301222346CDE900
:100550000744CDE9014400940C4800F08FF80123D2
:10056000690122462046CDE9014389B22346009421
:1005700000F066F9142000F003FD022103480BB0DF
:10058000BDE8304000F06CB9000801400064004054
:1005900008B5044800F066F8BDE80840142000F0F3
:1005A000FBBC00BF0064004008B502224FF480632A
:1005B00003210D4800F0FEFA4FF4E1310B4800F042
:1005C0004FFC0821094800F05FFC0C21074800F0AF
:1005D00064FC064800F077FC044800F064FCBDE8C9
:1005E0000840272000F0CCBC000C0140004800402F
:1005F00008B5272000F0D0FCBDE8084040F21220EA
:1006000000F01DBC38B500F01FFA00F5FF3404F20D
:10061000FD14A4021421204600F008FA054600212A
:100620004FF0007000F0FCFA236DAB4213D104F1DF
:100630005005206878B1A17971B100220321A38807
:1006400000F0B8FAE3792068A1883BB100F0F2FA33
:100650000834AC42EDD138BD0222F0E700F0ECFAEC
:10066000F6E70000044B98420CBF40F2192040F21C
:100670001A2000F0E4BB00BF006400402DE9F34104
:100680000468884624F0020404600468964644F036
:10069000010404604FF6FF749DF820C09DF82410FB
:1006A0009DF828209DF83C609DF840700194019CC5
:1006B000051D013C019414B14468E407F7D5446872
:1006C000E4076ED50024C4610468B8F1000F4FD070
:1006D00044F0800404600468BEF1000F4BD044F085
:1006E00040040460002B49D0036843F020030360FA
:1006F0000368BCF1000F45D043F0100303600368AA
:10070000002942D043F0080303600368002A3FD069
:1007100043F004030360C369002F3CD043F000435F
:10072000C361C369002E39D043F08043C3610E9B7F
:100730000D99013BC3F309030B430C99C2690B43A9
:100740000B990B431343C361036823F00103036058
:100750004FF6FF730193019B013B019313B12B688B
:10076000DB07F8D4406800F0010002B0BDE8F0817A
:1007700024F08004AEE724F04004B2E7036823F0DD
:100780002003B4E723F01003B8E723F00803BBE726
:1007900023F00403BEE723F00043C1E723F08043C6
:1007A000C4E70120E1E70000F0B50125234C9DF8E6
:1007B0001C70D4F80066854046F00106C4F8006657
:1007C000D4F81CE6EE432EEA050EC4F81CE639B355
:1007D000D4F80C162943C4F80C162AB3D4F804260E
:1007E0002A4300F1006000F6C840C4F80426C000A7
:1007F0000360069A059B4360104BCAB1D3F81426D8
:100800002A43C3F8142627B1D3F81C262A43C3F879
:100810001C26D3F8002622F00102C3F80026F0BD02
:10082000D4F80C163140D6E7D4F804263240D8E785
:10083000D3F814261640C3F81466E4E700600040BD
:1008400030B4BDF808409DF8105044EA03440495C4
:1008500042EA01430294012230BC0021FFF7A4BF09
:1008600043690B43436170472DE9F041804680683E
:100870009DF818E04501079E2AD4D8F80800040125
:100880002AD4D8F80800C00050D54FF4D075022003
:1008900005EB080422B3C90041F0040145F8081033
:1008A0001BB1236843F002032360636823F00F0346
:1008B000636062680EF00F03134363600EF1FF3351
:1008C000072B2AD8DFE803F02623201B1815120E69
:1008D0004FF4C0750020DBE74FF4C8750120D7E75F
:1008E0004905DBE70027F37963F31F67B37963F307
:1008F0001747737963F30F27337963F307074FF0D3
:10090000000CF37863F31F6CB37863F3174C7378C0
:1009100063F30F2C337863F3070CC4F808C0E76067
:10092000236843F001032360BDE8F0814FF0FF30FE
:10093000FAE721B9C36843F02003C3607047036935
:1009400043F020030361704719B9C06800F0030049
:1009500070470069FAE72DE9F743DDF8289004466F
:10096000DDE90E56FFF7F0FF0F4680464FF4E071C9
:100970004FF4D870CDE9000102A901EB870151F8CD
:1009800008CC54F80C1004EB0C0011F0040115BF56
:10099000012189F8001089F8001054F80C1016BFD6
:1009A00054F80C10490DC908196054F80C100B9B31
:1009B000C1F34001197041680C9B090A1970416824
:1009C0000D9B01F00F01197016B143681B0C3380A9
:1009D0008668C368C6F307216970C6F30741A9702A
:1009E000C3F307212E702B71C6F307666971C3F339
:1009F0000741C3F30763EE70A971EB711AB1394671
:100A00002046FFF796FF404603B0BDE8F0830000A4
:100A1000024A936843F0010393607047003002403C
:100A2000014B18601868704700300240002310B571
:100A3000044A8B4201DB106810BD50F8234001339B
:100A40001460F6E700300240014BB3F8E00770474E
:100A500000F0FF1F38B5064DEC68FFF7F5FFB0F565
:100A6000007F84BFEB6C1C4304F0350038BD00BF31
:100A70000020024038B504460D4600F089F8FFF723
:100A8000E3FFB0F5007F164B14D9164A944211D9F2
:100A90001A6D42F001021A65258000F079F8FFF71F
:100AA000D3FFB0F5007F14D90D4A136D23F0010375
:100AB000136538BD1A6942F001021A61258000F001
:100AC00067F8FFF7C1FFB0F5007F02D9054B9C42E4
:100AD000E9E7034A136923F001031361E9E700BF63
:100AE00000200240FFFF070810B5044600F050F850
:100AF000FFF7AAFFB0F5007F194B18D9194A9442A5
:100B000015D91A6D42F002021A655C651A6D42F041
:100B100040021A6500F03CF8FFF796FFB0F5007F41
:100B200018D90F4A136D23F00203136510BD1A691B
:100B300042F002021A615C611A6942F040021A61D5
:100B400000F026F8FFF780FFB0F5007F02D9054BD3
:100B50009C42E5E7024A136923F002031361E5E7CB
:100B600000200240FFFF0708034B044A5A6002F1CD
:100B700088325A60704700BF002002402301674559
:100B8000024A136943F0800313617047002002405A
:100B900008B5FFF75FFFC307FBD408BD38B50546AE
:100BA0000C4689B2FFF766FF210CA81CBDE838404F
:100BB000FFF760BF2DE9F04300264FF00F089C4679
:100BC000036847684CFA06F414F0010F06F1010EB1
:100BD0001DD0072E94BF9946B946B4B24FEA84049B
:100BE0008ABF203CA4B2A4B208FA04F529EA050998
:100BF000A51C02FA05F501FA04F42C43072E44EA79
:100C0000090405D8234676463C462746DAE73C46A3
:100C10007646102EF9D103604460BDE8F0830000F1
:100C2000034A536823F0E0630B4303435360704768
:100C30000000014001617047090401617047000034
:100C40004CF6CC42014B1A60704700BF00300040A8
:100C5000024BD868C0F34000704700BF003000402E
:100C6000C000012838BF0120002310B5411E0C0B25
:100C700003F1010216D1DBB2062B84BF40F6FF71EF
:100C800006230A4AD068C007FCD445F255501060CC
:100C90005360FFF7DDFF0028FBD145F25553136089
:100CA000916010BD13464008E0E700BF00300040EF
:100CB0004AF6AA22014B1A60704700BF003000407C
:100CC000062824D8DFE800F004090E13181D2000C0
:100CD000104B1868C0F3406070470E4B1868C0F3A3
:100CE000C06070470B4B1868C0F340707047094BE9
:100CF0001868C0F340407047064B1868C0F34000C6
:100D00007047044B186AF9E7024B586AF6E700206F
:100D1000704700BF00100240024608B51046FFF7BA
:100D2000CFFF0028FAD008BD06282AD8DFE800F057
:100D3000040A0F14191E2400124A136843F080732A
:100D4000136070470F4A136843F08063F8E70D4A59
:100D5000136843F08053F3E70A4A136843F480337F
:100D6000EEE7084A136843F00103E9E7054A136A0E
:100D700043F0010313627047024A536A43F00103D0
:100D8000536270470010024006282AD8DFE800F0BE
:100D9000040A0F14191E2400124A136823F08073EA
:100DA000136070470F4A136823F08063F8E70D4A19
:100DB000136823F08053F3E70A4A136823F480335F
:100DC000EEE7084A136823F00103E9E7054A136ACE
:100DD00023F0010313627047024A536A23F00103B0
:100DE0005362704700100240034A536823F0030324
:100DF00003435360704700BF00100240034A53682A
:100E000023F4701343EA804353607047001002409C
:100E1000034A536823F4803343EA00435360704726
:100E2000001002400122430903F1804303F504331B
:100E3000196800F01F0082400A431A6070470122BF
:100E4000430903F1804303F50433196800F01F00E0
:100E5000824011431960196821EA02021A60704742
:100E6000064A074B90421B6804BF064B1B6803EB06
:100E70005103B3FBF1F18160704700BF00380140BE
:100E80000400002000000020C36808290CBF23F4E0
:100E9000805343F48053C3607047C36823F00C034E
:100EA0000B43C3607047C36843F40053C36070478B
:100EB00038B504460D4600F013F829462046BDE833
:100EC000384000F005B8C36843F02003C3607047A2
:100ED000C1F30801416070474068C0F308007047E3
:100EE00003681B06FCD57047FEE7704738B51A4A01
:100EF0001A4B1B498B421AD300211A4A93421BD327
:100F00004FF0E022D2F8143D174C43F40073174D14
:100F1000C2F8143DAC4212D3154C164DAC4212D35C
:100F2000FFF7E2F9144C154DAC4210D338BD52F81E
:100F3000040B43F8040BDDE743F8041BDEE754F829
:100F4000043B9847E6E754F8043B9847E6E754F833
:100F5000043B9847E8E700BFB00F000800000020FE
:100F60000800002024040020B00F0008B00F000883
:100F7000B00F0008B00F0008B00F0008B00F000855
:100F8000012243099B0003F1604300F01F0003F5B9
:100F9000614382401A60704701234109034A00F00F
:100FA0001F00834042F82130704700BF80E100E01D
:080FB00000127A0000127A0021
:0400000508000EEDF4
:00000001FF
