:020000040800F2
:1000000000500020D90E0008D70E0008D50E0008B9
:10001000D50E0008D50E0008D50E0008000000001F
:10002000000000000000000000000000D70E0008E3
:10003000D70E000800000000D70E0008D70E0008F9
:10004000D50E0008D50E0008D50E0008D50E000804
:10005000D50E0008D50E0008D50E0008D50E0008F4
:10006000D50E0008D50E0008D50E0008D50E0008E4
:10007000D50E0008D50E0008D50E0008D50E0008D4
:10008000D50E0008D50E0008D50E0008D50E0008C4
:10009000B1030008D50E0008D50E0008D50E0008E3
:1000A000D50E0008D50E0008D50E0008D50E0008A4
:1000B000D50E0008D50E0008D50E0008D50E000894
:1000C000D50E0008D50E0008D50E0008D50E000884
:1000D000D50E0008D50E0008D50E0008ED03000867
:1000E000D50E0008D50E0008D50E0008D50E000864
:1000F000D50E0008D50E0008D50E0008D50E000854
:10010000D50E0008D50E0008D50E0008D50E000843
:10011000D50E0008D50E0008D50E0008D50E000833
:10012000D50E0008D50E0008D50E0008D50E000823
:10013000D50E0008D50E0008D50E0008D50E000813
:10014000D50E0008D50E0008D50E0008D50E000803
:100150004FF4003382B00193019B0BB902B070479A
:10016000019B013BF7E700001FB50DF10F03019361
:100170000123009300238DF80F001A4640F2DE7130
:10018000064800F07BFB064B1B7823B19DF80F104F
:10019000044800F083FE05B05DF804FB00640040F5
:1001A0001D0000200048004070B5024604464FF094
:1001B000FF3300F5806152F8040B8A4203EA000322
:1001C000F9D1013302D0204600F090FC0025054E05
:1001D000601956F8041B043500F0DCFCB5F5806F9F
:1001E000F6D170BD2000002070B5344D04462B7848
:1001F000032B14D8DFE803F002142348304B1B789C
:1002000013B10378AA2B05D02E4B2268D3F8F03710
:100210009A4204D15320FFF7A7FF01232B7070BD32
:100220000278294B50201A70022300222B70274B92
:100230001A60FFF799FFBDE8704000F0F3BB234E52
:1002400001683368224A42F82310991C31604168E2
:10025000013342F82310006800F0ECFB606800F006
:10026000E9FB1C4B18603368B3F5807F06D103238C
:1002700043202B70BDE87040FFF776BF104B1B7812
:10028000002BCCD15020F5E70022104B1A6000F073
:10029000C9FB104B22681B689A4209D10A4A13789D
:1002A000013BDBB213700BB90523B7E70423B5E7B5
:1002B0004520FFF759FF0223B0E700BF20040020CC
:1002C0001D00002000F0FF1F1C000020180000206F
:1002D00020000020140000207FB500F0C7F800F0D7
:1002E0009BF940F2DD7000F011F900F065F9002390
:1002F00043F23312CDE90223284A40F2DE71D2F8EC
:10030000F0272748039202AA01920822254C009266
:100310001A4600F0B3FA3221234800F0CFFDFFF770
:1003200017FF2378012B05D02378022B02D02378E6
:10033000042B0BD100F014FC02261C4D2378052B56
:100340001CD12846FFF730FF00F016FC2378052B60
:1003500002D14420FFF708FFFFF7FAFE00F020F972
:1003600000F050F900F0C8F84FF0E0210F4B5A6848
:10037000C1F8083D9047002004B070BD2378042BDD
:1003800008D12846FFF710FF502005F5806526703C
:10039000FFF7EAFE00F082FCD0E700BF00F0FF1F8D
:1003A00000640040200400200048004000100008C5
:1003B000002110B58AB006AB03930DF11B03029325
:1003C0000DF11A0308AC01930DF1190301220591F7
:1003D0000093049407AB044800F0C7FA2046FFF7E7
:1003E00003FF0AB010BD00BF0064004007B51A4803
:1003F00000F068FD0122194BC0B21A70184B8DF83D
:1004000007001B78022BDAB20AD004D9032A19D0CC
:1004100003B05DF804FB0DF10700FFF7E5FEF7E719
:1004200010490A78531CDBB20B700F49082B885413
:10043000EED100220B4B0C481A7003B05DF804EBB0
:10044000FFF7D2BE07490A78531CDBB20B7006498E
:10045000042B8854ECE700BF004800401D0000203A
:1004600020040020080000200900002008B5042016
:1004700000F0BAFC002000F0C1FC002000F04AFCB3
:10048000002000F03FFC022000F0A4FC062000F059
:1004900041FC164B164A40F202301360154A1360B5
:1004A00000F0B6FC40F2033000F0B2FC4FF44170B3
:1004B00000F0AEFC40F2862000F0AAFC40F2993039
:1004C00000F0A6FC40F2923000F0A2FC4FF4407025
:1004D00000F09EFC062000F015FC4FF4FA6000F0DE
:1004E000B5FBBDE8084000F0A1BB00BF00366E01BF
:1004F000040000200000002008B5002000F06AFC85
:10050000BDE80840002000F035BC000070B5224C6A
:100510008AB005464FF480414FF0007000F076FB42
:100520004FF4807302222046002100F03FFB20465A
:100530004FF4807100F074FB20464FF400730222E8
:100540000321002400F032FB0623CDE905434FF4DC
:10055000A023124E2146CDE9034301222346304613
:10056000CDE90744CDE90144009400F091F801235E
:10057000690122462046CDE9014389B22346009411
:1005800000F068F9142000F0F1FC022130460AB0B6
:10059000BDE8704000F06EB9000C014000640040FE
:1005A00008B5044800F068F8BDE80840142000F0E1
:1005B000E9BC00BF0064004010B5104C4FF48063EC
:1005C000022203210E4800F0F1FA20464FF4E131F7
:1005D00000F03CFC2046082100F04CFC0C21204699
:1005E00000F051FC204600F064FC204600F051FC75
:1005F000BDE81040272000F0B9BC00BF0048004013
:10060000000C014008B5272000F0BCFCBDE8084004
:1006100040F2122000F009BC38B500F01FFA00F5D6
:10062000FF3404F2FD14A4021421204600F008FA5D
:10063000054600214FF0007000F0E8FA236DAB4250
:1006400013D104F15005206878B1A17971B100226D
:100650000321A38800F0AAFAE379A18820683BB1BE
:1006600000F0DEFA0834AC42EDD138BD0222F0E7EA
:1006700000F0D8FAF6E70000044B98420CBF40F2B5
:10068000192040F21A2000F0D0BB00BF00640040E7
:100690002DE9F3410468884624F0020404600468EC
:1006A000964644F0010404604FF6FF749DF820C0A4
:1006B0009DF824109DF828209DF83C609DF840701E
:1006C0000194019C051D013C019414B14468E407A8
:1006D000F7D54468E4076ED50024C4610468B8F116
:1006E000000F4FD044F0800404600468BEF1000F96
:1006F0004BD044F040040460002B49D0036843F021
:10070000200303600368BCF1000F45D043F01003E1
:1007100003600368002942D043F0080303600368C4
:10072000002A3FD043F004030360C369002F3CD08C
:1007300043F00043C361C369002E39D043F08043C6
:10074000C3610E9B0D99013BC3F309030B430C9945
:10075000C2690B430B990B431343C361036823F036
:10076000010303604FF6FF730193019B013B01936B
:1007700013B12B68DB07F8D4406800F0010002B029
:10078000BDE8F08124F08004AEE724F04004B2E735
:10079000036823F02003B4E723F01003B8E723F045
:1007A0000803BBE723F00403BEE723F00043C1E7DF
:1007B00023F08043C4E70120E1E70000F0B5012504
:1007C000234C9DF81C70D4F80066854046F0010665
:1007D000C4F80066D4F81CE6EE432EEA050EC4F811
:1007E0001CE639B3D4F80C162943C4F80C162AB306
:1007F000D4F804262A4300F1006000F6C840C4F88B
:100800000426C0000360069A059B4360104BCAB1E2
:10081000D3F814262A43C3F8142627B1D3F81C268C
:100820002A43C3F81C26D3F8002622F00102C3F89D
:100830000026F0BDD4F80C163140D6E7D4F80426D3
:100840003240D8E7D3F814261640C3F81466E4E71C
:100850000060004030B4BDF808409DF8105044EAF4
:100860000344049542EA01430294012230BC002172
:10087000FFF7A4BF43690B43436170472DE9F04183
:10088000804680689DF818E04501079E2AD4D8F874
:10089000080004012AD4D8F80800C00050D54FF44D
:1008A000D075022005EB080422B3C90041F0040111
:1008B00045F808101BB1236843F002032360636806
:1008C00023F00F03636062680EF00F03134363604D
:1008D0000EF1FF33072B2AD8DFE803F02623201B75
:1008E0001815120E4FF4C0750020DBE74FF4C875E1
:1008F0000120D7E74905DBE70027F37963F31F679A
:10090000B37963F31747737963F30F27337963F38D
:1009100007074FF0000CF37863F31F6CB37863F3B1
:10092000174C737863F30F2C337863F3070CC4F818
:1009300008C0E760236843F001032360BDE8F0814D
:100940004FF0FF30FAE721B9C36843F02003C360DA
:100950007047036943F020030361704719B9C06809
:1009600000F0030070470069FAE72DE9F743DDF86E
:1009700028900446DDE90E56FFF7F0FF0F4680464B
:100980004FF4E0714FF4D870CDE9000102A901EBFA
:10099000870151F808CC54F80C1004EB0C0011F04E
:1009A000040115BF012189F8001089F8001054F8DE
:1009B0000C1016BF54F80C10490DC908196054F8F2
:1009C0000C100B9BC1F34001197041680C9B090A84
:1009D000197041680D9B01F00F01197016B1436841
:1009E0001B0C33808668C368C6F307216970C6F3A1
:1009F0000741A970C3F307212E702B71C6F3076658
:100A00006971C3F30741C3F30763EE70A971EB711A
:100A10001AB139462046FFF796FF404603B0BDE8BD
:100A2000F0830000024A936843F00103936070472B
:100A300000300240014B18601868704700300240D7
:100A4000002310B5044A8B4201DB106810BD50F83A
:100A5000234001331460F6E700300240014BB3F845
:100A6000E007704700F0FF1F38B5064DEC68FFF750
:100A7000F5FFB0F5007F84BFEB6C1C4304F035003C
:100A800038BD00BF0020024038B504460D4600F0D6
:100A90007BF8FFF7E3FFB0F5007F124B17D9124A3E
:100AA000944214D91A6D42F001021A65258000F0B3
:100AB0006BF8FFF7D3FFB0F5007F0A4B0CD90A4A59
:100AC000944209D91A6D22F001021A6538BD1A69DB
:100AD00042F001021A61E9E71A6922F001021A6183
:100AE000F4E700BF00200240FFFF070810B50446EE
:100AF00000F04AF8FFF7B2FFB0F5007F164B1BD9A4
:100B0000164A944218D91A6D42F002021A655C65C1
:100B10001A6D42F040021A6500F036F8FFF79EFFAA
:100B2000B0F5007F0C4B11D90C4A94420ED91A6DC6
:100B300022F002021A6510BD1A6942F002021A611F
:100B40005C611A6942F040021A61E5E71A6922F015
:100B500002021A61EFE700BF00200240FFFF070812
:100B6000034B044A5A6002F188325A60704700BF52
:100B70000020024023016745024A136943F08003C5
:100B8000136170470020024008B5FFF76DFFC307EF
:100B9000FBD408BD38B505460C4689B2FFF774FF93
:100BA000210CA81CBDE83840FFF76EBF2DE9F041CD
:100BB0004FF00F0C00250768466843FA05F4E40778
:100BC0001CD5072D94BFBE46B646ACB24FEA84048E
:100BD0008ABF203CA4B2A4B20CFA04F82EEA08089A
:100BE00004F1020E02FA0EFE01FA04F44EEA0404C5
:100BF00044EA0804072D94BF274626460135102DE8
:100C0000DBD107604660BDE8F0810000034A53680D
:100C100023F0E0630B43034353607047000001403F
:100C20000161704709040161704700004CF6CC4235
:100C3000014B1A60704700BF00300040024BD8687B
:100C4000C0F34000704700BF00300040C0000128E2
:100C500038BF0120002310B5411E0C0B03F1010227
:100C600016D1DBB2062B84BF40F6FF7106230A4A79
:100C7000D068C007FCD445F2555010605360FFF7B0
:100C8000DDFF0028FBD145F255531360916010BD84
:100C900013464008E0E700BF003000404AF6AA22B1
:100CA000014B1A60704700BF00300040062824D86E
:100CB000DFE800F004090E13181D2000104B18681F
:100CC000C0F3406070470E4B1868C0F3C0607047B7
:100CD0000B4B1868C0F340707047094B1868C0F39D
:100CE00040407047064B1868C0F340007047044B03
:100CF000186AF9E7024B586AF6E70020704700BF10
:100D000000100240024608B51046FFF7CFFF00284A
:100D1000FAD008BD06282AD8DFE800F0040A0F142C
:100D2000191E2400124A136843F080731360704741
:100D30000F4A136843F08063F8E70D4A136843F0E5
:100D40008053F3E70A4A136843F48033EEE7084A16
:100D5000136843F00103E9E7054A136A43F001030E
:100D600013627047024A536A43F0010353627047AB
:100D70000010024006282AD8DFE800F0040A0F1409
:100D8000191E2400124A136823F080731360704701
:100D90000F4A136823F08063F8E70D4A136823F0C5
:100DA0008053F3E70A4A136823F48033EEE7084AD6
:100DB000136823F00103E9E7054A136A23F00103EE
:100DC00013627047024A536A23F00103536270476B
:100DD00000100240034A536823F0030303435360A7
:100DE000704700BF00100240034A536823F4701399
:100DF00043EA80435360704700100240034A53683F
:100E000023F4803343EA00435360704700100240EC
:100E10000122430903F1804303F50433196800F00C
:100E20001F0082400A431A6070470122430903F100
:100E3000804303F50433196800F01F00824011431A
:100E40001960196821EA02021A607047064A074BC6
:100E500090421B6804BF064B1B6803EB5103B3FBB6
:100E6000F1F18160704700BF0038014004000020AC
:100E700000000020C36808290CBF23F4805343F40A
:100E80008053C3607047C36823F00C030B43C360F7
:100E90007047C36843F40053C360704738B50446D5
:100EA0000D4600F013F829462046BDE8384000F012
:100EB00005B8C36843F02003C3607047C1F308015D
:100EC000416070474068C0F30800704703681B0624
:100ED000FCD57047FEE7704738B51A4A1A4B1B49D4
:100EE0008B421AD300211A4A93421BD34FF0E022BF
:100EF000D2F8143D174C43F40073174DC2F8143D5B
:100F0000AC4212D3154C164DAC4212D3FFF7E4F9A4
:100F1000144C154DAC4210D338BD52F8040B43F8B5
:100F2000040BDDE743F8041BDEE754F8043B984765
:100F3000E6E754F8043B9847E6E754F8043B984743
:100F4000E8E700BF9C0F0008000000200800002018
:100F5000240400209C0F00089C0F00089C0F000830
:100F60009C0F00089C0F00089C0F000801224309F9
:100F70009B0003F1604300F01F0003F561438240D2
:100F80001A60704701234109034A00F01F008340A3
:0C0F900042F82130704700BF80E100E013
:080F9C0000127A0000127A0035
:0400000508000ED908
:00000001FF
