:020000040800F2
:10100000005000209D580008995800089758000883
:1010100097580008975800089758000800000000EB
:1010200000000000000000000000000099580008C7
:1010300099580008000000009958000899580008C5
:1010400097580008975800089758000897580008C4
:1010500097580008975800089758000897580008B4
:1010600097580008975800089758000897580008A4
:101070009758000897580008975800089758000894
:10108000975800089758000897580008ED30000856
:10109000CD300008DD300008975800089758000848
:1010A0009758000897580008975800089758000864
:1010B000DD16000897580008975800089758000850
:1010C0009758000897580008975800089758000844
:1010D0009758000897580008975800089758000834
:1010E0009758000897580008975800089758000824
:1010F0009758000897580008975800089758000814
:101100009758000897580008975800089758000803
:1011100097580008975800089758000897580008F3
:1011200097580008975800089758000897580008E3
:101130009758000897580008975800081B31000876
:10114000FB3000080B31000897580008975800083A
:1011500010B504460846114664681A46A04710BDFB
:1011600008B58368984708BD10B582B0264B9988AA
:10117000186803F05AFF03F061FF244801F0EAFB0E
:1011800004F0B8FC0446224B186804F0B7FC014692
:10119000204604F0BBFD0146062000F06FFD1D4B0C
:1011A000186800F019FD04F0A9FC1B4904F0AEFD1D
:1011B0000146162000F062FD032000F049FD0146C3
:1011C000052000F04DFD05238DF8003000238DF83B
:1011D000013001228DF8022010228DF803208DF8B5
:1011E00004308DF805308DF8063069238DF807300E
:1011F0000A4B186803685C6808236A464FF46071FC
:10120000A04702B010BD00BF24010020380100201B
:1012100000000020AC00002000002041A8000020B9
:10122000B0F5807F01D00020704708B5084602F075
:10123000C5FF002008BD000008B500224FF48071F2
:10124000024B186801F099FF08BD00BFA8000020FC
:10125000FEE7000010B5204B9988186803F0E2FE05
:101260001E4B9988186803F0DDFE1D4B998818689D
:1012700003F0D8FE1B4B9988186803F0D3FE1A4C74
:10128000A188206803F0CEFE184B9988186803F0F7
:10129000C9FE174B9988186803F0C4FE154B99884E
:1012A000186803F0BFFE144B9988186803F0BAFE63
:1012B000124B9988186803F0B3FE114B998818688F
:1012C00003F0AEFEA188206803F0AAFE04210520E9
:1012D00000F0C6FC10BD00BF1C010020140100205E
:1012E0000C01002004010020FC000020F40000207C
:1012F000EC000020E4000020DC000020D4000020EE
:10130000CC00002008B5454B1B68042B1CD8DFE837
:1013100003F0031C354E6700414B9988186803F0B1
:101320007FFE404B9988186803F07CFE3E4B9988FD
:10133000186803F077FE3D4B9988186803F072FE39
:10134000364A13680133136008BD354B9988186815
:1013500003F068FE334B9988186803F061FE324B46
:101360009988186803F05EFE304B9988186803F07E
:1013700059FE2A4A136801331360E5E7284B998820
:10138000186803F04FFE274B9988186803F04AFE4F
:10139000254B9988186803F043FE244B99881868F8
:1013A00003F040FE1D4A136801331360CCE71C4B69
:1013B0009988186803F036FE1A4B9988186803F06C
:1013C00031FE194B9988186803F02CFE174B998849
:1013D000186803F025FE114A136801331360B3E760
:1013E0000F4B9988186803F01DFE0E4B99881868FA
:1013F00003F018FE0C4B9988186803F013FE0B4B92
:101400009988186803F00EFE094B9988186803F054
:1014100007FE024A13680133136095E79400002029
:101420001C010020140100200C01002004010020F8
:10143000FC00002008B5052000F00AFC042818D89C
:10144000DFE800F003182D425700344B99881868E4
:1014500003F0E6FD324B9988186803F0E3FD314B49
:101460009988186803F0DEFD2F4B9988186803F0FF
:10147000D9FD08BD294B9988186803F0D3FD284B86
:101480009988186803F0CCFD264B9988186803F0FA
:10149000C9FD254B9988186803F0C4FDE9E71F4B87
:1014A0009988186803F0BEFD1D4B9988186803F0F1
:1014B000B9FD1C4B9988186803F0B2FD1A4B998846
:1014C000186803F0AFFDD4E7144B9988186803F04F
:1014D000A9FD134B9988186803F0A4FD114B998856
:1014E000186803F09FFD104B9988186803F098FD69
:1014F000BFE70A4B9988186803F097FD084B998855
:10150000186803F092FD074B9988186803F08DFD69
:10151000054B9988186803F088FDAAE71C01002094
:10152000140100200C0100200401002008B5FFF781
:10153000E9FEFFF77FFF02F043FE08BD08B5514BFF
:101540001A6840F628239A4206DC4E4B1A6840F689
:1015500027239A424BDD08BD002000F079FB50B1F3
:101560000128F2D1484B1B68042BEED8DFE803F0CA
:10157000122125292D00454B9988186803F052FD4A
:10158000434B9988186803F04DFD0021072000F0B7
:1015900067FBDAE73D4B9988186803F041FD3C4B47
:1015A0009988186803F03EFD374A136801331360C9
:1015B000CBE70133344A1360C7E70133324A136083
:1015C000C3E70133304A1360BFE7304B998818688E
:1015D00003F028FD2E4B9988186803F023FD2A4B51
:1015E00000221A600121072000F03AFBADE700203D
:1015F00000F02EFB80B10128ADD1244B99881868EA
:1016000003F010FD224B9988186803F00BFD0121AF
:10161000072000F025FB9EE71B4B1B68042B9AD884
:10162000DFE803F00312161A1E00184B9988186899
:1016300003F0F8FC164B9988186803F0F1FC124A85
:1016400013680133136086E701330F4A136082E7A2
:1016500001330D4A13607EE701330B4A13607AE7CA
:101660000A4B9988186803F0DDFC094B99881868C3
:1016700003F0D8FC0021044B1960072000F0F0FAB9
:1016800069E700BFA000002098000020F4000020BF
:10169000EC00002038B503F0FFFE01F051FA0A48D3
:1016A00001F058F9094D2860094801F053F9094C37
:1016B00020602968132000F0D3FA2168142000F07C
:1016C000CFFAFFF73BFF38BD34010020A000002017
:1016D000300100209C0000207047000008B5024B3C
:1016E000186800F041FA08BDAC00002080B5ADF5E7
:1016F000006D00F019F900F0A6F96B4C02222146AA
:101700006A4801F06BF900222146694801F066F948
:1017100001222146674801F061F904234FF4005289
:101720006549664800F069FE654D04230822294694
:10173000644800F062FE042310222946624800F04B
:101740005CFE042320222946604800F056FE042354
:10175000402229465E4800F050FE0423012229461B
:101760005C4800F04AFE04234FF4806221465A4848
:1017700000F043FE04234FF400622146574800F076
:101780003CFE04234FF480722146554800F035FE9C
:1017900004234FF400722146524800F02EFE042329
:1017A00008222146504800F028FE0423102221463A
:1017B0004E4800F022FE4FF480414FF0007003F0DD
:1017C00025FC01F053F800F0EDF800F033F901F0DA
:1017D00089F900F043F90DF5FB654FF0804128468B
:1017E00000F06AF9424B1D600DF27C540123022285
:1017F0004049204601F0B0FB3F4BCDF870353F4BE0
:10180000CDF870353E4BCDF874353E4BCDF878357C
:101810003D4B1C600DF5AE61204601F09FFC21465A
:10182000ACA802F035F9ACAA21468CA802F076FDEE
:10183000364EACAB3360FFF7FFFC02218CA802F000
:1018400091FD334FACAB3B60204602F0B1FC00236E
:10185000304A314901A800F0AFFA3B6833600A22F0
:101860002E49284600F04AF964222D49284600F006
:1018700045F9C8222B49284600F040F904211520DB
:1018800000F0EEF9FFF7E6FC04E00DF103018DA88E
:1018900002F016FA00238DF8033001A800F0CCFB0B
:1018A000919B002BF6D1F0E70008014038010020A1
:1018B00034010020300100200010014024010020EC
:1018C000000C01401C010020140100200C0100202C
:1018D00004010020FC000020F4000020EC000020A7
:1018E000E4000020DC000020D4000020CC00002018
:1018F000AC00002000640040D85E0008E85E0008EC
:101900002112000839120008A800002098010020C8
:10191000A4000020806800080048004095160008D8
:10192000691100082D15000808B51C4803F0D4FC07
:101930004FF0E0231A4AC3F80C2D40F2023003F0B6
:1019400029FD40F2033003F025FD4FF4417003F010
:1019500021FD40F2053003F01DFD40F2923003F00E
:1019600019FD4FF4607003F015FD4FF4207003F083
:1019700011FD40F2093003F00DFD40F2862003F026
:1019800009FD4FF4407003F005FD40F2993003F07B
:1019900001FD4FF4437003F0FDFC08BD346A0008FC
:1019A0000003FA0530B597B003F0B4F900F5FF3540
:1019B00005F2FD15AD021422002101A800F017FD6B
:1019C0001A4B01934FF40053ADF8083001238DF802
:1019D0000A308DF80B30164A03920422ADF810201D
:1019E0008DF8123000238DF8133003F077F91421AD
:1019F00001A803F081F915902B6D834201D117B036
:101A000030BD03F0A7FA284603F05AFA002407E095
:101A100001AB53F8241005EB840003F0B5FA013450
:101A2000142CF5D903F0A2FAE9E700BF0010014039
:101A3000000C014008B51C2003F082FFE0211C20AF
:101A400003F08AFF08BD08B54FF41C71032003F0B2
:101A50005BFD002003F02AFD08BD000010B582B038
:101A6000144CA02302220321204603F099FA4023BC
:101A700001220021204603F093FA04F52054204669
:101A800003F05CFD002201920092012328212046F0
:101A900003F08CFD0121204603F080FD204603F079
:101AA0006FFD204603F075FD204603F05FFD02B098
:101AB00010BD00BF0008014038B505460C46016264
:101AC000084603F094FD204603F096FD094B196883
:101AD0004909094BA3FB0131C9090139204603F02B
:101AE0009AFD4FF6FF71204603F097FD00236B62CD
:101AF000284638BD8C000020C55A7C0AF8B5436AD8
:101B0000032B00DDF8BD04460E461546006A03F0BF
:101B10007DFD636A134F0122F95C206A03F07FFDAB
:101B2000636A0022F95C206A03F03FFE636A44F8AE
:101B3000236003F1080105EB850202EB82029200AB
:101B400024F8112002219940206A03F043FD00216E
:101B5000206A03F03CFE206A03F053FD636A013300
:101B60006362CFE7F05E0008F8B50546002424E084
:101B70000226A6403146286A03F030FD10B3286AD9
:101B800003F023FE87B22B6A03EB84035A6B04F144
:101B9000080135F811100A445A6355F82430984763
:101BA000286A03F012FEC01B04F10C0325F8130091
:101BB0003146286A03F018FD0134032C0BDC6B6AF4
:101BC000A342D5DC6B6AA342F6DC0221A140286A5D
:101BD00003F00AFDF0E7F8BD0146002210460FE0D1
:101BE00002F10C0331F813304FF47A7C0CFB03F351
:101BF00002F1080C31F81CC093FBFCF318440132CD
:101C00004B6A9342ECDC704708B5C0EBC0020B4B4B
:101C100003EB8203DB688B420EDC084B03EB820391
:101C20001B698B4201DAFF2007E0054B43F82010C7
:101C3000FFF752FD002000E0FF2008BD746500089A
:101C400004000020014B53F82000704704000020DE
:101C5000024B53F820004011704700BF04000020E1
:101C60004901024B43F82010704700BF04000020D8
:101C7000014B43F8201070470400002010B50446C3
:101C800008464FF0844103F08DFF04F0DBF8024B6F
:101C900043F8240010BD00BF0400002070B50646C4
:101CA0000024074D162C09DC3146686800F000FB63
:101CB00010B101341C35F5E7E0B270BD1820FCE727
:101CC000746500080023064A162B07DC118B81423D
:101CD00002D001331C32F7E7D8B2704718207047A2
:101CE00074650008C0EBC000014B03EB8000704737
:101CF0007465000838B50024074D01E001341C3537
:101D0000162C07DC2B8B002BF8D06969E0B2FFF7AB
:101D1000AFFFF3E738BD00BF74650008014B1954ED
:101D2000704700BFB0000020024A135C0B431354FD
:101D3000704700BFB0000020024A135C23EA010391
:101D400013547047B0000020014B185C704700BF6F
:101D5000B0000020C0EBC000024B03EB8003987E74
:101D6000704700BF7465000849F22550704708B5F8
:101D70002021806803F089FD08BD08B5806803F064
:101D80007CFD08BD10B504464368597A586803F0D5
:101D900025F8636804F12902597A586803F030F88D
:101DA00063688022597A586803F03AF86368597A70
:101DB000586803F00AF810BD70B504460D464F4947
:101DC00001604F4901608560037302610121017563
:101DD0004175817500228261C26180F820204262D3
:101DE00080F8281047494160032A07D861680868CD
:101DF000A84203D01C3161600132F5E7424A146009
:101E0000002B74D062685069002B73D063681B8B01
:101E10000222032103F0C4F84FF4E131284603F015
:101E2000D9FC0821284603F0E9FC4FF4005128466C
:101E300003F0EDFC0C21284603F0F5FC00212846B8
:101E400003F0EBFC0021284603F0F3FC284603F0E6
:101E500006FD284603F008FD6368197A586802F009
:101E60005FFF6368197A586802F0A6FF63682E1D49
:101E70003246197A586802F0BAFF63680022197A6C
:101E8000586802F077FF63680022197A586802F0F8
:101E900065FF6368197A586802F078FF6368597AB9
:101EA000586802F03DFF63683246597A586802F07C
:101EB0009EFF63680022597A586802F05BFF6368EE
:101EC0000022597A586802F049FF6368597A5868C5
:101ED00002F05CFF6368597A586802F076FF20468A
:101EE000FFF750FF284603F0AAFC204670BD626849
:101EF000D06889E763681B8A8AE700BF006800082A
:101F00000C68000810680008C800002038B50D46AD
:101F10000469437D3BB1216839B1284600F0C8F916
:101F200018B10834F7E7002401E023680BB120461C
:101F300038BD1C46FBE738B505460C4603E0A868EB
:101F400003F082FC013421780029F8D138BD00006B
:101F500010B50446084600F015FA00F0FAF9237DA2
:101F600083420DD000236375237B0BB362685069F5
:101F70000BB363681B8B0122002103F011F810BD25
:101F800001236375237B6BB1626850696BB1636831
:101F90001B8B0222032103F003F808492046FFF7B8
:101FA000CAFFECE76268D068F0E763681B8AF0E775
:101FB0006268D068DCE763681B8ADCE75862000867
:101FC00030B585B00446084600F0DCF90378302BC4
:101FD00011D0322B0DD04FF46125637D73B92946A2
:101FE000A06803F0F7FB0021A06803F010FC05B027
:101FF00030BD0D4DF1E74FF4E135EEE70A222946F9
:1020000001A800F07BF909492046FFF794FF084931
:102010002046FFF790FF01A92046FFF78CFF0549F6
:102020002046FFF788FFDAE71055220058620008C3
:10203000586000081C650008F8B504464368597AE2
:10204000586802F0E6FE0646C0F1800558B9204601
:10205000FFF798FE07E05A1CE261234493F8291029
:10206000A06803F0F1FBE369AB42F4DB002D1FDD58
:10207000C6F17F06264496F829300A2B13D00D2B83
:1020800011D094F82930212B12D1A36983B12046B5
:10209000FFF778FE0023E361A3695B6804F2A911EE
:1020A0002046984704E0012D03DC2046FFF76AFE36
:1020B000F8BD6319002283F82920E26104F12907A1
:1020C0002021384600F012F9064603781BBB0A218E
:1020D000384600F00BF90646002384F8A93133781E
:1020E000FBB100233370A3611F49384600F0E0F8CC
:1020F0000646E0B904F2A9112046FFF729FFA369BB
:1021000043B3A06803F0BDFBA3695B6804F2A911A7
:1021100020469847C9E7411C04F2A91000F0D6F800
:10212000DDE70D21384600F0E1F80646D9E70F4912
:10213000384600F0BDF8064628B904F2A911204639
:10214000FFF73EFFDBE739462046FFF7DFFEA061E1
:102150002E46D4E7012EA8DD637D002BA5D00449CF
:102160002046FFF7E8FEA0E76860000874600008FA
:102170008060000838B504460D4601E0002373B1C5
:1021800063680222197A586802F0DFFD0028F5D151
:1021900094F828300BB10023F1E70123EFE76368DF
:1021A000197A586802F01AFE6368AAB2197A586858
:1021B00002F036FE636894F82020D201A83222444F
:1021C0000132197A586802F01BFE63680222197AFC
:1021D000586802F0B5FD6368197A586802F0F5FD99
:1021E00094F82030B3FA83F35B0984F8203000239D
:1021F00084F8283038BD10B50446837D73B10A29B0
:1022000010D0436A7F2B0DD090F8202000EBC21233
:102210001A4482F8A9100133436210BD806803F0AC
:1022200013FBFAE794F82030626A04EBC3131344FB
:1022300083F8A910511C2046FFF79CFF002363621E
:10224000EBE7000008B5044B1B681A681268C1B2BE
:102250001846904708BD00BFC8000020704708B569
:1022600000F08AFC08BD000000B583B00649D1F833
:10227000F027D1F8EC37D1F8E8170091034900F0C6
:10228000D5FA03B05DF804FB00F0FF1F9C60000866
:1022900010B50446FFF72EFD0249204600F0C6FAAD
:1022A00010BD00BFB060000808B501F009FD08BD11
:1022B000431E013913F8010F11F8012F10B10AB1B3
:1022C0009042F7D0801A18BF01207047013911F8E9
:1022D000013F0BB90370704700F8013BF7E7034675
:1022E00000201A5C02B970470130FAE7034618462D
:1022F00013F8012B0AB18A42F9D17047002970B551
:1023000018DA2D23012400F8013B4942034691FBD2
:10231000F2F602FB161130311970311E1D4603F121
:102320000103F4DC00221A70024695420AD8241AEE
:10233000181904E004D1302341700370012070BDEE
:102340000024E3E711782E7802F8016B05F80119F3
:10235000EBE730B503782D2B11D14FF0FF3401306E
:1023600000210A25431E01E005FB012113F8012F7E
:10237000303AD0B20928F7D904FB01F030BD01246E
:10238000EEE7000010B5134C014610F8012BA2F146
:102390000A03DBB2162B19D824FA03F3DA07F3D4B5
:1023A0000846FFF79CFF01380844814204460AD2E0
:1023B000237801380A3BDBB2162B04D8054A22FAEF
:1023C00003F3DB07F1D40023637001E0002AE7D1B7
:1023D000084610BD09004000002310B5934200D10B
:1023E00010BD51F8234040F823400133F6E7013A8D
:1023F00000D2704740F8041BF9E7F8B50C461546C3
:1024000001608280013B052B04D8DFE803F01B0745
:102410000B0F1317002302271E4616E00023012787
:102420001E4612E000231F461E460EE000231F46F4
:1024300003260AE001231F46032606E000230227A5
:10244000032602E001230227002633B92B463A4631
:102450003146204602F0A4FDF8BD2946204602F090
:10246000DFFDF3E7024B4FF400421A80704700BFD4
:102470002C01002008B5FFF7F5FF08BD70B50C1E54
:10248000ACBF01234FF0FF335C430133064608BF66
:102490002D234FF0640208BF06F8013B611104F0E0
:1024A0001F040546544330460A22FFF727FF2E2219
:1024B0006411092C3254D8BF302206EB0003D8BF78
:1024C0005A7021464FF00A02CCBF581C981CFFF7E7
:1024D00015FF284670BDF0B503782D2B17D14FF0AE
:1024E000FF36013000244FF00A0C02E018460CFBC6
:1024F0000454034613F8012BA2F13005EFB2092F63
:10250000F4D9AAB98C40144406FB04F0F0BD0126AE
:10251000E8E78B4003EB650393FBF5F30CFB05F554
:102520001A4410F8013F303BDFB2092FF1D9E9E737
:102530000A250022AC46F4E72DE9F04105460F4696
:10254000161E02DD0A46002108E04FF0200813F0B5
:10255000010414D0002422E0013101321078002857
:10256000FAD1B14206DA761A13F0020F04D14FF015
:102570002008ECE70026F7E74FF03008E7E7002EE9
:102580000DDD2B681B684146284698470134013E03
:10259000F5E72B681B6828469847013401373978DE
:1025A0000029F6D106E02B681B684146284698476B
:1025B0000134013E002EF6DC2046BDE8F0812DE915
:1025C000F04184B00746DDF828800C9859B11E46CA
:1025D0000C4613B10A2A13D0002600238DF80D30C3
:1025E0000DF10D0518E030238DF8003000238DF833
:1025F00001300B9B424669463846FFF79DFF32E0AB
:10260000002901DB0026E8E74C420126E5E73031EE
:1026100005F8011DB4FBF2F44CB1B4FBF2F102FB7E
:1026200011410929F3DDA0F13A031944EFE79EB106
:10263000B8F1000F0BD00B9B13F0020F07D03B68D3
:102640001B682D213846984708F1FF3804E02D23F8
:1026500005F8013C013D00260B9B424629463846C1
:10266000FFF76AFF304404B0BDE8F08108B50846C2
:10267000FFF7E8FD08BD70B584B0044615461E4658
:102680006846FFF7FBFE33462A4669462046FFF7B9
:1026900053FF04B070BD000070B588B006460C460C
:1026A0000592002599E0A21C0123A3E0013443F028
:1026B00002032278302AF9D00022217839291CD946
:1026C000782900F289805829C0F08680583920295D
:1026D00000F28280DFE801F043808080808080808B
:1026E0008080806A2580618080808080808080807A
:1026F0008080801A80528080340030296CD302EBB5
:102700008202303901EB42020134D6E70599081DF7
:102710000590096801B93A493046FFF70DFF0544B5
:102720005AE00599081D05900968612002900193FF
:10273000009201230A223046FFF741FF05444BE097
:102740000599081D05900968612002900193009287
:10275000002310223046FFF732FF05443CE0059984
:10276000081D059009684120029001930092002302
:1027700010223046FFF723FF05442DE00599081D80
:1027800005900968612002900193009200230A22BB
:102790003046FFF714FF05441EE00599081D05901B
:1027A00009683046FFF767FF054415E00599081DE5
:1027B000059009688DF81C1000218DF81D1007A9DF
:1027C0003046FFF7B9FE054406E0144633681B683F
:1027D00021783046984701350134237863B1252BA1
:1027E000F4D1621C63783BB1252BEED02D2B3FF446
:1027F0005AAF002314465CE7284608B070BD00BFFE
:10280000246100080FB400B583B004AA52F8041B79
:10281000054B0193009201A8FFF73EFF03B05DF85E
:1028200004EB04B0704700BFF86800080EB400B5B0
:1028300082B003AA52F8041B0192FFF72DFF02B0E9
:102840005DF804EB03B07047044B054A1360991C14
:10285000044A11600433044A136070473C010020AD
:1028600038010020340100203001002038B52A4C06
:10287000204601F0F3FF204601F0F5FF204601F06D
:10288000FCFF204601F0F4FF0121204601F0D1FFBA
:10289000204601F096FF002300E001331F4A9342D7
:1028A000FBDD1D4D284601F0A7FF284601F0B7FFCC
:1028B0001B4A0321284601F0E5FF284602F010F8E4
:1028C000184C194A0121204602F091FA174A0121B9
:1028D000204602F095FA4FF480720121204602F062
:1028E00049FA4FF480620121204602F037FA24228F
:1028F0000121204602F094FA0121204602F046FA16
:102900000121204602F04BFA0121204602F05DFA37
:10291000284601F05EFF38BD002401407F380100E9
:1029200084010020000002404C2401403C010020B2
:10293000884205DD914209DC90420ADD104670476D
:10294000904206DC914203DD10467047084670470E
:102950000846704730B583B0046800250BE0A289B3
:10296000E1882088FFF7E4FF02AB03EB450323F87F
:10297000080C01351234032DF1DDBDF80000BDF85F
:1029800002301844BDF804301844BDF8063018442D
:10299000C0F38F0003B030BD08B50F4B98420BD089
:1029A00003F58063984211D0A3F50063984205D1E6
:1029B000072903DCC8B204E0012903DD01F012FF9E
:1029C000102008BDC9B20831C8B2FAE70529F5DC04
:1029D000C9B20A31C8B2F4E7000C014070B5044630
:1029E0000D461646012393409BB20022114628460D
:1029F00002F0D6FA2468054BE41A641031462846E2
:102A0000FFF7CAFFA4B2024B185570BD3C0100206D
:102A10008401002008B5FFF717FF08BD08B502F0D4
:102A200079F900F5FF3000F2FF10800208BD2DE9B2
:102A3000F043ADF2044DFFF7F1FF064602460023D6
:102A40004FF0FF3403E052F8041B0C400133FF2B1E
:102A5000F9DD02F043F94FF480724FF0FF31684620
:102A6000FFF7C5FC002500E00135162D1AD8EFB29E
:102A70003846FFF76FF90028F6D13846FFF732F9EC
:102A800080463846FFF760F90DEBC50989F8030069
:102A9000B8F818302DF835303846FFF7D3F8C9F8B4
:102AA0000400E1E7FE21684602F026F9FE9002F0FC
:102AB00051FAB4F1FF3F01D100240AE0304602F0A0
:102AC000FFF9F9E75DF8241006EB840002F05CFAE8
:102AD0000134FF2CF6D902F049FAFE980DF2044DAC
:102AE000BDE8F083F8B5FFF799FF064602F0F6F867
:102AF000FE21304602F000F9D6F8F833834201D1C6
:102B0000002503E04FF0FF3019E001357E2D15D888
:102B100036F83500FFF7D6F804461828F5D0FFF749
:102B200019F90028F1D106EBC50779682046FFF7AF
:102B30009FF8F9782046FFF7F1F8E6E70020F8BDA6
:102B4000014B1860704700BF8801002008B5074B93
:102B500003EBC10292F804C053F83130044A52F832
:102B60002C2001460348FFF74DFE08BD0869000808
:102B7000FC6800082C61000810B50C4B5B680BB1B9
:102B8000002409E00A48FFF73DFE10BD074B13F88B
:102B90003410FFF7DBFF0134032CF6D8034B03EBB3
:102BA000C40358680028F1D1EFE700BF600000209F
:102BB0003C61000810B58AB00F4B01EB410203EBFA
:102BC000820453F82220646801EB410103EB810386
:102BD0009B68D0F85802002108910791069305944C
:102BE000049203910291019100910B46012201F0A0
:102BF00089FE0AB010BD00BF2C690008F0B583B093
:102C000004460D4616461F460121D0F8580201F031
:102C10008CFF019600970023B5F5006F34BF0022AA
:102C200001222946D4F8580201F084FF002805DB70
:102C3000D4F85432002B17DC03B0F0BDD4F8543272
:102C4000132BF5DC03F1110204EB021255609760BF
:102C5000316804EB0312C2F81C117168C2F820112C
:102C60000133C4F85432E3E70121D4F8580201F0EB
:102C700058FFE1E7012801DD00207047014B53F8C0
:102C8000200070478C01002030B58BB004460D4603
:102C90000AE09DF8213006AA0999204600F0A6FA1C
:102CA00002F0FAFBC4F8F8000023059306AB049386
:102CB0000DF12103039308AB02930DF1220301935D
:102CC0000DF12303009309AB0122E9B2D4F85802B5
:102CD00001F0A7FF0028DCD10BB030BD30B583B0C8
:102CE000044600F58A7504E0D4F85432013BC4F878
:102CF0005432D4F85432002B17DD03F18053013BDA
:102D00001A0105EB0313A95803F1080201921B797C
:102D100000930023B1F5006F34BF00220122D4F8E4
:102D2000580201F007FF0028DEDAD4F854320BB164
:102D300003B030BD0121D4F8580201F0F6FEF7E7E8
:102D4000F0B585B00E4615461C461068B3F800C0B5
:102D50005A889B88E7885B019BB2520192B24FEA86
:102D60004C1C1FFA8CF14FF0010CCDF808C000EAA2
:102D70000C0CCDF804C07F01BFB2009701F0B4FE87
:102D8000002333602A6801322A60E380A3806380D5
:102D9000238005B0F0BDF0B585B00F4615461C4642
:102DA0001068B3F800C05A889B88E6885B019BB224
:102DB000520192B24FEA4C1C1FFA8CF14FF0010CF9
:102DC000CDF808C000EA0C0CCDF804C07601B6B20C
:102DD000009601F079FE00233B602A6801322A60E8
:102DE000A380238040F2FF73E380638005B0F0BDD1
:102DF00070B582B00E4615461C4610681968C900A9
:102E00005A68D20001230093034042F0040241F0CB
:102E1000040101F079FE002333602A6801322A6040
:102E20006360236002B070BD30B58BB005460023EF
:102E300008930993464906AA03C982E8030004934C
:102E40000593039302930193D5F85822414B9A427C
:102E50000AD0A3F58063D3F8003AC3F305230093A7
:102E60000024C2F81C4221E00023F8E704F11E020E
:102E700005EB8202516861B3029A501C02900DF179
:102E8000280C0CEB420C2CF8103C023202920AABDC
:102E900003EB400020F8101C039B042B22D0029B64
:102EA000022B26D0019B022B2AD00134D5F8F43016
:102EB000A3422CDD05EB84035B68B3F5006FD5D32B
:102EC000019A0AA901EB820141F8183C01320192F2
:102ED000E2E7039A0AA901EB420121F8083C01321A
:102EE0000392D9E708AB6A4603A92846FFF728FFF3
:102EF000D5E706AB6A4602A92846FFF74CFFD1E7A3
:102F000004AB6A4601A92846FFF772FFCDE7039B91
:102F1000002B07DC029B002B0BDC019B002B0FDC42
:102F20000BB030BD08AB6A4603A92846FFF708FF7F
:102F3000F0E706AB6A4601A92846FFF72CFFECE74D
:102F400004AB6A4601A92846FFF752FFE8E700BF35
:102F50006869000800640040F8B504460D4616464E
:102F60001F4600F0E5F8544B23600023C4F85432A8
:102F7000C4F85852514B9D422FD003F580639D42B7
:102F800058D1002F00F082804D4D202302220021D5
:102F9000284602F005F82021284602F041F8402397
:102FA00002220321284601F0FBFF402002F0C8FC6A
:102FB000F021402002F0D0FC412002F0C1FCF021C1
:102FC000412002F0C9FC3F2002F0BAFCF0213F2072
:102FD00002F0C2FC3B4B5C602CE0002F41D0384D2E
:102FE0004FF4807302220021284601F0D9FF4FF4EC
:102FF0008071284602F014F84FF400730222032176
:10300000284601F0CDFF142002F09AFCF021142094
:1030100002F0A2FC152002F093FCF021152002F032
:103020009BFC132002F08CFCF021132002F094FC96
:10303000244B1C60D4F8580201F058FC314620465D
:10304000FFF7B8FD2046FFF7EFFE0221D4F8580243
:1030500001F067FD1021D4F8580201F062FD20460E
:10306000F8BD194D4FF4006302220021284601F0FB
:1030700097FF4FF40061284601F0D2FF4FF48053D0
:1030800002220321284601F08BFFBCE70C4D4FF4D0
:10309000805302220021284601F082FF4FF4805124
:1030A000284601F0BDFF4FF40053022203212846B9
:1030B00001F076FF79E700BF206900080064004056
:1030C000000C01408C0100200008014008B50020E0
:1030D000FFF7D0FD0021FFF7D7FD08BD08B50020A0
:1030E000FFF7C8FD0121FFF7CFFD08BD08B500209F
:1030F000FFF7C0FDFFF7F2FD08BD08B50120FFF79F
:10310000B9FD0021FFF7C0FD08BD08B50120FFF79C
:10311000B1FD0121FFF7B8FD08BD08B50120FFF79B
:10312000A9FDFFF7DBFD08BD0020704770470000D8
:10313000084B03600023C0F8F430C0F8FC3005E011
:1031400003F14002044940F822100133042BF7DD5B
:10315000704700BF7869000880000020D0F8FC307C
:10316000042B01DD0020704703F1400240F82210DB
:103170000133C0F8FC300120704738B5D0F8F45066
:103180001D2D0BDD002038BD01339D4208DD00EB15
:10319000830464688C42F7D10020F4E70023F4E74D
:1031A00000EB8503596005F11E0300EB83035A60B1
:1031B0000135C0F8F45003689B6898470120E2E7A6
:1031C00038B505460024C0F8F44003689B6898476A
:1031D00007E004F1400355F8230003685B68984753
:1031E0000134D5F8FC30A342F3DC38BD2DE9F843B7
:1031F0000546884617461E46002400E00134D5F8EF
:10320000FC00A0420CDD04F1400355F823000368E4
:10321000D3F8009033463A464146C8470028EDD0DF
:10322000BDE8F88370B5054600F13006344605E088
:10323000002234F8041B6868FFF79FFFA31B242BB0
:1032400002DCA378322BF3D170BD10B501B302F1CB
:103250000C0E00EB8E0E0A2A42D89EF8021032297C
:1032600040D001EB410C4FEA8C0C0CF1580C84441B
:1032700000249CF80910FF2930D073B1013BDBB268
:1032800001EB410189005831644600EB010CF0E785
:1032900002F1020E00EB8E0EDDE714B16172012027
:1032A0001FE0322904D08EF80210F8E70133DBB2B8
:1032B0009918092904DC0EEB830189783229F5D1AC
:1032C000013BDBB20EEB830291788EF802103EF8E0
:1032D0002330AEF8003032239370E0E7002000E0A6
:1032E000002010BD0020FCE7F8B50C4600F10806F0
:1032F00000231A461F4619463FBB35460022A5EB60
:10330000060CBCF1240F27DC95F802C0BCF1320F8B
:1033100022D00CEB4C0E4FEA8E0E0EF1580E864466
:10332000002309E00133DBB20CEB4C0C4FEA8C0CB0
:103330000CF1580C00EB0C0E9EF809C0BCF1FF0F0D
:1033400006D0BEF804E0A645ECD157B10020F8BD88
:103350000132D2B20435D2E700F130060F46012126
:10336000CAE7FFF772FFF2E7F0B5089F00243C7050
:1033700000F10806002C3AD13546AC1B242C30DC79
:10338000AC78322C2DD004EB440E4FEA8E0E0EF1A9
:10339000580E864407E00CEB4C0C4FEA8C0C0CF1F9
:1033A000580C00EB0C0E9EF809C0BCF1FF0F16D0B4
:1033B000BEF804408C42EED1298811609EF80720A7
:1033C0001A709EF90820059B1A70DEF80020069BF3
:1033D0001A609EF90620079B1A700120F0BD043583
:1033E000CBE73C7801253D7000F13006C2E70020B4
:1033F000F4E78446D9B102F10C0100EB81010A2AFD
:103400001FD88A78322A1ED002EB4202920058322C
:103410000CEB0200427AFF2A11D063B1013BDBB210
:1034200002EB4202920058320CEB0200F2E7911CD0
:1034300000EB8101E3E70A88009B1A6070470020D7
:10344000704700207047002070472DE9F04385B099
:103450000646884600F1080900273B4626E0029709
:1034600094F9063001932368009394F90830E279C7
:1034700029882079C047647A04EB4404A4005834B6
:103480003444637AFF2BEAD10435A5EB0903242BDE
:1034900008DCAB78322B05D003EB4304A40058348E
:1034A0003444EEE706F130093B4601270BB94D469F
:1034B000EBE705B0BDE8F083002306E001EB8302F3
:1034C0004FF0320C82F802C00133092BF6DD0023E5
:1034D00007E003EB430200EB8202FF2182F8611058
:1034E0000133322BF5DD704710B5044600F10801B9
:1034F000FFF7E2FF04F130012046FFF7DDFF6068CF
:10350000FFF75EFE10BD2DE9F041884615461F46C7
:10351000002426460AE0286801F0E8FB064655F834
:10352000041B08EB840001F02FFD0134BC42F2DBE8
:103530003046BDE8F081084600E00430431A242BF1
:1035400008DC8378322B03D003889342F5D102E064
:1035500000207047002070472DE9F0414C4B1B784C
:103560001BB100242046BDE8F0810546164603F055
:10357000FF040A4600F13001FFF7DDFF0028F1D01B
:10358000837803EB4304A40058342C443FE01F2B02
:1035900053D83768C7F30722120442EA0762C7F319
:1035A000074142EA012242EA1762C3F11F03DBB27C
:1035B00022FA03F3184002F09DFA074694F9060038
:1035C00002F09CFA394602F0E5F90146206802F063
:1035D000E9FA07462079FEF7BDFB20B12079FEF716
:1035E000B9FB01284CD1B4F804804FF0844138462F
:1035F00002F0D8FA02F026FC01465FFA88F0FEF7E6
:1036000003FB647A04EB4404A40058342C44637A2A
:10361000FF2B3AD0E37994F9082082EAE271A1EB1A
:10362000E271C9B2012088400138002AAFDB1F2BAC
:1036300018D97268203BDBB2BAE71A441F2A03DDAF
:103640007768203BDBB2A5E75B1ADBB20133DBB264
:103650003768DF407268C3F120039A40174301398D
:10366000CBB297E71A441F2A01DC3268A0E7326820
:10367000DA407168C3F1200399400A43002397E7B9
:1036800039462079FEF7FAFABBE701246AE700BF62
:10369000940100202DE9F8439DF820709DF92480C5
:1036A000B3F5006F65D204460D46164699463F2F86
:1036B00062D808F12003DBB2402B60D84A46FFF7FE
:1036C0003AFF844608B1002211E00021092907DCF5
:1036D00005EB81039A78322A01D00131F6E79C4646
:1036E000BCF1000F4ED0ACF80090ECE70132312A6B
:1036F00007DC02EB420304EB830393F86130FF2BFA
:10370000F4D1322A41D09CF8023000210AE003EBC8
:10371000430189005831214403EB430304EB830345
:1037200093F86130322BF2D102EB420304EB8304B5
:10373000A4F85C600A9BA3659DF92C3084F85E3088
:1037400084F85F7084F86080322384F8613019B1A6
:103750004A722B46002004E08CF80220F9E7013081
:1037600004335A1B242A02DC9A78322AF7D1BDE8A6
:10377000F8834FF0FF30FAE76FF00100F7E76FF0E2
:103780000200F4E76FF00300F1E76FF00400EEE7EA
:1037900010B584B09DF920400394079C02949DF9D4
:1037A00018400194009313460A4600F10801FFF700
:1037B00071FF04B010BD70B584B0044615469DF984
:1037C00028200392099A02929DF9202001920093E9
:1037D0002B460A4600F13001FFF75CFF0646002247
:1037E00029466068FFF7C9FC304604B070BD2DE97A
:1037F000F04F89B08346059206938A46079131E0DF
:10380000B4F9020002F07AF9002303930290CDF894
:10381000048000953B46049A05993046FFF73AFF2D
:103820000634A4EB09032A2B1ADC94F90530002B8B
:1038300016DD2088FEF746FA0490DBF80060BAF83F
:103840000070257994F90580069B002BD8D0B4F937
:10385000020002F053F94FF0745102F0A3F9D3E7DC
:103860000AF1320A079BAAEB0303B3F5E17F0ADCF6
:10387000BAF800104FF6FF73994204D00AF102051E
:103880002C46A946CDE709B0BDE8F08F08B501F098
:1038900041FA00F5FF3000F5FF70800208BD70B5F9
:1038A00082B005460190FFF7F1FF0446D0F8E863C7
:1038B00001F014FAFA21204601F01EFA864202D0E5
:1038C000002002B070BD002305F10802214601A8C6
:1038D000FFF78DFF012305F1300204F5FA7101A80D
:1038E000FFF785FF0120ECE7F8B505460F460E46C9
:1038F0000EE02079FEF7F6F9038BA380647A04EBDF
:103900004404A40058342C44637AFF2BF1D10436CC
:10391000F31B242B08DCB378322B05D003EB4304D4
:10392000A40058342C44EFE7F8BDF8B505460F461F
:103930000E460DE0A088FEF7C5F9A080647A04EB7E
:103940004404A40058342C44637AFF2BF2D104368B
:10395000F31B242B08DCB378322B05D003EB430494
:10396000A40058342C44EFE7F8BD0000F0B583B054
:103970000546FFF78BFF064602462A4B01211970C8
:1039800000234FF0FF3403E052F8041B0C400133D6
:10399000FF2BF9DD01F0A2F901F0DCFA022001F0C1
:1039A000CFFAB4F1FF3F38D105F108073946284670
:1039B000FFF79AFF05F1300421462846FFF794FFF0
:1039C0000A233A4631462846FFF79DFD0A23224640
:1039D00006F128012846FFF796FD0190962305F190
:1039E000580206F150012846FFF78DFD0190012392
:1039F00001AA06F52D712846FFF785FD01F0B6FAFC
:103A000039462846FFF791FF21462846FFF78DFFEC
:103A1000044B00221A7003B0F0BD304601F050FA9A
:103A2000C2E700BF94010020F8B50546FFF72EFF5E
:103A30000446D0F8B46201F051F9AA21204601F001
:103A40005BF9864203D02846FFF729FFF8BD05F150
:103A500008070A2221463846FEF7BEFC05F130066B
:103A60000A2204F128013046FEF7B6FC962204F142
:103A7000500105F15800FEF7AFFC39462846FFF724
:103A800054FF31462846FFF750FF0120DEE70000D3
:103A900010B5044608460D4B23600D4B2360616052
:103AA0002146FFF75BFB04F108012046FFF704FD08
:103AB00004F130012046FFF7FFFC2046FFF7B4FF7A
:103AC0002046FFF7AFFB204610BD00BFD85E0008C0
:103AD0009C6900082DE9F04184B00C4615461E464D
:103AE0009DF83070FEF7FEF8D0F804801449154BAD
:103AF0001868FEF79BFEE7B11349124B1868FEF7F2
:103B000095FE4FF084410A9802F04CF80D4B1F6867
:103B10009DF92C30039302F095F9029001960095DF
:103B20002346424609493846FEF780FE04B0BDE808
:103B3000F0810749034B1868FEF778FEE1E700BF04
:103B4000846100089C0100208C61000894610008D9
:103B50009061000870B504460846FEF713FC054660
:103B60002021FEF7C3FB0378A3B1002300F8013B3B
:103B70000521FEF7B0FC06462846FEF78FF8182808
:103B800012D03146FEF740F848B90A492046FEF700
:103B90004DFE03E008492046FEF748FE70BD074988
:103BA0002046FEF743FEF9E72A4605492046FEF780
:103BB0003DFEF3E7C4610008A8610008D061000879
:103BC000E8610008F8B507460846FEF7DBFB054646
:103BD0000BE0FEF737F802460E493846FEF726FEA0
:103BE000254605F8016B2C2E12D12C212846FEF714
:103BF0007DFB04460678002303702846FEF74EF846
:103C00001828E6D12A4604493846FEF70FFEE7E7B2
:103C1000F8BD00BF00620008086200082DE9F0410D
:103C200007460846FEF7AEFB80462021FEF75EFB06
:103C300003789BB104460646002306F8013B404644
:103C4000FEF72CF80546182829D06378212B0AD0D6
:103C50007E2B08D02F2B06D0002406E013493846CF
:103C6000FEF7E4FD0FE0A61C012431461048FEF7E4
:103C70001FFB50B974B101212846FEF75DF80D49CC
:103C80003846FEF7D3FDBDE8F0810B493846FEF714
:103C9000CDFDF8E701212846FEF746F8EFE742465A
:103CA00006493846FEF7C2FDEDE700BF2462000872
:103CB000346200084C6200083C620008E8610008B9
:103CC0002DE9F04F8BB007460846FEF75BFB037803
:103CD000059346493846FEF7A9FD00264FF0200817
:103CE00022E0434A039202930190CDF800A04B4694
:103CF000424640493846FEF799FD2846FEF72AF825
:103D000020B12846FEF726F801285AD1E268236937
:103D10006169206802960190009137493846FEF7A4
:103D200085FD4FF02C080136162E51D8F5B22846E5
:103D3000FDF7D8FF04462846FEF706F810F0010FFD
:103D400002D0059B682BEED1D4F80490D4F808A0DB
:103D5000B4F818B02846FDF775FF0290CDF804B00E
:103D6000CDF800A04B46424624493846FEF75EFD9A
:103D70000DF11F0303930DF11E03029309AB019391
:103D80000DF11D03009307AB08AA29461C480068E3
:103D9000FFF7EAFA0028B0D0DDF820809DF81C90EB
:103DA0009DF91DA04FF08441099801F0FBFE02F03F
:103DB00049F89DF91E309DF81F20002A91D0114A24
:103DC00090E711493846FEF731FD4FF02C08AAE77D
:103DD0000E4BD3F8F0270E493846FEF727FD0D4964
:103DE0003846FEF723FD0BB0BDE8F08F7062000887
:103DF00068620008A4620008086300087462000892
:103E00009801002060620008F462000800F0FF1FC3
:103E100058630008946300082DE9F0478AB004460F
:103E20000023059306930793089309930846FEF72A
:103E3000A9FA0578702D39D0632D45D02021FEF7E1
:103E400055FA0378002B48D0FEF79CFA074620214C
:103E5000FEF74CFA064603780BB9642D44D10023D3
:103E600006F8013B3846FDF719FF81463046FEF75C
:103E700089FA0646B9F1180F3BD0642D3ED04FF0B9
:103E800000084FF07E5AB8F1040F62DC2021304662
:103E9000FEF72CFA07460378002B3AD1B8F1020F4F
:103EA00037DC55492046FEF7C1FC1AE0534B1B682E
:103EB000002BFBD1514D2C605149524B1868FFF734
:103EC000C4FA00232B600CE04E4B1868FFF70CFB84
:103ED0004D492046FEF7AAFC03E047492046FEF77D
:103EE000A5FC0AB0BDE8F08743492046FEF79EFCDA
:103EF000F7E746492046FEF799FCF2E74946414B71
:103F00001868FFF7F1F9024641492046FEF78EFC9A
:103F1000E7E700233B703046FEF71BFAB8F1030FCA
:103F20000BD00AAB03EB880343F8140C781CFEF7A4
:103F300029FA064608F10108A5E710213046FEF7E8
:103F4000CAFA01F0DBFD4FF05E5101F02BFE824614
:103F5000ECE7742D17D09DF924300293CDF804A01E
:103F60009DF91C3000939DF81830059A4946254864
:103F70000068FFF720FC431D042B32D8DFE803F074
:103F8000262C201A14009DF924300293CDF804A0A9
:103F90009DF91C3000939DF81830059A4946194840
:103FA0000068FFF7F5FBE6E7059A1A492046FEF799
:103FB0003DFC96E7069A18492046FEF737FC90E745
:103FC000079A16492046FEF731FC8AE7059A1449FC
:103FD0002046FEF72BFC84E712492046FEF726FC1C
:103FE0007FE7012806DD104B024610492046FEF708
:103FF0001DFC76E70E4BF7E7C46300089C01002028
:10400000D53A000898010020A0630008D863000892
:10401000EC63000804640008186400082C640008BD
:1040200040640008686400089C6300088464000819
:104030005C62000810B504460C4B1B788BB172B65D
:104040000B4B1868FFF792FC0A492046FEF7EEFB7F
:10405000FEF7EDFC024662B607492046FEF7E6FB96
:1040600010BD0649FEF7E2FBFAE700BF840000201E
:1040700098010020B0640008C0640008DC640008F7
:1040800010B5044672B6FEF72DFD62B638B917209A
:10409000FDF722FB04492046FEF7C8FB10BD03498B
:1040A0002046FEF7C3FBF9E72065000834650008E9
:1040B00008B501F03DFC2DE9F84305468846174652
:1040C000002607E008F80600013623782C2B13D1D0
:1040D000BE4211D22C212846FEF708F9044690F87A
:1040E0000090002303702846FDF7D8FD254605F80B
:1040F000019B1828E6D1E8E73046BDE8F8830000C8
:104100002DE9F04184B006460846FEF73BF9044627
:10411000FEF71FF9804620212046FEF7E7F80378D6
:104120004BB10A2201A90130FFF7C5FF074630460F
:10413000FDF723FE20E019493046FEF777FB04B077
:10414000BDE8F08104F110036B4413F80C0CFDF78B
:1041500079FD03462A4612493046FEF767FB0134D3
:10416000104DBC42EEDB10493046FEF75FFBB8F164
:10417000FF3F01D008F1FF383046FDF7F8FD002879
:10418000DDD1B8F1000F02DD084D0024E9E7B8F1F8
:10419000FF3FD4D1054D0024E3E700BF4C65000884
:1041A0006C650008A06200081C6500085C620008DD
:1041B000014B1860704700BFA0010020704700004D
:1041C0002DE9F843364B00241C705C70AA229A70CB
:1041D000DA701C715C7113219971EA21D971314B2C
:1041E0001C705C709A70DA701C715C71D0229A71CC
:1041F000AB22DA712C4B9988186800F013FF05E0A8
:10420000274B195D294801F0B6F90134072CF7DD79
:10421000254B9988186800F003FF254E75782C020D
:1042200004F47C54234B1C80327814441C802046B8
:1042300001F064FC204901F0B5FC204F3860AD0965
:10424000DFF87C8088F80050F379DFF8789089F8FF
:10425000003033791C4D2B70B37903F03F031B4EB4
:10426000337021460D20FDF7FBFC386801F0EAFDB4
:1042700001460E20FDF7F4FC98F800100F20FDF722
:10428000EFFC99F800101020FDF7EAFC29781120C6
:10429000FDF7E6FC31781220FDF7E2FCBDE8F8837B
:1042A000B8010020B0010020D400002000300140FF
:1042B000C0010020A80100206EFAB33CAC01002030
:1042C000A7010020A4010020A5010020A6010020D4
:1042D000836DC26D9342FBD05A1C826503F03F038D
:1042E000034419764FF0FF3343617047A0F1040097
:1042F000FFF7EEBF10B50446017C002201F5C06156
:104300008068FEF73AFF617C3F2900D910BD00228A
:1043100001F5B061A068FEF730FFF7E710B504467D
:1043200008460D4B23600D4B63600D4B2360143327
:104330006360A160E26001232374FF2262744FF086
:10434000FF32626184F87C302146FEF707FF204689
:10435000FFF7D0FF204610BDD85E000800680008B7
:10436000AC69000808B501748068FEF729FF08BD34
:1043700010B50C46B1F80130B3F5A04F11D045F29D
:104380000102934236D045F20202934244D0802388
:1043900023700023237163710223A3710623E37149
:1043A00010BD0A78402AEAD143230B70CB78032B47
:1043B00016D8DFE803F002070C11354BD3F8E837C5
:1043C0004B60EDE7324BD3F8EC374B60E8E7304B0E
:1043D000D3F8F0374B60E3E7FDF7C6FC6060DFE73A
:1043E00080230B7000230B714B7102238B7106230A
:1043F000CB71D5E72378402BD2D14FF0FF33237117
:1044000063710023A371E37141222270836540230D
:10441000C365E3784361C3E72378232BB7D16023D7
:104420002370E378032B28D8DFE803F002171F215D
:1044300090F87C3043B172B6C06808B1FFF796FAC5
:10444000FEF7F5FA62B6ABE78023237000232371F1
:104450006371A3710823E371A2E772B6FEF742FB12
:1044600062B61720FDF738F99AE701F061FAFDF717
:1044700041FC1720FDF730F992E7802323700023D9
:10448000237163710223A3710623E37188E700BFE0
:1044900000F0FF1F2DE9F04184B006460C46B1F84C
:1044A0000120C2F3C017CD7825B1013D05EBD575CC
:1044B000C5F3470503AB00932B4602F03F02394694
:1044C000F068FEF796FF80462378402B0DD0232B13
:1044D0003DD0802323700023237163710223A371D5
:1044E0000623E37104B0BDE8F08130B30079FDF735
:1044F000F9FB028BE37823B9039B636043232370AA
:10450000F0E713F0010F09D098F8073042EA0342B0
:1045100098F9083042EA03626260EFE71349D8F87D
:10452000000001F03FFB01F0B3FC20F07F4398F95D
:10453000062043EA02636360E0E7802323700023E0
:10454000237163710223A3710623E371CAE7002874
:10455000BFD06368002BBCD1B4F801202B4602F019
:104560003F023946F068FEF770FEBBE700007A4470
:104570000B78232B00D070472DE9F04184B006461C
:104580000C461546CB78B3B94B68B3F5006F03D230
:104590004366602323700BE04FF0FF3343668023B4
:1045A00023700023237163710223A3710623E37137
:1045B00004B0BDE8F081476EB7F1FF3F01D0012B99
:1045C00029D096F97080B8F1000FE8D0022BE6D11F
:1045D000606820F07F4001F08DFA1E4901F096FBE3
:1045E000B06663681B1686F86E3035B3029301908F
:1045F000CDF8008096F86F303A4696F86C10F06867
:10460000FFF7D9F8002386F870304FF0FF33736658
:104610000028BEDAC3E7486880B2FDF753FBA6F86E
:104620006C006368C3F3054386F86F3063681B163C
:1046300086F870301628ACD9B1E702930190CDF816
:10464000008096F86F303A4696F86C10F068FFF7E5
:104650009FF8D7E700007A4438B504460D460B783A
:1046600003F06002602A1CD0B1F80130B3F5005F9E
:1046700044D003F47F42B2F5045F3FD0C16811B16A
:10468000B3F5405F6FD019B143F2010083426FD0A0
:1046900011B1B2F5445F71D029462046FFF768FE9C
:1046A00018E003F010030B70012207E0591CE165CC
:1046B00003F03F0323441B7EAB540132072A04DC82
:1046C000E36DA16D591A4029F0D1E36DA16D5B1A1C
:1046D000402B09D0A068217C03685C6808232A4627
:1046E00001F5B061A04738BD2B7843F001032B7072
:1046F000C2F1080243EA42032B70EBE7E87803F4C7
:104700007F42B2F5045F0CD0162822D82B78232BD9
:104710000DD0402BDED1FDF795FA686043232B7056
:10472000D8E71B029BB21844FDF7CCFAECE76968A6
:10473000FDF76AFA10B960232B70CBE780232B704A
:1047400030232B7100236B710923AB710623EB71AE
:10475000C0E780232B7000232B716B710223AB7198
:104760000623EB71B6E700222946FFF701FFB1E708
:10477000012229462046FFF7FBFEABE729462046EB
:10478000FFF788FEA6E708B590F810C00CF5C06CDE
:104790008C4507D090F811C00CF5B06C8C4506D054
:1047A000002008BD1146FFF757FF0120F9E71378F5
:1047B000803B18BF012380F8743053688367012061
:1047C000EFE78368DB075EBF836843F00103836024
:1047D00070478368DB0742BF836843F0010383604F
:1047E00070470000034AD2F8083443F40003C2F8CB
:1047F0000834704700200140836800F1080243F04C
:104800000803836013681B07FCD47047836843F078
:104810000403836070478068C0F38000704708B568
:104820000246FFF7F3FF1046FFF7F5FF0028FAD125
:1048300008BD0022134610B501FA02F403321E2A05
:1048400043EA0403F8D10022036101FA02F40332BF
:10485000182A43EA0403F8D1C36010BD836823F02B
:10486000010383607047436843F48073436070477B
:10487000836823F4006383607047836843F0020316
:10488000836070471029F0B510D800234FF0010E57
:104890001F469C461D465FFA8EF68E4207D90139A7
:1048A00045EA0155C562C0F830C04763F0BDBEF1AE
:1048B000060F147806D89C4027430EF1010E0132F2
:1048C0000533E8E7073E052E8BBFA3F13C06A3F1B5
:1048D0001E06B440B4408CBF25434CEA040CECE700
:1048E000836843F48073836070470000044B9842F0
:1048F0000CBF40F2192040F21A2000F058BD00BF52
:10490000006400402DE9F3410468884624F0020465
:1049100004600468964644F0010404604FF6FF7496
:104920009DF820C09DF824109DF828209DF83C603B
:104930009DF840700194019C051D013C019414B147
:104940004468E407F7D54468E4076ED50024C461E1
:104950000468B8F1000F4FD044F08004046004688C
:10496000BEF1000F4BD044F040040460002B49D04E
:10497000036843F0200303600368BCF1000F45D0D7
:1049800043F0100303600368002942D043F008039A
:1049900003600368002A3FD043F004030360C36947
:1049A000002F3CD043F00043C361C369002E39D0CF
:1049B00043F08043C3610E9B0D99013BC3F3090390
:1049C0000B430C99C2690B430B990B431343C3610F
:1049D000036823F0010303604FF6FF730193019B0B
:1049E000013B019313B12B68DB07F8D4406800F05A
:1049F000010002B0BDE8F08124F08004AEE724F0AD
:104A00004004B2E7036823F02003B4E723F0100367
:104A1000B8E723F00803BBE723F00403BEE723F065
:104A20000043C1E723F08043C4E70120E1E7000031
:104A3000F0B50125234C9DF81C70D4F80066854024
:104A400046F00106C4F80066D4F81CE6EE432EEAF0
:104A5000050EC4F81CE639B3D4F80C162943C4F883
:104A60000C162AB3D4F804262A4300F1006000F69D
:104A7000C840C4F80426C0000360069A059B436042
:104A8000104BCAB1D3F814262A43C3F8142627B111
:104A9000D3F81C262A43C3F81C26D3F8002622F09C
:104AA0000102C3F80026F0BDD4F80C163140D6E759
:104AB000D4F804263240D8E7D3F814261640C3F8B9
:104AC0001466E4E70060004030B4BDF808409DF88B
:104AD000105043EA0443029341EA02430022049542
:104AE000114630BCFFF7A4BF30B4BDF808409DF8B4
:104AF000105044EA0344049542EA0143029401221F
:104B000030BC0021FFF794BF1FB5009201229DF831
:104B10001840CDE901340B461146FFF789FF04B078
:104B200010BD43690B4343617047436923EA0103A6
:104B3000436170472DE9F041804680689DF818E098
:104B40004501079E2AD4D8F8080004012AD4D8F8D1
:104B50000800C00050D54FF4D075022005EB0804C2
:104B600022B3C90041F0040145F808101BB12368C5
:104B700043F002032360636823F00F0363606268FD
:104B80000EF00F03134363600EF1FF33072B2AD897
:104B9000DFE803F02623201B1815120E4FF4C07512
:104BA0000020DBE74FF4C8750120D7E74905DBE7B4
:104BB0000027F37963F31F67B37963F317477379BA
:104BC00063F30F27337963F307074FF0000CF37893
:104BD00063F31F6CB37863F3174C737863F30F2C94
:104BE000337863F3070CC4F808C0E760236843F028
:104BF00001032360BDE8F0814FF0FF30FAE721B9EF
:104C0000C36843F02003C3607047036943F0200387
:104C10000361704719B9C06800F00300704700696C
:104C2000FAE72DE9F743DDF828900446DDE90E5652
:104C3000FFF7F0FF0F4680464FF4E0714FF4D87055
:104C4000CDE9000102A901EB870151F808CC54F825
:104C50000C1004EB0C0011F0040115BF012189F8C0
:104C6000001089F8001054F80C1016BF54F80C10FE
:104C7000490DC908196054F80C100B9BC1F3400191
:104C8000197041680C9B090A197041680D9B01F06D
:104C90000F01197016B143681B0C33808668C36816
:104CA000C6F307216970C6F30741A970C3F3072152
:104CB0002E702B71C6F307666971C3F30741C3F306
:104CC0000763EE70A971EB711AB139462046FFF700
:104CD00096FF404603B0BDE8F0830000024A9368A7
:104CE00043F001039360704700300240014B1860AD
:104CF0001868704700300240002310B5044A8B4208
:104D000001DB106810BD50F8234001331460F6E752
:104D100000300240014BB3F8E007704700F0FF1F7E
:104D200014230022013903FB01039A60DA601A613F
:104D30005A610F23426889008B40134343607047D8
:104D4000013989008A40426070470139036889004F
:104D50008A401A4214BF01200020704714230139F1
:104D6000594308300B5823F440630B500B5813433E
:104D70000B50704714230139594308300B5823F462
:104D800040730B500B5813430B50704714230139D9
:104D9000594308300B5843F080030B5070471423DD
:104DA0000139594308300B5843F020030B500B587E
:104DB00023F480430B5070471423013959430830C2
:104DC0000B5843F010030B5070471423013959431B
:104DD00008300B5843F001030B507047142301397E
:104DE000594308300B5823F001030B50704714232C
:104DF000013903FB01008368DB0758BF026170477C
:104E00001423013903FB01008368DB0758BF4261AB
:104E100070471423013959430C30085880B2704749
:104E20001423013959430C300A50704738B5064DE8
:104E3000EC68FFF76FFFB0F5007F84BFEB6C1C439D
:104E400004F0350038BD00BF0020024038B50446EC
:104E50000D4600F093F8FFF75DFFB0F5007F164BAD
:104E600014D9164A944211D91A6D42F001021A65FA
:104E7000258000F083F8FFF74DFFB0F5007F14D9CF
:104E80000D4A136D23F00103136538BD1A6942F012
:104E900001021A61258000F071F8FFF73BFFB0F5C1
:104EA000007F02D9054B9C42E9E7034A136923F0CE
:104EB00001031361E9E700BF00200240FFFF07087C
:104EC00010B5044600F05AF8FFF724FFB0F5007F54
:104ED000194B18D9194A944215D91A6D42F0020299
:104EE0001A655C651A6D42F040021A6500F046F8DA
:104EF000FFF710FFB0F5007F18D90F4A136D23F0AC
:104F00000203136510BD1A6942F002021A615C6166
:104F10001A6942F040021A6100F030F8FFF7FAFE19
:104F2000B0F5007F02D9054B9C42E5E7024A1369C0
:104F300023F002031361E5E700200240FFFF0708AA
:104F4000034A136823F0070303431360704700BF4D
:104F500000200240034B044A5A6002F188325A6032
:104F6000704700BF0020024023016745024A1369D1
:104F700043F08003136170470020024008B5FFF73B
:104F800055FFC307FBD408BD38B505460C4689B2AA
:104F9000FFF75CFF210CA81CBDE83840FFF756BFA7
:104FA0002DE9F04300264FF00F089C460368476840
:104FB0004CFA06F414F0010F06F1010E1DD0072E75
:104FC00094BF9946B946B4B24FEA84048ABF203CE4
:104FD000A4B2A4B208FA04F529EA0509A51C02FA4C
:104FE00005F501FA04F42C43072E44EA090405D818
:104FF000234676463C462746DAE73C467646102E60
:10500000F9D103604460BDE8F0830000034A5368AF
:1050100023F0E0630B4303435360704700000140FB
:1050200001617047090401617047C36801EA030226
:1050300021EA030141EA0241016170474AF6AA22CE
:10504000014B1A60704700BF00300040062824D88A
:10505000DFE800F004090E13181D2000104B18683B
:10506000C0F3406070470E4B1868C0F3C0607047D3
:105070000B4B1868C0F340707047094B1868C0F3B9
:1050800040407047064B1868C0F340007047044B1F
:10509000186AF9E7024B586AF6E70020704700BF2C
:1050A00000100240024608B51046FFF7CFFF002867
:1050B000FAD008BD06282AD8DFE800F0040A0F1449
:1050C000191E2400124A136843F08073136070475E
:1050D0000F4A136843F08063F8E70D4A136843F002
:1050E0008053F3E70A4A136843F48033EEE7084A33
:1050F000136843F00103E9E7054A136A43F001032B
:1051000013627047024A536A43F0010353627047C7
:1051100000100240034A536823F003030343536023
:10512000704700BF00100240034A536823F4701315
:1051300043EA80435360704700100240034AD36A39
:1051400023F4706343EA0023D362704700100240E7
:10515000034AD36A23F4704343EA0033D3627047AF
:1051600000100240034A536823F4803343EA0043AB
:105170005360704700100240034A536823F4003321
:1051800043EA40435360704700100240024B186AE4
:1051900000F40040704700BF00100240024A136A4A
:1051A00043F40043136270470010024006283BD8C6
:1051B000DFE800F035353525350415001B4B1A6A3C
:1051C00042F001021A621A6A9007FCD51A6A22F4A8
:1051D00040721A621A6A42F480721A627047134B64
:1051E0005A6A42F001025A625A6A9107FCD51A6A59
:1051F00022F440721A621A6A42F40072EDE70B4B15
:105200001A6842F480321A601A689203FCD51A6A4E
:1052100022F440721A621A6A42F44072DDE7034ACD
:10522000136A23F440731362704700BF00100240FA
:10523000034A536823F4404343EA80335360704782
:1052400000100240034A536823F4605343EAC0232A
:105250005360704700100240034A536823F4E06330
:1052600043EA00235360704700100240034A53682A
:1052700023F0F00343EA001353607047001002402C
:10528000044B5A6818B142F480025A60704722F405
:105290008002FAE700100240034AD36A23F00F03AA
:1052A0000343D362704700BF00100240034AD36A31
:1052B00023F0F00343EA0013D3627047001002406A
:1052C000044BDA6A18B142F48032DA62704722F491
:1052D0008032FAE70010024010B504464378012BF3
:1052E0000CBF03200420FFF7E5FEFFF7DBFEA078EC
:1052F000FFF7BCFFE078FFF7AFFF2079FFF7A2FFD1
:105300006079FFF795FF207BFFF7BAFFA079FFF7E1
:1053100017FE2078FFF708FF6078FFF723FFE0799A
:1053200001282DD9FFF7B8FF207A08B1FFF7C8FF91
:10533000607A08B1FFF7BAFFA07A30B1FFF7FEFE3E
:105340000120FFF7B7FEFFF7ADFEE07A30B1FFF7BF
:10535000FFFE0220FFF7AEFEFFF7A4FE0020FFF7DE
:10536000A9FEFFF79FFE0220FFF7D4FE2269064B3D
:105370001A606269054B1A60A269054B1A6010BD7C
:10538000FFF7FAFED0E700BF880000209000002061
:105390008C0000200122430903F1804303F504330C
:1053A000196800F01F0082400A431A60704701220A
:1053B000430903F1804303F50433196800F01F002B
:1053C000824011431960196821EA02021A6070478D
:1053D000054BD3F804289206FBD5D3F8042842F0F5
:1053E0001002C3F80428704700200040054BD3F892
:1053F000042822F01002C3F80428D3F804289206E7
:10540000FBD570470020004038B5044600254FF416
:105410006770FFF7BFFF40F29B30FFF7BBFF00F064
:10542000ABFA2046124CFFF7C1FEC4F80058C4F88E
:105430000458FFF7B3FEFFF7CBFF4FF6FF73C4F836
:105440000858C4F80C58C4F81858C4F81C58C4F8C4
:105450002038C4F82438FFF7C9FFD4F8043823F003
:105460000803C4F80438D4F804381B07FBD538BD4A
:105470000020004008B5FFF7ABFF064B82B2C0F337
:105480000340C3F80C28C3F80808BDE80840FFF73C
:10549000ADBF00BF00200040034BD3F81808D3F87D
:1054A0001C3843EA004070470020004008B5FFF771
:1054B0008FFF054B020C80B2C3F81828C3F81C08F4
:1054C000BDE80840FFF792BF0020004008B54FF448
:1054D0006770FFF75FFF40F29B30FFF75BFF00F064
:1054E0004BFA084BD3F8042822F00802C3F804282A
:1054F000D3F804281107FBD5D3F804289206FBD56E
:1055000008BD00BF0020004038B505464FF4677065
:105510000C46FFF73FFF40F29B30FFF73BFFFFF7E2
:1055200035FE18B1BDE83840FFF7D0BF2846FFF779
:105530006BFF2046BDE83840FFF79CBF0A4B9842FE
:105540000ED003F57443984206D0A3F578439842F1
:1055500009D140F20E2001E04FF4C670FFF727BFDB
:1055600040F20F20FAE77047003C0040036843F028
:1055700040030360704783689B07FCD5C160704798
:10558000036843F400730360436823F0040343603B
:105590007047036843F480730360704703299FBF1B
:1055A000036823F0030319430160704730B50468B2
:1055B000049D04F441542C43039D2C431C43144389
:1055C00043680C4344F0040443F004034360046064
:1055D000002030BDC3680B43C360704703690B42B2
:1055E00014BF012000207047C94301617047036860
:1055F00043F0800303607047036823F010030360E7
:105600007047036843F0010303607047036823F0A9
:1056100001030360704781627047C16270470629C9
:105620007AD8DFE801F004793379637992008369ED
:1056300023F00303836183698361836923F070032B
:105640008361072A68D8DFE802F03304090D1115D9
:10565000191D836943F0100383617047836943F028
:105660002003F9E7836943F03003F5E7836943F0EA
:105670004003F1E7836943F05003EDE7836943F0AA
:105680006003E9E7836943F07003E5E7836923F486
:105690004073836183698361836923F4E043836199
:1056A000072A39D8DFE802F004060A0E12161A1E7D
:1056B0008369D1E7836943F48053CDE7836943F479
:1056C0000053C9E7836943F44053C5E7836943F452
:1056D0008043C1E7836943F4A043BDE7836943F492
:1056E000C043B9E7836943F4E043B5E7C36923F0F6
:1056F0000303C361C369C361C36923F07003C3615A
:10570000072A09D8DFE802F03304090D1115191D25
:10571000C36943F01003C3617047C36943F02003BA
:10572000F9E7C36943F03003F5E7C36943F0400389
:10573000F1E7C36943F05003EDE7C36943F0600349
:10574000E9E7C36943F07003E5E7C36923F44073F5
:10575000C361C369C361C36923F4E043C361072A1A
:10576000DAD8DFE802F004060A0E12161A1EC36920
:10577000D1E7C36943F48053CDE7C36943F40053D1
:10578000C9E7C36943F44053C5E7C36943F48043A1
:10579000C1E7C36943F4A043BDE7C36943F4C04311
:1057A000B9E7C36943F4E043B5E706290CD8DFE85D
:1057B00001F0040B060B080B0A004263704782637A
:1057C0007047C263704702647047406A7047416225
:1057D00070470000064A074B90421B6804BF064B07
:1057E0001B6803EB5103B3FBF1F18160704700BF0D
:1057F00000380140900000208C000020C368082978
:105800000CBF23F4805343F48053C3607047036993
:1058100023F440530B4303617047C36823F4C06310
:105820000B43C3607047C36823F00C030B43C36092
:105830007047436923F440730B4343617047C36867
:1058400043F40053C360704738B504460D4600F07A
:1058500018F829462046BDE8384000F00AB84369E8
:1058600043F0400343617047436943F08003436161
:105870007047C1F30801416070474068C0F30800F9
:10588000704703681B06FCD5704703680B4214BFC2
:10589000012000207047FEE77047000038B51A4A23
:1058A0001A4B1B498B421AD300211A4A93421BD32D
:1058B0004FF0E022D2F8143D174C43F40073174D1B
:1058C000C2F8143DAC4212D3154C164DAC4212D363
:1058D000FBF70CFF144C154DAC4210D338BD52F8F9
:1058E000040B43F8040BDDE743F8041BDEE754F830
:1058F000043B9847E6E754F8043B9847E6E754F83A
:10590000043B9847E8E700BF586A00080000002001
:1059100094000020C8010020506A0008506A000866
:10592000506A0008586A0008586A0008586A000857
:105930004FF0E023014AC3F80C2DFEE70400FA05FE
:10594000012243099B0003F1604300F01F0003F5AF
:10595000614382401A607047432893BF00F1604062
:10596000044B00F00F0000F564408CBFC15401707F
:10597000704700BF14ED00E0024A136843F48073DF
:10598000136070470070004080F0004002E000BFEC
:1059900081F0004142001FBF5FEA410392EA030F1A
:1059A0007FEA226C7FEA236C6AD04FEA1262D2EB64
:1059B0001363C1BFD218414048404140B8BF5B4269
:1059C000192B88BF704710F0004F40F4000020F002
:1059D0007F4018BF404211F0004F41F4000121F018
:1059E0007F4118BF494292EA030F3FD0A2F1010262
:1059F00041FA03FC10EB0C00C3F1200301FA03F1A0
:105A000000F0004302D5494260EB4000B0F5000FC2
:105A100013D3B0F1807F06D340084FEA310102F181
:105A20000102FE2A51D2B1F1004F40EBC25008BF33
:105A300020F0010040EA03007047490040EB0000FD
:105A4000013A28BFB0F5000FEDD2B0FA80FCACF1FE
:105A5000080CB2EB0C0200FA0CF0AABF00EBC2502B
:105A600052421843BCBFD0401843704792F0000F19
:105A700081F4000106BF80F400000132013BB5E76C
:105A80004FEA41037FEA226C18BF7FEA236C21D0E2
:105A900092EA030F04D092F0000F08BF0846704747
:105AA00090EA010F1CBF0020704712F07F4F04D115
:105AB000400028BF40F00040704712F100723CBF28
:105AC00000F50000704700F0004343F0FE4040F452
:105AD000000070477FEA226216BF08467FEA236310
:105AE0000146420206BF5FEA412390EA010F40F4FB
:105AF000800070474FF0000304E000BF10F0004347
:105B000048BF40425FEA000C08BF704743F096432D
:105B100001464FF000001CE050EA010208BF704748
:105B20004FF000030AE000BF50EA010208BF7047CF
:105B300011F0004302D5404261EB41015FEA010CE4
:105B400002BF84460146002043F0B64308BFA3F1DC
:105B50008053A3F50003BCFA8CF2083AA3EBC253BE
:105B600010DB01FA02FC634400FA02FCC2F12002DD
:105B7000BCF1004F20FA02F243EB020008BF20F014
:105B80000100704702F1200201FA02FCC2F120027A
:105B900050EA4C0021FA02F243EB020008BF20EA6F
:105BA000DC7070474FF0FF0C1CEAD0521EBF1CEA9D
:105BB000D15392EA0C0F93EA0C0F6FD01A4480EA8B
:105BC000010C400218BF5FEA41211ED04FF0006374
:105BD00043EA501043EA5111A0FB01310CF00040A0
:105BE000B1F5000F3EBF490041EAD3715B0040EAC6
:105BF000010062F17F02FD2A1DD8B3F1004F40EB96
:105C0000C25008BF20F00100704790F0000F0CF068
:105C1000004C08BF49024CEA502040EA51207F3A2C
:105C2000C2BFD2F1FF0340EAC250704740F4000007
:105C30004FF00003013A5DDC12F1190FDCBF00F0F8
:105C400000407047C2F10002410021FA02F1C2F1A6
:105C5000200200FA02FC5FEA310040F1000053EA42
:105C60004C0308BF20EADC70704792F0000F00F090
:105C7000004C02BF400010F4000F013AF9D040EA96
:105C80000C0093F0000F01F0004C02BF490011F42A
:105C9000000F013BF9D041EA0C018FE70CEAD15328
:105CA00092EA0C0F18BF93EA0C0F0AD030F0004CA8
:105CB00018BF31F0004CD8D180EA010000F000405C
:105CC000704790F0000F17BF90F0004F084691F01A
:105CD000000F91F0004F14D092EA0C0F01D1420254
:105CE0000FD193EA0C0F03D14B0218BF084608D11D
:105CF00080EA010000F0004040F0FE4040F4000067
:105D0000704740F0FE4040F4400070474FF0FF0CF9
:105D10001CEAD0521EBF1CEAD15392EA0C0F93EA40
:105D20000C0F69D0A2EB030280EA010C49024FEA92
:105D3000402037D04FF0805343EA111143EA10134B
:105D40000CF000408B4238BF5B0042F17D024FF403
:105D5000000C8B4224BF5B1A40EA0C00B3EB510FDE
:105D600024BFA3EB510340EA5C00B3EB910F24BFC7
:105D7000A3EB910340EA9C00B3EBD10F24BFA3EB4C
:105D8000D10340EADC001B0118BF5FEA1C1CE0D114
:105D9000FD2A3FF650AF8B4240EBC25008BF20F0C7
:105DA000010070470CF0004C4CEA50207F32C2BF1B
:105DB000D2F1FF0340EAC250704740F400004FF0B8
:105DC0000003013A37E792F0000F00F0004C02BFE9
:105DD000400010F4000F013AF9D040EA0C0093F0B3
:105DE000000F01F0004C02BF490011F4000F013B0D
:105DF000F9D041EA0C0195E70CEAD15392EA0C0F75
:105E000008D142027FF47DAF93EA0C0F7FF470AFAC
:105E1000084676E793EA0C0F04D14B023FF44CAFEF
:105E200008466EE730F0004C18BF31F0004CCAD184
:105E300030F000427FF45CAF31F000437FF43CAFC0
:105E40005FE700BF4FEA4002B2F1FE4F0FD34FF0C1
:105E50009E03B3EB12620DD94FEA002343F00043D7
:105E600010F0004F23FA02F018BF404270474FF085
:105E70000000704712F1610F01D1420205D110F00C
:105E8000004008BF6FF0004070474FF000007047BF
:105E900042000ED2B2F1FE4F0BD34FF09E03B3EB94
:105EA000126209D44FEA002343F0004323FA02F0C0
:105EB00070474FF00000704712F1610F01D14202AC
:105EC00002D14FF0FF3070474FF00000704700BF25
:105ED00000000000000000005112000851120008EC
:105EE00000000000000000005111000861110008CE
:105EF000000204064469676974616C20492F4F20D1
:105F0000436F6E74726F6C004D315F4C4F434B00AA
:105F1000303D4F46462C20313D4F4E004D325F4CB8
:105F20004F434B006E6F6465696400006765617282
:105F300000000000303D5041524B2C20313D524575
:105F400056455253452C20323D4E45555452414CF6
:105F50002C20333D44524956452C20343D45525265
:105F60004F5200004D4F444500000000303D4F4669
:105F7000462C20313D52554E00000000474541520D
:105F800000000000564F4C544147450056000000A9
:105F90004B4E4F425F4C4F434B0000005041524B21
:105FA0005F4C454400000000524556455253455F42
:105FB0004C4544004E45555452414C5F4C454400BD
:105FC00044524956455F4C45440000004241434B12
:105FD0004C49474854000000416E676C655F4C5364
:105FE00042000000416E676C650000004465677206
:105FF000656500004552525F4269747300000000FD
:10600000435243005669727475616C5F4761696EF3
:1060100000000000526F6C6C696E675F436F756EB5
:10602000746572004C6F636B310000004C6F636BE2
:106030003200000056455253494F4E00343D302E39
:106040003032414B000000004350555F4C4F4144FB
:106050000000000025000000426175642072617438
:1060600065206E6F77200000656E61626C657561FA
:1060700072740000666173747561727400000000D0
:10608000556E6B6E6F776E20636F6D6D616E642001
:1060900073657175656E63650D0A000025303858AB
:1060A0003A253038583A253038580D0A000000009B
:1060B00044656661756C7473206C6F616465640D12
:1060C0000A0000007365740067657400666C6167A0
:1060D0000000000073747265616D00006A736F6E7A
:1060E0000000000063616E007361766500000000CF
:1060F0006C6F6164000000007265736574000000DD
:1061000064656661756C74730000000068656C708E
:106110000000000073657269616C00006572726F47
:1061200072730000286E756C6C2900005B25755D2C
:106130003A202573202D2025730D0A004E6F20452F
:1061400072726F72730D0A0053544F5000000000BA
:1061500044455241544500005741524E0000000052
:10616000303D4E4F4E452C20313D54455354455201
:10617000524F522C00000000544553544552524F88
:106180005200000063616E20000000007278200061
:106190007478200025732025642025642025642040
:1061A00025662025640D0A004E6F20706172616DB6
:1061B000657465722076616C756520676976656EB9
:1061C0000D0A0000536574204F4B0D0A00000000BB
:1061D00056616C7565206F7574206F662072616EF4
:1061E00067650D0A00000000556E6B6E6F776E20BC
:1061F000706172616D657465722025730D0A00000F
:1062000025660D0A00000000556E6B6E6F776E20DC
:10621000706172616D657465723A20272573270D70
:106220000A0000004E6F20666C6167206769766522
:106230006E0D0A0068696464656E0000556E6B6ED1
:106240006F776E20666C61670D0A0000466C6167AF
:10625000206368616E6765204F4B0D0A00000000E7
:10626000747275650000000066616C736500000063
:106270007B00000025630D0A202020222573223A8E
:10628000207B22756E6974223A222573222C2269A2
:1062900064223A25642C2276616C7565223A256663
:1062A0002C0000002263616E6964223A25642C226E
:1062B00063616E6F6666736574223A25642C22638F
:1062C000616E6C656E677468223A25642C22636186
:1062D0006E6761696E223A25662C2263616E616485
:1062E00064223A25642C2269737278223A25732C31
:1062F00000000000226973706172616D223A66616C
:106300006C73657D00000000226973706172616DBD
:10631000223A747275652C226D696E696D756D22F5
:106320003A25662C226D6178696D756D223A256675
:106330002C2264656661756C74223A25662C226392
:10634000617465676F7279223A222573222C226963
:10635000223A25647D0000002C0D0A2020202273A3
:10636000657269616C223A207B22756E6974223AEB
:1063700022222C2276616C7565223A22253038580B
:10638000222C226973706172616D223A66616C73AE
:10639000657D00000D0A7D0D0A00000073000000FD
:1063A000416C6C206D657373616765206465666917
:1063B0006E6974696F6E7320636C65617265640DDC
:1063C0000A0000004D697373696E6720617267751A
:1063D0006D656E740D0A0000556E6B6E6F776E20E2
:1063E000706172616D657465720D0A0025642065C7
:1063F0006E74726965732072656D6F7665640D0ADF
:1064000000000000496E76616C69642043414E20B3
:1064100049642025780D0A00496E76616C69642014
:106420004F66667365742025640D0A00496E7661B7
:106430006C6964206C656E6774682025640D0A00C1
:1064400043616E6E6F74206D617020616E796D6F47
:106450007265206974656D7320746F2043414E200E
:1064600069642025640D0A004D6178206D657373A1
:1064700061676520636F756E74207265616368651E
:10648000640D0A0043414E206D6170207375636393
:1064900065737366756C2C202564206D657373615C
:1064A00067652573206163746976650D0A000000D5
:1064B00043414E4D41502073746F7265640D0A0064
:1064C000506172616D65746572732073746F72656B
:1064D000642C204352433D25780D0A0057696C6CAB
:1064E000206E6F7420777269746520746F20666CFB
:1064F00061736820696E2072756E206D6F646573BC
:106500002C20706C656173652073746F70206265F8
:10651000666F726520736176696E67210D0A0000EF
:10652000506172616D6574657273206C6F61646532
:10653000640D0A00506172616D657465722043528A
:1065400043206572726F720D0A0000005573616717
:10655000653A2073747265616D206E2076616C31CE
:106560002C76616C322E2E2E0D0A000025732566C6
:1065700000000000F45E0008085F0008105F0008DB
:1065800000000000200000000000000001000000EA
:10659000F45E00081C5F0008105F000800000000A7
:1065A000200000000000000002000000F45E00086F
:1065B000245F00085C62000820000000E007000083
:1065C000A000000003000000F45E00082C5F00083B
:1065D000345F0008000000008000000000000000A0
:1065E0000400000000000000645F00086C5F000809
:1065F000000000000000000000000000D0070200C2
:10660000000000007C5F0008345F0008000000000C
:106610000000000000000000D107020000000000A0
:10662000845F00088C5F000800000000000000008C
:1066300000000000D207020000000000905F000888
:10664000105F0008000000000000000000000000D3
:10665000D3070200000000009C5F0008105F0008E4
:10666000000000000000000000000000D40702004D
:1066700000000000A85F0008105F00080000000094
:106680000000000000000000D5070200000000002C
:10669000B45F0008105F0008000000000000000068
:1066A00000000000D607020000000000C05F0008E4
:1066B000105F000800000000000000000000000063
:1066C000D707020000000000CC5F0008105F000840
:1066D000000000000000000000000000D8070200D9
:1066E00000000000D85F00085C62000800000000A5
:1066F0000000000000000000D907020000000000B8
:10670000E45F0008EC5F00080000000000000000EB
:1067100000000000DA07020000000000F45F00083B
:106720005C620008000000000000000000000000A3
:10673000DB07020000000000006000085C62000847
:10674000000000000000000000000000DC07020064
:1067500000000000046000085C6200080000000007
:106760000000000000000000DD0702000000000043
:10677000146000085C6200080000000000000000D7
:1067800000000000DE070200000000002460000896
:106790005C62000800000000000000000000000033
:1067A000DF070200000000002C6000085C620008A7
:1067B000000000000000000000000000E0070200F0
:1067C00000000000346000083C6000080000000089
:1067D0000000000000000000E107020000000000CF
:1067E000486000085460000800000000000000003D
:1067F00000000000E20702000000000000000000AE
:10680000511200080000000000000000F7210008FD
:10681000003801400000024004050000000801406B
:1068200000020000000C0140400000000044004055
:1068300000000240070600000008014004000000BC
:106840000014014020000000004800400000024009
:1068500002030000000C0140000400000010014091
:1068600000040000004C004000040240050300004A
:10687000001001400004000000100140000400006E
:10688000C4600008553B0008C8600008C53B00080C
:10689000CC6000081D3C0008D460000801410008DD
:1068A000DC600008A9220008E4600008193E000826
:1068B000E860000835400008F060000881400008EA
:1068C000F8600008B140000800610008912200084B
:1068D0000C6100085D2200081461000869220008AC
:1068E0001C6100085F22000800000000000000009A
:1068F00000000000000000006D260008486100084C
:1069000050610008586100085C6200080300000044
:106910007861000800000000000000000000000096
:10692000B52B0008FD2B0008292E000800000800E8
:10693000000050001200000000000800000050009D
:106940000900000000000300000020000900000012
:106950000000040000002000050000000000050009
:1069600000004000030000000000FF070000FF07D8
:106970000000000000000000511200085112000841
:10698000511200080000000000000000293100083A
:106990002D310008000000000000000059350008FB
:1069A00025320008000000000000000087470008B2
:1069B000F5420008D1420008FCFFFFFF0000000084
:1069C000ED42000804010004000202000000000083
:1069D0000000000000A24A040051250200A24A045F
:1069E0000701000400020201000000000000000096
:1069F00000A24A040051250200A24A040701000433
:106A000000020204010406000000000000A24A0483
:106A10000051250200A24A0401010000000000000C
:106A2000000000000000000000366E0100366E011C
:106A300000366E01070100040003020000000000A0
:106A40000000000000A24A040051250200A24A04EE
:086A500075240008152A000856
:106A5800DF0000000000000000000000A0000000AF
:106A6800000000000000000000000000000000001E
:106A7800000000000000000000000000000000000E
:106A880000000000000000000000000000000000FE
:106A980000000000000000000000000000000000EE
:106AA80000000000000000000000000000000000DE
:106AB80002000000000000000000000000000000CC
:106AC80000000000000000000000000000000000BE
