:020000040800F2
:1010000000500020815900087D5900087B590008D4
:101010007B5900087B5900087B590008000000003C
:101020000000000000000000000000007D590008E2
:101030007D590008000000007D5900087D59000816
:101040007B5900087B5900087B5900087B59000830
:101050007B5900087B5900087B5900087B59000820
:101060007B5900087B5900087B5900087B59000810
:101070007B5900087B5900087B5900087B59000800
:101080007B5900087B5900087B590008693100082A
:1010900049310008593100087B5900087B59000884
:1010A0007B5900087B5900087B5900087B590008D0
:1010B000991600087B5900087B5900087B590008E5
:1010C0007B5900087B5900087B5900087B590008B0
:1010D0007B5900087B5900087B5900087B590008A0
:1010E0007B5900087B5900087B5900087B59000890
:1010F0007B5900087B5900087B5900087B59000880
:101100007B5900087B5900087B5900087B5900086F
:101110007B5900087B5900087B5900087B5900085F
:101120007B5900087B5900087B5900087B5900084F
:101130007B5900087B5900087B590008973100084B
:1011400077310008873100087B5900087B59000877
:1011500010B504460846114664681A46A04710BDFB
:1011600008B58368984708BD10B5184B998818686A
:1011700004F015F804F01CF8154801F027FC04F001
:101180002BFD0446134B186804F02AFD0146204647
:1011900004F02EFE0146062000F024FD0E4B1868D8
:1011A00000F0CEFC04F01CFD0C4904F021FE0146C9
:1011B000162000F017FD032000F0FEFC014605207C
:1011C00000F002FD03F07EF810BD00BF24010020F6
:1011D0003801002000000020AC0000200000204169
:1011E000B0F5807F01D00020704708B5084603F0B5
:1011F00067F8002008BD000008B500224FF4807198
:10120000024B186801F0F5FF08BD00BFA8000020E0
:10121000FEE7000010B5204B9988186803F0BCFF6A
:101220001E4B9988186803F0B7FF1D4B9988186802
:1012300003F0B2FF1B4B9988186803F0ADFF1A4CFE
:10124000A188206803F0A8FF184B9988186803F05C
:10125000A3FF174B9988186803F09EFF154B9988D8
:10126000186803F099FF144B9988186803F094FFED
:10127000124B9988186803F08DFF114B99881868F4
:1012800003F088FFA188206803F084FF0421052073
:1012900000F09AFC10BD00BF1C01002014010020CA
:1012A0000C01002004010020FC000020F4000020BC
:1012B000EC000020E4000020DC000020D40000202E
:1012C000CC00002008B5454B1B68042B1CD8DFE878
:1012D00003F0031C354E6700414B9988186803F0F2
:1012E00059FF404B9988186803F056FF3E4B998888
:1012F000186803F051FF3D4B9988186803F04CFFC4
:10130000364A13680133136008BD354B9988186855
:1013100003F042FF334B9988186803F03BFF324BD0
:101320009988186803F038FF304B9988186803F0E3
:1013300033FF2A4A136801331360E5E7284B998885
:10134000186803F029FF274B9988186803F024FFD9
:10135000254B9988186803F01DFF244B998818685D
:1013600003F01AFF1D4A136801331360CCE71C4BCE
:101370009988186803F010FF1A4B9988186803F0D1
:101380000BFF194B9988186803F006FF174B9988D3
:10139000186803F0FFFE114A136801331360B3E7C6
:1013A0000F4B9988186803F0F7FE0E4B9988186860
:1013B00003F0F2FE0C4B9988186803F0EDFE0B4B1E
:1013C0009988186803F0E8FE094B9988186803F0BB
:1013D000E1FE024A13680133136095E79400002090
:1013E0001C010020140100200C0100200401002039
:1013F000FC00002008B5052000F0DEFB042818D80A
:10140000DFE800F003182D425700344B9988186824
:1014100003F0C0FE324B9988186803F0BDFE314BD3
:101420009988186803F0B8FE2F4B9988186803F064
:10143000B3FE08BD294B9988186803F0ADFE284B10
:101440009988186803F0A6FE264B9988186803F05F
:10145000A3FE254B9988186803F09EFEE9E71F4B11
:101460009988186803F098FE1D4B9988186803F056
:1014700093FE1C4B9988186803F08CFE1A4B9988D0
:10148000186803F089FED4E7144B9988186803F0B4
:1014900083FE134B9988186803F07EFE114B9988E0
:1014A000186803F079FE104B9988186803F072FEF3
:1014B000BFE70A4B9988186803F071FE084B9988BA
:1014C000186803F06CFE074B9988186803F067FEF4
:1014D000054B9988186803F062FEAAE71C010020FA
:1014E000140100200C0100200401002008B5FFF7C2
:1014F000E9FEFFF77FFF08BD08B5514B1A6840F6BB
:1015000028239A4206DC4E4B1A6840F627239A425B
:101510004BDD08BD002000F04FFB50B10128F2D197
:10152000484B1B68042BEED8DFE803F01221252975
:101530002D00454B9988186803F02EFE434B99887F
:10154000186803F029FE0021072000F03DFBDAE7D0
:101550003D4B9988186803F01DFE3C4B998818682C
:1015600003F01AFE374A136801331360CBE70133E7
:10157000344A1360C7E70133324A1360C3E70133CB
:10158000304A1360BFE7304B9988186803F004FEB7
:101590002E4B9988186803F0FFFD2A4B00221A6031
:1015A0000121072000F010FBADE7002000F004FB54
:1015B00080B10128ADD1244B9988186803F0ECFD67
:1015C000224B9988186803F0E7FD0121072000F0FD
:1015D000FBFA9EE71B4B1B68042B9AD8DFE803F04D
:1015E0000312161A1E00184B9988186803F0D4FDD0
:1015F000164B9988186803F0CDFD124A1368013321
:10160000136086E701330F4A136082E701330D4A06
:1016100013607EE701330B4A13607AE70A4B99881F
:10162000186803F0B9FD094B9988186803F0B4FDF8
:101630000021044B1960072000F0C6FA69E700BFDB
:10164000A000002098000020F4000020EC00002002
:1016500038B503F0DBFF01F0AFFA0A4801F0B6F944
:10166000094D2860094801F0B1F9094C206029684A
:10167000132000F0A9FA2168142000F0A5FAFFF762
:101680003BFF38BD34010020A000002030010020C5
:101690009C0000207047000008B5024B186800F05D
:1016A00017FA08BDAC00002080B5ADF5016D00F063
:1016B0001BF900F0A8F96C4C022221466B4801F09E
:1016C000C9F9002221466A4801F0C4F901222146E5
:1016D000684801F0BFF907234FF400526649674894
:1016E00000F097FE664D072308222946654800F062
:1016F00090FE072310222946634800F08AFE072344
:1017000020222946614800F084FE07234022294612
:101710005F4800F07EFE0723012229465D4800F065
:1017200078FE07234FF4806221465B4800F071FE8B
:1017300007234FF400622146584800F06AFE072351
:101740004FF480722146564800F063FE07234FF4A1
:1017500000722146534800F05CFE07230822214610
:10176000514800F056FE0723102221464F4800F052
:1017700050FE4FF480414FF0007003F001FD01F086
:101780009FF800F0EFF800F035F901F0E7F90DF5FA
:10179000FD654FF08041284600F040F9444B1D6044
:1017A0000DF28C54012302224249204601F012FC22
:1017B000414BCDF88035414BCDF88035404BCDF8CD
:1017C0008435404BCDF888353F4B1C600DF5B0613A
:1017D000204601F0FFFC01222146B0A802F0D8F912
:1017E000B0AA21468EA802F04FFE384EB0AB33604F
:1017F000FFF702FD02218EA802F068FE344FB0AB65
:101800003B60204602F056FD012300930023314A3D
:10181000314903A800F082FA3B6833600A222F495D
:10182000284600F01FF964222D49284600F01AF9D5
:10183000C8222C49284600F015F90421152000F093
:10184000C3F9FFF7E7FC04E00DF10B018FA802F0EC
:10185000B9FA00238DF80B3003A800F041FC939BEC
:10186000002BF6D1F0E700BF00080140380100204E
:10187000340100203001002000100140240100202C
:10188000000C01401C010020140100200C0100206C
:1018900004010020FC000020F4000020EC000020E7
:1018A000E4000020DC000020D4000020CC00002058
:1018B000AC000020006400407C5F00088C5F0008E2
:1018C000E1110008F9110008A8000020980100208B
:1018D000A40000204C690008004800405116000890
:1018E00069110008ED14000808B51C4803F0AEFDAE
:1018F0004FF0E0231A4AC3F80C2D40F2023003F0F7
:1019000003FE40F2033003F0FFFD4FF4417003F09B
:10191000FBFD40F2053003F0F7FD40F2923003F09A
:10192000F3FD4FF4607003F0EFFD4FF4207003F00F
:10193000EBFD40F2093003F0E7FD40F2862003F0B2
:10194000E3FD4FF4407003F0DFFD40F2993003F007
:10195000DBFD4FF4437003F0D7FD08BD086B0008B2
:101960000003FA0530B597B003F08EFA00F5FF35A5
:1019700005F2FD15AD021422002101A800F043FD7F
:101980001A4B01934FF40053ADF8083001238DF842
:101990000A308DF80B30164A03920422ADF810205D
:1019A0008DF8123000238DF8133003F051FA142112
:1019B00001A803F05BFA15902B6D834201D117B09B
:1019C00030BD03F081FB284603F034FB002407E020
:1019D00001AB53F8241005EB840003F08FFB0134B6
:1019E000142CF5D903F07CFBE9E700BF001001409F
:1019F000000C014008B51C2004F014F8E0211C2064
:101A000004F01CF808BD08B54FF41C71032003F066
:101A100035FE002003F004FE08BD000038B5054681
:101A20000C460162084603F055FE204603F057FEBF
:101A30000A4B1968C1F31A11094BA3FB0131C909FB
:101A40000139204603F05AFE4FF6FF71204603F09D
:101A500057FE00236B62284638BD00BF900000206F
:101A6000C55A7C0AF8B5436A032B00DDF8BD04466D
:101A70000E461546006A03F03CFE636A134F0122CE
:101A8000F95C206A03F03EFE636A0022F95C206A7A
:101A900003F0FEFE636A44F8236003F1080105EBDE
:101AA000850202EB8202920024F811200221994063
:101AB000206A03F002FE0021206A03F0FBFE206A88
:101AC00003F012FE636A01336362CFE7945F00089C
:101AD000F8B50546002424E00226A6403146286ACF
:101AE00003F0EFFD10B3286A03F0E2FE87B22B6A21
:101AF00003EB84035A6B04F1080135F811100A4412
:101B00005A6355F824309847286A03F0D1FEC01B69
:101B100004F10C0325F813003146286A03F0D7FDC1
:101B20000134032C0BDC6B6AA342D5DC6B6AA34245
:101B3000F6DC0221A140286A03F0C9FDF0E7F8BDF8
:101B40000146002210460FE002F10C0331F8133079
:101B50004FF47A7C0CFB03F302F1080C31F81CC043
:101B600093FBFCF3184401324B6A9342ECDC704760
:101B700008B5C0EBC0020B4B03EB8203DB688B4262
:101B80000EDC084B03EB82031B698B4201DAFF205A
:101B900007E0054B43F82010FFF77CFD002000E034
:101BA000FF2008BD4066000804000020014B53F8E8
:101BB0002000704704000020024B53F82000401121
:101BC000704700BF040000204901024B43F8201079
:101BD000704700BF04000020014B43F820107047FD
:101BE0000400002010B5044608464FF0844104F07C
:101BF0004BF804F099F9024B43F8240010BD00BFE4
:101C00000400002070B506460024074D162C09DCA0
:101C10003146686800F058FB10B101341C35F5E717
:101C2000E0B270BD1820FCE7406600080023064AB9
:101C3000162B07DC118B814202D001331C32F7E7EF
:101C4000D8B270471820704740660008C0EBC0004B
:101C5000014B03EB800070474066000838B5002454
:101C6000074D01E001341C35162C07DC2B8B002BB3
:101C7000F8D06969E0B2FFF7AFFFF3E738BD00BF06
:101C800040660008014B1954704700BFB0000020A7
:101C9000024A135C0B431354704700BFB00000208E
:101CA000024A135C23EA010313547047B00000207A
:101CB000014B185C704700BFB0000020C0EBC000B3
:101CC000024B03EB8003987E704700BF406600081C
:101CD00008B52021806803F04AFE08BD08B5806879
:101CE00003F03DFE08BD10B504464368597A5868B4
:101CF00003F02EF9636804F12A02597A586803F058
:101D000039F963688022597A586803F043F96368A7
:101D1000597A586803F013F910BD000070B50446F5
:101D20000D465149016051490160856003730261AC
:101D3000012101754175817500228261C26180F8BF
:101D40002020426280F828109DF8101080F8291099
:101D500047494160032A07D861680868A84203D050
:101D60001C3161600132F5E7424A1460002B74D0E7
:101D700062685069002B73D063681B8B02220321B9
:101D800003F0C8F94FF4E131284603F095FD08212E
:101D9000284603F0A5FD4FF40051284603F0A9FDA5
:101DA0000C21284603F0B1FD0021284603F0A7FDD1
:101DB0000021284603F0AFFD284603F0C2FD284667
:101DC00003F0C4FD6368197A586803F063F8636828
:101DD000197A586803F0AAF863682E1D3246197AFA
:101DE000586803F0BEF863680022197A586803F057
:101DF0007BF863680022197A586803F069F8636811
:101E0000197A586803F07CF86368597A586803F0C7
:101E100041F863683246597A586803F0A2F863685B
:101E20000022597A586803F05FF863680022597AF3
:101E3000586803F04DF86368597A586803F060F801
:101E40006368597A586803F07AF82046FFF74BFF29
:101E5000284603F066FD204670BD6268D06889E7B9
:101E600063681B8A8AE700BFCC680008D86800084E
:101E7000DC680008C800002038B50D460469437DC1
:101E80003BB1216839B1284600F01EFA18B1083478
:101E9000F7E7002401E023680BB1204638BD1C465B
:101EA000FBE738B504460D4601E0002373B16368D3
:101EB0000222197A586803F002F80028F5D194F844
:101EC00028300BB10023F1E70123EFE76368197AAB
:101ED000586803F03DF86368AAB2197A586803F0AD
:101EE00059F8636894F82020D201A83222440232C3
:101EF000197A586803F03EF863680222197A586824
:101F000002F0D8FF6368197A586803F018F894F85B
:101F10002030B3FA83F35B0984F82030002384F87F
:101F2000283038BD10B50446837D73B10A2910D01E
:101F3000436A7F2B0DD090F8202000EBC2121A4488
:101F400082F8AA100133436210BD806803F0EEFCF2
:101F5000FAE794F82030626A04EBC313134483F861
:101F6000AA10511C2046FFF79CFF00236362EBE799
:101F700010B50C46802A28BF802211464FF0000C75
:101F80000AE090F8203014F80CE000EBC31363442F
:101F900083F8AAE00CF1010C8C45F2D3FFF781FF26
:101FA00010BD38B505460C46084600F0A4F90246B7
:101FB00021462846FFF7DCFF38BD000010B5044677
:101FC000084600F0EBF900F0D0F9237D83420DD0F4
:101FD00000236375237B0BB3626850690BB363689E
:101FE0001B8B0122002103F095F810BD01236375BE
:101FF000237B6BB1626850696BB163681B8B0222F3
:10200000032103F087F808492046FFF7CAFFECE7F1
:102010006268D068F0E763681B8AF0E76268D0689E
:10202000DCE763681B8ADCE72463000830B585B011
:102030000446084600F0B2F90378302B11D0322B59
:102040000DD04FF46125637D73B92946A06803F074
:1020500033FC0021A06803F04CFC05B030BD0D4DF1
:10206000F1E74FF4E135EEE70A22294601A800F036
:1020700051F909492046FFF794FF08492046FFF728
:1020800090FF01A92046FFF78CFF05492046FFF786
:1020900088FFDAE710552200FC60000804610008A0
:1020A000E865000810B50446084600F077F90378A3
:1020B00023B1303B18BF012384F8293094F829302C
:1020C00023B105492046FFF76CFF10BD03492046A8
:1020D000FFF767FFF9E700BF1461000820610008FF
:1020E000F8B504464368597A586802F04CFF064632
:1020F000C0F1800558B92046FFF7F5FD07E05A1CEE
:10210000E261234493F82A10A06803F00FFC94F8CE
:10211000293013B1E369AB42F1DB0821A06803F079
:1021200026FCE0B9002D28DDC6F17F06264496F88E
:102130002A300A2B17D00D2B15D094F82A30212BDA
:102140001BD1A369CBB12046FFF7CDFD0023E3618E
:10215000A3695B6804F5D571204698470DE0A06837
:1021600003F0FDFBDEE76368597A586802F0F0FE81
:10217000012D03DC2046FFF7B6FDF8BD63190022F0
:1021800083F82A20E26104F12A072021384600F072
:10219000B9F8064603781BBB0A21384600F0B2F8AE
:1021A0000646002384F8AA313378FBB1002333704C
:1021B000A3612649384600F087F80646E0B904F5E1
:1021C000D5712046FFF7FAFEA369A3B3A06803F018
:1021D000CAFBA3695B6804F5D57120469847C9E737
:1021E000411C04F5D57000F07DF8DDE70D2138467F
:1021F00000F088F80646D9E71549384600F064F83B
:10220000064628B904F5D5712046FFF70FFFDBE736
:102210001049384600F058F8064628B904F5D5713B
:102220002046FFF73FFFCFE739462046FFF724FE61
:10223000A0612E46C8E7012E9CDD637D002B99D05E
:1022400005492046FFF7ADFE94E700BF2C6100086A
:1022500038610008446100084C61000808B5044B6F
:102260001B681A681268C1B21846904708BD00BFC3
:10227000C8000020704708B500F0BAFC08BD000097
:1022800000B583B00649D1F8F027D1F8EC37D1F882
:10229000E8170091034900F0F3FA03B05DF804FB7E
:1022A00000F0FF1F6861000810B50446FFF7D6FC78
:1022B0000249204600F0E4FA10BD00BF7C6100082E
:1022C00008B501F07FFD08BD431E013913F8010F69
:1022D00011F8012F10B10AB19042F7D0801A18BF3F
:1022E00001207047013911F8013F0BB903707047A5
:1022F00000F8013BF7E7034600201A5C02B970477B
:102300000130FAE70346184613F8012B0AB18A4256
:10231000F9D17047002970B518DA2D23012400F88F
:10232000013B4942034691FBF2F602FB16113031A4
:102330001970311E1D4603F10103F4DC00221A70EE
:10234000024695420AD8241A181904E004D1302311
:1023500041700370012070BD0024E3E711782E78EE
:1023600002F8016B05F80119EBE730B503782D2B66
:1023700011D14FF0FF34013000210A25431E01E046
:1023800005FB012113F8012F303AD0B20928F7D903
:1023900004FB01F030BD0124EEE7000010B5134C42
:1023A000014610F8012BA2F10A03DBB2162B19D853
:1023B00024FA03F3DA07F3D40846FFF79CFF013849
:1023C0000844814204460AD2237801380A3BDBB232
:1023D000162B04D8054A22FA03F3DB07F1D40023B5
:1023E000637001E0002AE7D1084610BD09004000F3
:1023F000002310B5934200D110BD51F8234040F89E
:1024000023400133F6E7013A00D2704740F8041B3D
:10241000F9E72DE9F0410D4616461F46016082801E
:102420000024847103F1FF3CBCF1080F06D8DFE8FB
:102430000CF009320F15191F23282D000024022744
:10244000A0462BE00123837100240227A04625E04B
:102450000124847102274FF000081FE000240127A7
:10246000A0461BE00123837100241F46A04615E00F
:1024700000242746A04611E0002427464FF0030819
:102480000CE0012427464FF0030807E00024022750
:102490004FF0030802E001244FF000083CB9334636
:1024A0003A464146284602F035FEBDE8F081314605
:1024B000284602F06FFEF2E7024B4FF400421A800A
:1024C000704700BF2C01002008B5FFF7F5FF08BDDD
:1024D00070B50C1EACBF01234FF0FF335C430133DA
:1024E000064608BF2D234FF0640208BF06F8013BE3
:1024F000611104F01F040546544330460A22FFF7D9
:1025000009FF2E226411092C3254D8BF302206EB69
:102510000003D8BF5A7021464FF00A02CCBF581CA6
:10252000981CFFF7F7FE284670BDF0B503782D2BF9
:1025300017D14FF0FF36013000244FF00A0C02E0B3
:1025400018460CFB0454034613F8012BA2F1300586
:10255000EFB2092FF4D9AAB98C40144406FB04F059
:10256000F0BD0126E8E78B4003EB650393FBF5F331
:102570000CFB05F51A4410F8013F303BDFB2092F80
:10258000F1D9E9E70A250022AC46F4E72DE9F0414C
:1025900005460F46161E02DD0A46002108E04FF0F0
:1025A000200813F0010414D0002422E0013101328C
:1025B00010780028FAD1B14206DA761A13F0020F29
:1025C00004D14FF02008ECE70026F7E74FF0300881
:1025D000E7E7002E0DDD2B681B684146284698472B
:1025E0000134013EF5E72B681B6828469847013403
:1025F000013739780029F6D106E02B681B6841467F
:10260000284698470134013E002EF6DC2046BDE8FE
:10261000F0812DE9F04184B00746DDF828800C9860
:1026200059B11E460C4613B10A2A13D000260023C6
:102630008DF80D300DF10D0518E030238DF80030C8
:1026400000238DF801300B9B424669463846FFF760
:102650009DFF32E0002901DB0026E8E74C4201261D
:10266000E5E7303105F8011DB4FBF2F44CB1B4FBE1
:10267000F2F102FB11410929F3DDA0F13A031944FB
:10268000EFE79EB1B8F1000F0BD00B9B13F0020FD8
:1026900007D03B681B682D213846984708F1FF3862
:1026A00004E02D2305F8013C013D00260B9B42462A
:1026B00029463846FFF76AFF304404B0BDE8F08190
:1026C00008B50846FFF7CAFD08BD70B584B00446DA
:1026D00015461E466846FFF7FBFE33462A46694606
:1026E0002046FFF753FF04B070BD000070B588B0FE
:1026F00006460C460592002599E0A21C0123A3E0A2
:10270000013443F002032278302AF9D000222178E4
:1027100039291CD9782900F289805829C0F086808F
:102720005839202900F28280DFE801F04380808060
:10273000808080808080806A258061808080808029
:10274000808080808080801A805280803400302990
:102750006CD302EB8202303901EB42020134D6E73E
:102760000599081D0590096801B93A493046FFF7F7
:102770000DFF05445AE00599081D05900968612080
:1027800002900193009201230A223046FFF741FF95
:1027900005444BE00599081D0590096861200290E9
:1027A00001930092002310223046FFF732FF0544C8
:1027B0003CE00599081D05900968412002900193AD
:1027C0000092002310223046FFF723FF05442DE03E
:1027D0000599081D059009686120029001930092F7
:1027E00000230A223046FFF714FF05441EE0059936
:1027F000081D059009683046FFF767FF054415E09E
:102800000599081D059009688DF81C1000218DF8A8
:102810001D1007A93046FFF7B9FE054406E014462F
:1028200033681B6821783046984701350134237896
:1028300063B1252BF4D1621C63783BB1252BEED01C
:102840002D2B3FF45AAF002314465CE7284608B00E
:1028500070BD00BFF06100080FB400B583B004AADA
:1028600052F8041B054B0193009201A8FFF73EFFAD
:1028700003B05DF804EB04B0704700BFC469000802
:102880000EB400B582B003AA52F8041B0192FFF700
:102890002DFF02B05DF804EB03B07047044B054A0E
:1028A0001360991C044A11600433044A1360704792
:1028B0003C010020380100203401002030010020BC
:1028C00030B583B0324B93E8030002AB03E9030059
:1028D0000025002D2CDD2F4C2F4A0121204602F02F
:1028E00040FB2E4A0121204602F044FB4FF4807247
:1028F0000121204602F0F8FA4FF4806201212046BF
:1029000002F0E6FA24220121204602F043FB0121D5
:10291000204602F0F5FA0121204602F0FAFA0121E0
:10292000204602F00CFB1E4802F08AF803B030BDCE
:1029300002AB03EB850353F8084C204602F03EF847
:10294000204602F040F8204602F047F8204602F008
:102950003FF80121204602F01CF8204601F0E0FF7C
:10296000204601F0F9FF204602F009F805EB450387
:102970000C4A1A440321204602F034F8204602F0A3
:1029800069F84FF46021204601F0DCFF0135A0E733
:10299000C8690008000002404C2401403C010020AE
:1029A0000024014084010020884205DD914209DCB9
:1029B00090420ADD10467047904206DC914203DDEA
:1029C00010467047084670470846704730B583B0D8
:1029D000046800250BE0A289E1882088FFF7E4FF66
:1029E00002AB03EB450323F8080C01351234032D29
:1029F000F1DDBDF80000BDF802301844BDF8043028
:102A00001844BDF806301844C0F38F0003B030BD41
:102A100008B50F4B98420BD003F58063984211D054
:102A2000A3F50063984205D1072903DCC8B204E08E
:102A3000012903DD01F07CFF102008BDC9B2083177
:102A4000C8B2FAE70529F5DCC9B20A31C8B2F4E721
:102A5000000C014070B504460D4616460123934014
:102A60009BB200221146284602F054FB2468054B15
:102A7000E41A641031462846FFF7CAFFA4B2024B9D
:102A8000185570BD3C0100208401002008B5FFF7F7
:102A900005FF08BD08B502F0F7F900F5FF3000F2B8
:102AA000FF10800208BD2DE9F043ADF2044DFFF7A1
:102AB000F1FF0646024600234FF0FF3403E052F8D0
:102AC000041B0C400133FF2BF9DD02F0C1F94FF478
:102AD00080724FF0FF316846FFF795FC002500E05B
:102AE0000135162D1AD8EFB23846FFF7E7F800285F
:102AF000F6D13846FFF7AAF880463846FFF7D8F8EF
:102B00000DEBC50989F80300B8F818302DF83530F9
:102B10003846FFF74BF8C9F80400E1E7FE216846A4
:102B200002F0A4F9FE9002F0CFFAB4F1FF3F01D118
:102B300000240AE0304602F07DFAF9E75DF824103F
:102B400006EB840002F0DAFA0134FF2CF6D902F029
:102B5000C7FAFE980DF2044DBDE8F083F8B5FFF713
:102B600099FF064602F074F9FE21304602F07EF924
:102B7000D6F8F833834201D1002503E04FF0FF304F
:102B800019E001357E2D15D836F83500FFF74EF8DF
:102B900004461828F5D0FFF791F80028F1D106EB8C
:102BA000C50779682046FFF717F8F9782046FFF740
:102BB00069F8E6E70020F8BD014B1860704700BFD8
:102BC0008801002008B5074B03EBC10292F804C04E
:102BD00053F83130044A52F82C2001460348FFF7DD
:102BE0003BFE08BDDC690008D0690008F8610008F8
:102BF00010B50C4B5B680BB1002409E00A48FFF7E5
:102C00002BFE10BD074B13F83410FFF7DBFF013428
:102C1000032CF6D8034B03EBC40358680028F1D10A
:102C2000EFE700BF600000200862000810B58AB01E
:102C30000F4B01EB410203EB820453F8222064683E
:102C400001EB410103EB81039B68D0F8580200219E
:102C500008910791069305940492039102910191C2
:102C600000910B46012201F007FF0AB010BD00BF22
:102C7000006A0008F0B583B004460D4616461F46AC
:102C80000121D0F8580202F00AF8019600970023BB
:102C9000B5F5006F34BF002201222946D4F858024E
:102CA00002F002F8002805DBD4F85432002B17DCC0
:102CB00003B0F0BDD4F85432132BF5DC03F111024C
:102CC00004EB021255609760316804EB0312C2F8FE
:102CD0001C117168C2F820110133C4F85432E3E7C3
:102CE0000121D4F8580201F0D6FFE1E7012801DD07
:102CF00000207047014B53F8200070478C010020E2
:102D000030B58BB004460D460AE09DF8213006AA86
:102D10000999204600F0A6FA02F078FCC4F8F80001
:102D20000023059306AB04930DF12103039308AB35
:102D300002930DF1220301930DF12303009309ABDC
:102D40000122E9B2D4F8580202F025F80028DCD1BB
:102D50000BB030BD30B583B0044600F58A7504E091
:102D6000D4F85432013BC4F85432D4F85432002B16
:102D700017DD03F18053013B1A0105EB0313A9583A
:102D800003F1080201921B7900930023B1F5006F53
:102D900034BF00220122D4F8580201F085FF002838
:102DA000DEDAD4F854320BB103B030BD0121D4F8CF
:102DB000580201F074FFF7E7F0B585B00E461546EE
:102DC0001C461068B3F800C05A889B88E7885B01EE
:102DD0009BB2520192B24FEA4C1C1FFA8CF14FF099
:102DE000010CCDF808C000EA0C0CCDF804C07F013E
:102DF000BFB2009701F032FF002333602A6801322E
:102E00002A60E380A3806380238005B0F0BDF0B525
:102E100085B00F4615461C461068B3F800C05A88A6
:102E20009B88E6885B019BB2520192B24FEA4C1C30
:102E30001FFA8CF14FF0010CCDF808C000EA0C0C21
:102E4000CDF804C07601B6B2009601F0F7FE00237B
:102E50003B602A6801322A60A380238040F2FF731E
:102E6000E380638005B0F0BD70B582B00E461546B4
:102E70001C4610681968C9005A68D20001230093E3
:102E8000034042F0040241F0040101F0F7FE002388
:102E900033602A6801322A606360236002B070BD2B
:102EA00030B58BB00546002308930993474906AA1D
:102EB00003C982E8030004930593039302930193EB
:102EC000D5F85822424B9A420AD0A3F58063D3F832
:102ED000003AC3F3052300930024C2F81C4221E00A
:102EE0000023F8E704F11E0205EB8202516871B37A
:102EF000029A501C02900DF1280C0CEB420C2CF89D
:102F0000103C023202920AAB03EB400020F8101C86
:102F1000039B042B24D0029B022B28D0019B022B65
:102F20002CD00134D5F8F430A3422EDD05EB840318
:102F30005B68B3F5006FD5D3019A23F060430AA90B
:102F400001EB820141F8183C01320192E0E7039A5B
:102F50000AA901EB420121F8083C01320392D7E7AC
:102F600008AB6A4603A92846FFF726FFD3E706AB5E
:102F70006A4602A92846FFF74AFFCFE704AB6A4634
:102F800001A92846FFF770FFCBE7039B002B07DC66
:102F9000029B002B0BDC019B002B0FDC0BB030BD28
:102FA00008AB6A4603A92846FFF706FFF0E706AB21
:102FB0006A4601A92846FFF72AFFECE704AB6A46F8
:102FC00001A92846FFF750FFE8E700BF3C6A000868
:102FD00000640040F8B504460D4616461F4600F052
:102FE000E3F8544B23600023C4F85432C4F8585219
:102FF000514B9D422FD003F580639D4258D1002F45
:1030000000F082804D4D202302220021284602F04C
:1030100081F82021284602F0BDF840230222032136
:10302000284602F077F8402002F0FCFCF021402016
:1030300002F004FD412002F0F5FCF021412002F0F5
:10304000FDFC3F2002F0EEFCF0213F2002F0F6FCF8
:103050003B4B5C602CE0002F41D0384D4FF4807327
:1030600002220021284602F055F84FF480712846CC
:1030700002F090F84FF4007302220321284602F078
:1030800049F8142002F0CEFCF021142002F0D6FC06
:10309000152002F0C7FCF021152002F0CFFC132010
:1030A00002F0C0FCF021132002F0C8FC244B1C608D
:1030B000D4F8580201F0D4FC31462046FFF7B6FDA3
:1030C0002046FFF7EDFE0221D4F8580201F0E3FD9F
:1030D0001021D4F8580201F0DEFD2046F8BD194D4C
:1030E0004FF4006302220021284602F013F84FF447
:1030F0000061284602F04EF84FF48053022203216B
:10310000284602F007F8BCE70C4D4FF4805302222A
:103110000021284601F0FEFF4FF48051284602F0BE
:1031200039F84FF4005302220321284601F0F2FF40
:1031300079E700BFF469000800640040000C01401A
:103140008C0100200008014008B50020FFF7CEFDEB
:103150000021FFF7D5FD08BD08B50020FFF7C6FD2B
:103160000121FFF7CDFD08BD08B50020FFF7BEFD2A
:10317000FFF7F0FD08BD08B50120FFF7B7FD0021FE
:10318000FFF7BEFD08BD08B50120FFF7AFFD012127
:10319000FFF7B6FD08BD08B50120FFF7A7FDFFF753
:1031A000D9FD08BD70477047084B03600023C0F885
:1031B000F430C0F8FC3005E003F14002044940F867
:1031C00022100133042BF7DD704700BF4C6A000862
:1031D00080000020D0F8FC30042B01DD0020704777
:1031E00003F1400240F822100133C0F8FC30012006
:1031F000704738B5D0F8F4501D2D0BDD002038BDD8
:1032000001339D4208DD00EB830464688C42F7D1F2
:103210000020F4E70023F4E700EB8503596005F193
:103220001E0300EB83035A600135C0F8F4500368B5
:103230009B6898470120E2E738B505460024C0F8AE
:10324000F44003689B68984707E004F1400355F891
:10325000230003685B6898470134D5F8FC30A3422B
:10326000F3DC38BD2DE9F8430546894690461F46F4
:1032700000240AE004F1400355F8230003681E68A7
:103280003B4642464946B0470134D5F8FC00A042CF
:10329000F0DCBDE8F88370B5054600F13006344631
:1032A0000BE034F8043BC3F3C02123F40063002295
:1032B00003EB41716868FFF79CFFA31B242B02DC22
:1032C000A378322BEDD170BD10B501B302F10C0E15
:1032D00000EB8E0E0A2A45D89EF80210322943D000
:1032E00001EB410C4FEA8C0C0CF1580C8444002487
:1032F0009CF80910FF2933D073B1013BDBB201EB1D
:10330000410189005831644600EB010CF0E702F1FD
:10331000020E00EB8E0EDDE72CB16172FF238CF8FC
:10332000093001201FE0322904D08EF80210F5E7A1
:103330000133DBB29918092904DC0EEB830189788B
:103340003229F5D1013BDBB20EEB830291788EF886
:1033500002103EF82330AEF8003032239370DDE7E0
:10336000002000E0002010BD0020FCE7F8B50C466E
:1033700000F1080600231A461F4619463FBB354692
:103380000022A5EB060CBCF1240F27DC95F802C047
:10339000BCF1320F22D00CEB4C0E4FEA8E0E0EF128
:1033A000580E8644002309E00133DBB20CEB4C0CD1
:1033B0004FEA8C0C0CF1580C00EB0C0E9EF809C077
:1033C000BCF1FF0F06D0BEF804E0A645ECD157B122
:1033D0000020F8BD0132D2B20435D2E700F1300648
:1033E0000F460121CAE7FFF76FFFF2E7F0B5089F2C
:1033F00000243C7000F10806002C42D13546AC1B7D
:10340000242C38DCAC78322C35D004EB440E4FEA57
:103410008E0E0EF1580E864407E00CEB4C0C4FEA72
:103420008C0C0CF1580C00EB0C0E9EF809C0BCF192
:10343000FF0F1ED0BEF804408C42EED12988C1F3A4
:10344000C020116021F40061116041EA40711160F7
:103450009EF807201A709EF90820059B1A70DEF866
:103460000020069B1A609EF90620079B1A70012017
:10347000F0BD0435C3E73C7801253D7000F130060E
:10348000BAE70020F4E710B48446019CD9B102F1F8
:103490000C0100EB81010A2A27D88A78322A26D02B
:1034A00002EB4202920058320CEB0200427AFF2AF1
:1034B00018D063B1013BDBB202EB420292005832FA
:1034C0000CEB0200F2E7911C00EB8101E3E70B88B3
:1034D000C3F3C022236023F40063236043EA4273F2
:1034E000236000E0002010BC70470020FBE70020B4
:1034F000F9E72DE9F04385B00646884600F1080952
:1035000000273B462CE02B88C3F3C02023F4006146
:10351000029794F9063001932368009394F90830D8
:10352000E27941EA40712079C047647A04EB4404AF
:10353000A40058343444637AFF2BE4D10435A5EB5E
:103540000903242B08DCAB78322B05D003EB4304B2
:10355000A40058343444EEE706F130093B46012715
:103560000BB94D46EBE705B0BDE8F083002306E05C
:1035700001EB83024FF0320C82F802C00133092BB9
:10358000F6DD002307E003EB430200EB8202FF219C
:1035900082F861100133322BF5DD704710B5044617
:1035A00000F10801FFF7E2FF04F130012046FFF7C8
:1035B000DDFF6068FFF740FE10BD2DE9F041884651
:1035C00015461F46002426460AE0286801F048FCFC
:1035D000064655F8041B08EB840001F08FFD01340A
:1035E000BC42F2DB3046BDE8F081084600E0043022
:1035F000431A242B0ADC8378322B05D003885340EE
:1036000033F40063F3D102E00020704700207047DC
:103610004B4B1B7803B170472DE9F0410546164628
:103620000A4600F13001FFF7E0FF002800F0858036
:10363000837803EB4304A40058342C4442E01F2B4E
:1036400053D83068C0F30722120442EA0062C0F384
:10365000074742EA072242EA1062C3F11F03DBB2C6
:1036600001208840013822FA03F3184002F0B4FA2E
:10367000074694F9060002F0B3FA394602F0FCF965
:103680000146206802F000FB07462079FEF716FB92
:1036900020B12079FEF712FB012849D1B4F804804B
:1036A0004FF08441384602F0EFFA02F03DFC01464B
:1036B0005FFA88F0FEF75CFA647A04EB4404A40035
:1036C00058342C44637AFF2B37D0E37994F90820DF
:1036D00082EAE271A1EBE271C9B2002AAFDB1F2BD3
:1036E00018D97268203BDBB2BAE71A441F2A03DDFF
:1036F0007068203BDBB2A5E75B1ADBB20133DBB2BB
:103700003068D8407268C3F120039A4010434B1EC2
:10371000DBB297E71A44202A01DC3268A0E732685E
:10372000DA407068C3F1200398400243002397E712
:1037300039462079FEF756FABEE7BDE8F08100BFB2
:10374000940100202DE9F8439DF820809DF9246024
:10375000002E79D004460D461746994686EAE67350
:10376000A3EBE673DBB2202B71D8002E0CDD08EB47
:103770000603402B6EDC4A4629462046FFF735FFFC
:10378000844668B100221DE0B8F13F0F65D84FFABA
:1037900088F33344B3F1FF3FEDDA6FF0010051E0FD
:1037A0000021092907DC05EB81039A78322A01D030
:1037B0000131F6E79C46BCF1000F51D0ACF8009007
:1037C000E0E70132312A07DC02EB420304EB83031A
:1037D00093F86130FF2BF4D1322A44D09CF80230A8
:1037E00000210AE003EB430189005831214403EB37
:1037F000430304EB830393F86130322BF2D102EBE5
:10380000420304EB8304A4F85C700A9BA3659DF952
:103810002C3084F85E3084F85F8084F86060322356
:1038200084F8613019B14A722B46002004E08CF80C
:103830000220F9E7013004335A1B242A02DC9A786B
:10384000322AF7D1BDE8F8836FF00200FAE76FF093
:103850000200F7E76FF00100F4E76FF00100F1E715
:103860006FF00300EEE76FF00400EBE7B2F5006FD6
:1038700012D210B584B09DF920400394079C0294A5
:103880009DF918400194009313460A4600F108017F
:10389000FFF758FF04B010BD4FF0FF30704770B510
:1038A00084B005461446C2F3407022F00052B2F5CF
:1038B000006F19D29DF928600396099E02969DF922
:1038C00020600196009342EAC0230A4605F13001C8
:1038D0002846FFF737FF0646002221466868FFF7B3
:1038E00088FC304604B070BD4FF0FF36F9E72DE993
:1038F000F04F89B08346059206938A46079131E0DE
:10390000B4F9020002F06CF9002303930290CDF8A1
:10391000048000953B46049A05993046FFF712FF54
:103920000634A4EB09032A2B1ADC94F90530002B8A
:1039300016DD2088FEF77AF90490DBF80060BAF80B
:103940000070257994F90580069B002BD8D0B4F936
:10395000020002F045F94FF0745102F095F9D3E7F7
:103960000AF1320A079BAAEB0303B3F5E17F0ADCF5
:10397000BAF800104FF6FF73994204D00AF102051D
:103980002C46A946CDE709B0BDE8F08F08B501F097
:103990007BFA00F5FF3000F5FF70800208BD70B5BE
:1039A00082B005460190FFF7F1FF0446D0F8E863C6
:1039B00001F04EFAFA21204601F058FA864202D070
:1039C000002002B070BD002305F10802214601A8C5
:1039D000FFF78DFF012305F1300204F5FA7101A80C
:1039E000FFF785FF0120ECE7F8B505460F460E46C8
:1039F0000EE02079FEF72AF9038BA380647A04EBAA
:103A00004404A40058342C44637AFF2BF1D10436CB
:103A1000F31B242B08DCB378322B05D003EB4304D3
:103A2000A40058342C44EFE7F8BDF8B505460F461E
:103A30000E460DE0A088FEF7F9F8A080647A04EB4A
:103A40004404A40058342C44637AFF2BF2D104368A
:103A5000F31B242B08DCB378322B05D003EB430493
:103A6000A40058342C44EFE7F8BD0000F0B583B053
:103A70000546FFF78BFF064602462A4B01211970C7
:103A800000234FF0FF3403E052F8041B0C400133D5
:103A9000FF2BF9DD01F0DCF901F016FB022001F04B
:103AA00009FBB4F1FF3F38D105F108073946284634
:103AB000FFF79AFF05F1300421462846FFF794FFEF
:103AC0000A233A4631462846FFF777FD0A23224665
:103AD00006F128012846FFF770FD0190962305F1B5
:103AE000580206F150012846FFF767FD01900123B7
:103AF00001AA06F52D712846FFF75FFD01F0F0FAE7
:103B000039462846FFF791FF21462846FFF78DFFEB
:103B1000044B00221A7003B0F0BD304601F08AFA5F
:103B2000C2E700BF94010020F8B50546FFF72EFF5D
:103B30000446D0F8B46201F08BF9AA21204601F0C6
:103B400095F9864203D02846FFF729FFF8BD05F115
:103B500008070A2221463846FEF74AFC05F13006DE
:103B60000A2204F128013046FEF742FC962204F1B5
:103B7000500105F15800FEF73BFC39462846FFF797
:103B800054FF31462846FFF750FF0120DEE70000D2
:103B900038B50446084615460D4B23600D4B23608F
:103BA00061602146FFF716FB04F108012046FFF78C
:103BB000DDFC04F130012046FFF7D8FC25B9204692
:103BC000FFF769FB204638BD2046FFF7ADFFF6E75B
:103BD0007C5F0008706A00082DE9F04184B00C4653
:103BE00015461E469DF83070FEF730F8D0F8048078
:103BF0001449154B1868FEF743FEE7B11349124B01
:103C00001868FEF73DFE4FF084410A9802F03CF838
:103C10000D4B1F689DF92C30039302F085F902903B
:103C2000019600952346424609493846FEF728FE8C
:103C300004B0BDE8F0810749034B1868FEF720FE89
:103C4000E1E700BF506200089C01002058620008B4
:103C5000606200085C62000870B504460846FEF722
:103C60009DFB05462021FEF74DFB0378A3B1002301
:103C700000F8013B0521FEF758FC06462846FDF7F3
:103C8000C1FF182812D03146FDF772FF48B90A4922
:103C90002046FEF7F5FD03E008492046FEF7F0FD5B
:103CA00070BD07492046FEF7EBFDF9E72A460549B6
:103CB0002046FEF7E5FDF3E7906200087462000815
:103CC0009C620008B4620008F8B507460846FEF793
:103CD00065FB05460BE0FDF769FF02460E493846D5
:103CE000FEF7CEFD254605F8016B2C2E12D12C21B6
:103CF0002846FEF707FB0446067800230370284693
:103D0000FDF780FF1828E6D12A4604493846FEF719
:103D1000B7FDE7E7F8BD00BFCC620008D462000839
:103D20002DE9F04107460846FEF738FB8046202182
:103D3000FEF7E8FA03789BB104460646002306F82E
:103D4000013B4046FDF75EFF0546182829D0637801
:103D5000212B0AD07E2B08D02F2B06D0002406E082
:103D600013493846FEF78CFD0FE0A61C01243146AE
:103D70001048FEF7A9FA50B974B101212846FDF7A1
:103D80008FFF0D493846FEF77BFDBDE8F0810B49FA
:103D90003846FEF775FDF8E701212846FDF778FF64
:103DA000EFE7424606493846FEF76AFDEDE700BFF9
:103DB000F062000800630008186300080863000848
:103DC000B46200082DE9F04F8BB007460846FEF7B5
:103DD000E5FA0378059346493846FEF751FD00267B
:103DE0004FF0200822E0434A039202930190CDF85D
:103DF00000A04B46424640493846FEF741FD284662
:103E0000FDF75CFF20B12846FDF758FF01285AD185
:103E1000E268236961692068029601900091374940
:103E20003846FEF72DFD4FF02C080136162E51D8DE
:103E3000F5B22846FDF70AFF04462846FDF738FF8D
:103E400010F0010F02D0059B682BEED1D4F804903E
:103E5000D4F808A0B4F818B02846FDF7A7FE0290E1
:103E6000CDF804B0CDF800A04B4642462449384670
:103E7000FEF706FD0DF11F0303930DF11E030293E0
:103E800009AB01930DF11D03009307AB08AA294666
:103E90001C480068FFF7AAFA0028B0D0DDF820809F
:103EA0009DF81C909DF91DA04FF08441099801F0E8
:103EB000EBFE02F039F89DF91E309DF81F20002A14
:103EC00091D0114A90E711493846FEF7D9FC4FF0DE
:103ED0002C08AAE70E4BD3F8F0270E493846FEF718
:103EE000CFFC0D493846FEF7CBFC0BB0BDE8F08F98
:103EF0003C6300083463000870630008D463000862
:103F000040630008980100202C630008C06300088B
:103F100000F0FF1F24640008606400082DE9F047EA
:103F20008AB00446002305930693079308930993E8
:103F30000846FEF733FA0578702D39D0632D45D049
:103F40002021FEF7DFF90378002B48D0FEF726FA90
:103F500007462021FEF7D6F9064603780BB9642DF3
:103F600044D1002306F8013B3846FDF74BFE81465D
:103F70003046FEF713FA0646B9F1180F3BD0642D10
:103F80003ED04FF000084FF07E5AB8F1040F62DCCB
:103F900020213046FEF7B6F907460378002B3AD1C8
:103FA000B8F1020F37DC55492046FEF769FC1AE0EC
:103FB000534B1B68002BFBD1514D2C605149524B88
:103FC0001868FFF796FA00232B600CE04E4B186838
:103FD000FFF7E4FA4D492046FEF752FC03E047495B
:103FE0002046FEF74DFC0AB0BDE8F0874349204665
:103FF000FEF746FCF7E746492046FEF741FCF2E7AC
:104000004946414B1868FFF7B1F90246414920463D
:10401000FEF736FCE7E700233B703046FEF7A5F9D4
:10402000B8F1030F0BD00AAB03EB880343F8140C71
:10403000781CFEF7B3F9064608F10108A5E7102140
:104040003046FEF772FA01F0CBFD4FF05E5101F001
:104050001BFE8246ECE7742D17D09DF924300293A5
:10406000CDF804A09DF91C3000939DF81830059AF6
:10407000494625480068FFF712FC431D042B32D83F
:10408000DFE803F0262C201A14009DF92430029357
:10409000CDF804A09DF91C3000939DF81830059AC6
:1040A000494619480068FFF7E1FBE6E7059A1A4917
:1040B0002046FEF7E5FB96E7069A18492046FEF7EC
:1040C000DFFB90E7079A16492046FEF7D9FB8AE7FF
:1040D000059A14492046FEF7D3FB84E7124920468F
:1040E000FEF7CEFB7FE7012806DD104B02461049A4
:1040F0002046FEF7C5FB76E70E4BF7E79064000815
:104100009C010020D93B0008980100206C64000845
:10411000A4640008B8640008D0640008E4640008DF
:10412000F86400080C65000834650008686400083D
:10413000506500082863000810B504460C4B1B7836
:104140008BB172B60B4B1868FFF790FC0A492046FA
:10415000FEF796FBFEF7A7FC024662B6074920462B
:10416000FEF78EFB10BD0649FEF78AFBFAE700BF9B
:1041700084000020980100207C6500088C65000800
:10418000A865000810B5044672B6FEF7E7FC62B6F3
:1041900038B91720FDF77EFA04492046FEF770FB78
:1041A00010BD03492046FEF76BFBF9E7EC650008FC
:1041B0000066000808B501F02DFC2DE9F84305461E
:1041C00088461746002607E008F8060001362378DF
:1041D0002C2B13D1BE4211D22C212846FEF792F887
:1041E000044690F80090002303702846FDF70AFD6E
:1041F000254605F8019B1828E6D1E8E73046BDE8DA
:10420000F88300002DE9F04184B006460846FEF729
:10421000C5F80446FEF7A9F8804620212046FEF79F
:1042200071F803784BB10A2201A90130FFF7C5FFED
:1042300007463046FDF752FD20E019493046FEF7AB
:104240001FFB04B0BDE8F08104F110036B4413F8C8
:104250000C0CFDF7ABFC03462A4612493046FEF72C
:104260000FFB0134104DBC42EEDB10493046FEF727
:1042700007FBB8F1FF3F01D008F1FF383046FDF7EA
:1042800027FD0028DDD1B8F1000F02DD084D002424
:10429000E9E7B8F1FF3FD4D1054D0024E3E700BFC3
:1042A00018660008386600086C630008E8650008B6
:1042B00028630008014B1860704700BFA001002070
:1042C000704700002DE9F04385B04F4B00241C706F
:1042D0005C70AA229A70DA701C715C71132199715A
:1042E000EA21D971494B1C705C709A70DA701C71AC
:1042F0005C71D0229A71AB22DA71454B99881868AB
:1043000000F04AFF08E0019B01330193019A42F259
:104310005F239A42F7DD0134072C07DC3A4B195D25
:104320003C4801F0C5F900230193EFE7384B998829
:10433000186800F02FFF0023029302E0029B013374
:104340000293029A42F25F239A42F7DD304B99883A
:10435000186800F021FF002108E0039B013303935C
:10436000039A42F25F239A42F7DD0131072902DC0A
:1043700000230393F4E7264B9988186800F00AFF9E
:10438000254E75782C0204F47C54244B1C60327842
:1043900014441C60204601F01FFC214901F074FC0C
:1043A000204F3860AD09DFF8808088F80050F3793D
:1043B000DFF8789089F8003033791D4D2B70B37990
:1043C00003F03F031B4E337021460D20FDF7FCFB2D
:1043D000386801F0A9FD01460E20FDF7F5FB98F8BD
:1043E00000100F20FDF7F0FB99F800101020FDF7EA
:1043F000EBFB29781120FDF7E7FB31781220FDF760
:10440000E3FB05B0BDE8F083C0010020B801002047
:10441000D400002000300140B0010020A80100209D
:104420006EFAB33CAC010020A7010020A4010020DB
:10443000A5010020A6010020826DC36D9A42FBD029
:10444000836D5A1C826503F03F03034419764FF0D5
:10445000FF3343617047A0F10400FFF7EDBF10B5D3
:104460000446017C002201F5C0618068FEF7C1FEB0
:10447000617C3F2900D910BD002201F5B061A06820
:10448000FEF7B7FEF7E7000010B5044608460C4BF0
:1044900023600C4B63600C4B236014336360A1609A
:1044A000E26001232374FF2363744FF0FF336361E1
:1044B0002146FEF78FFE2046FFF7D1FF204610BDB4
:1044C0007C5F0008CC680008806A000808B50174A9
:1044D0008068FEF7B1FE08BD10B582B004468DF8C5
:1044E0000010ADF801309DF810308DF80330059BB9
:1044F0000193437C93420DD1002384F87430A0686B
:10450000617C03685C6808236A4601F5C061A047C6
:1045100002B010BD42748068FEF78EFEECE7B1F881
:10452000012045F201039A4211D0012380F8843022
:104530000B7880F87C30B1F80130A0F87D30CB7872
:1045400080F87F304B68C0F88030002070470B78CF
:10455000402B01D0002070474FF0FF330B714B719F
:1045600000238B71CB7141220A7083654023C365A0
:10457000CB784361012070472DE9F04184B00646B5
:104580000C46B1F80120C2F3C017CD7825B1013D2A
:1045900005EBD575C5F3470503AB00932B4602F039
:1045A0003F023946F068FEF76EFF80462378402BC5
:1045B0000DD0232B3DD08023237000232371637102
:1045C0000223A3710623E37104B0BDE8F08130B388
:1045D0000079FDF73BFB028BE37823B9039B636013
:1045E00043232370F0E713F0010F09D098F8073048
:1045F00042EA034298F9083042EA03626260EFE758
:104600001349D8F8000001F03FFB01F08DFC20F0C9
:104610007F4398F9062043EA02636360E0E7802362
:1046200023700023237163710223A3710623E371B6
:10463000CAE70028BFD06368002BBCD1B4F80120C2
:104640002B4602F03F023946F068FEF73DFEBBE71D
:1046500000007A440B78232B00D070472DE9F041FD
:1046600084B006460C461546CB7883B94B68B3F147
:10467000005F04D323F00052B2F5006F03D27366DB
:104680006023237019E04FF0FF3343660CE0476E60
:10469000B7F1FF3F01D0012B12D096F97080B8F12D
:1046A000000F01D0022B1DD0802323700023237123
:1046B00063710223A3710623E37104B0BDE8F081A6
:1046C000486880B2FDF7B2FAA6F86C006368C3F3DD
:1046D000054386F86F3063681B1686F8703016281D
:1046E000CED9E1E7606840F3170001F079FA154987
:1046F00001F07EFBB06663681B1686F86E30A5B1CC
:1047000002930190CDF8008096F86F303A4696F803
:104710006C10F068FFF7C3F8002386F870304FF094
:10472000FF3373660028ABDABEE702930190CDF841
:10473000008096F86F303A4696F86C10F068FFF7F4
:1047400095F8E9E700007A4438B504460D460B7841
:1047500003F06002602A1DD0B1F80130B3F5005FAC
:1047600046D003F47F42B2F5045F41D0C16811B175
:10477000B3F5405F71D019B143F20100834271D0AB
:1047800011B1B2F5445F73D029462046FFF7C7FE4A
:10479000D0B922E003F010030B700122072A0EDCCF
:1047A000E36DA16D5B1A402B09D0E36D591CE165E7
:1047B00003F03F0323441B7EAB540132EEE7E36D6D
:1047C000A16D5B1A402B09D0A068217C03685C684E
:1047D00008232A4601F5B061A04738BD2B7843F085
:1047E00001032B70C2F1080243EA42032B70EBE78E
:1047F000E87803F47F42B2F5045F0CD0162822D883
:104800002B78232B0DD0402BDED1FDF7CFF968603C
:1048100043232B70D8E71B029BB21844FDF706FA1E
:10482000ECE76968FDF7A4F910B960232B70CBE7BA
:1048300080232B7030232B7100236B710923AB7104
:104840000623EB71C0E780232B7000232B716B7163
:104850000223AB710623EB71B6E700222946FFF76E
:10486000F9FEB1E7012229462046FFF7F3FEABE748
:1048700029462046FFF780FEA6E70000F0B583B08A
:1048800004461546037C03F5C0638B4206D0467C84
:1048900006F5B0638B4205D003B0F0BD1146FFF7BB
:1048A00053FFF9E7B2F80170A7F540539BB2012B13
:1048B00008D92B78803B18BF012384F874306B68CB
:1048C000A367E9E7D378ABB1012BF2D11349806E2E
:1048D00001F0DAF901F028FB94F96E3040EA036345
:1048E0000193022300933B46324623212046FFF7E3
:1048F000F3FDDEE7B0F86C3090F86F2043EA024336
:1049000090F9702043EA02630193012300933B4630
:1049100032462321FFF7E0FDCBE700BF00007A44D9
:104920008368DB075EBF836843F0010383607047E1
:10493000034AD2F8083443F40003C2F8083470473D
:1049400000200140836823F460230B438360836865
:1049500043F4801383607047836800F1080243F0DA
:104960000803836013681B07FCD47047836843F017
:104970000403836070478068C0F38000704708B507
:104980000246FFF7F3FF1046FFF7F5FF0028FAD1C4
:1049900008BD0022134610B501FA02F403321E2AA4
:1049A00043EA0403F8D10022036101FA02F403325E
:1049B000182A43EA0403F8D1C36010BD836823F0CA
:1049C000010383607047436843F48073436070471A
:1049D000836823F4006383607047836843F00203B5
:1049E000836070471029F0B510D800234FF0010EF6
:1049F0001F469C461D465FFA8EF68E4207D9013946
:104A000045EA0155C562C0F830C04763F0BDBEF14C
:104A1000060F147806D89C4027430EF1010E013290
:104A20000533E8E7073E052E8BBFA3F13C06A3F153
:104A30001E06B440B4408CBF25434CEA040CECE79E
:104A4000836800F1080243F48003836013685B020B
:104A5000FCD47047836843F4807383607047000020
:104A6000044B98420CBF40F2192040F21A2000F08B
:104A700058BD00BF006400402DE9F341046888463A
:104A800024F0020404600468964644F001040460C3
:104A90004FF6FF749DF820C09DF824109DF8282043
:104AA0009DF83C609DF840700194019C051D013CFF
:104AB000019414B14468E407F7D54468E4076ED55F
:104AC0000024C4610468B8F1000F4FD044F08004A2
:104AD00004600468BEF1000F4BD044F04004046051
:104AE000002B49D0036843F0200303600368BCF146
:104AF000000F45D043F0100303600368002942D043
:104B000043F0080303600368002A3FD043F0040326
:104B10000360C369002F3CD043F00043C361C36905
:104B2000002E39D043F08043C3610E9B0D99013BA9
:104B3000C3F309030B430C99C2690B430B990B4355
:104B40001343C361036823F0010303604FF6FF734F
:104B50000193019B013B019313B12B68DB07F8D450
:104B6000406800F0010002B0BDE8F08124F080044C
:104B7000AEE724F04004B2E7036823F02003B4E773
:104B800023F01003B8E723F00803BBE723F0040386
:104B9000BEE723F00043C1E723F08043C4E70120D0
:104BA000E1E70000F0B50125234C9DF81C70D4F816
:104BB0000066854046F00106C4F80066D4F81CE69D
:104BC000EE432EEA050EC4F81CE639B3D4F80C16F1
:104BD0002943C4F80C162AB3D4F804262A4300F15A
:104BE000006000F6C840C4F80426C0000360069ABE
:104BF000059B4360104BCAB1D3F814262A43C3F86F
:104C0000142627B1D3F81C262A43C3F81C26D3F850
:104C1000002622F00102C3F80026F0BDD4F80C16DD
:104C20003140D6E7D4F804263240D8E7D3F814262A
:104C30001640C3F81466E4E70060004030B4BDF8E5
:104C400008409DF8105043EA0443029341EA0243AE
:104C500000220495114630BCFFF7A4BF30B4BDF864
:104C600008409DF8105044EA0344049542EA014389
:104C70000294012230BC0021FFF794BF1FB50092BF
:104C800001229DF81840CDE901340B461146FFF78B
:104C900089FF04B010BD43690B434361704743690A
:104CA00023EA0103436170472DE9F04180468068A3
:104CB0009DF818E04501079E2AD4D8F808000401A1
:104CC0002AD4D8F80800C00050D54FF4D07502207F
:104CD00005EB080422B3C90041F0040145F80810AF
:104CE0001BB1236843F002032360636823F00F03C2
:104CF000636062680EF00F03134363600EF1FF33CD
:104D0000072B2AD8DFE803F02623201B1815120EE4
:104D10004FF4C0750020DBE74FF4C8750120D7E7DA
:104D20004905DBE70027F37963F31F67B37963F382
:104D30001747737963F30F27337963F307074FF04E
:104D4000000CF37863F31F6CB37863F3174C73783C
:104D500063F30F2C337863F3070CC4F808C0E760E3
:104D6000236843F001032360BDE8F0814FF0FF307A
:104D7000FAE721B9C36843F02003C36070470369B1
:104D800043F020030361704719B9C06800F00300C5
:104D900070470069FAE72DE9F743DDF828900446EB
:104DA000DDE90E56FFF7F0FF0F4680464FF4E07145
:104DB0004FF4D870CDE9000102A901EB870151F849
:104DC00008CC54F80C1004EB0C0011F0040115BFD2
:104DD000012189F8001089F8001054F80C1016BF52
:104DE00054F80C10490DC908196054F80C100B9BAD
:104DF000C1F34001197041680C9B090A19704168A0
:104E00000D9B01F00F01197016B143681B0C338024
:104E10008668C368C6F307216970C6F30741A970A5
:104E2000C3F307212E702B71C6F307666971C3F3B4
:104E30000741C3F30763EE70A971EB711AB13946EC
:104E40002046FFF796FF404603B0BDE8F083000020
:104E5000024A936843F001039360704700300240B8
:104E6000014B18601868704700300240002310B5ED
:104E7000044A8B4201DB106810BD50F82340013317
:104E80001460F6E700300240014BB3F8E0077047CA
:104E900000F0FF1F14230022013903FB01039A6075
:104EA000DA601A615A610F23426889008B4013430C
:104EB00043607047013989008A4042607047013978
:104EC000036889008A401A4214BF012000207047FD
:104ED00014230139594308300B5823F440630B5015
:104EE0000B5813430B5070471423013959430830B2
:104EF0000B5823F440730B500B5813430B5070475F
:104F000014230139594308300B5843F080030B50E8
:104F1000704714230139594308300B5843F02003DC
:104F20000B500B5823F480430B5070471423013966
:104F3000594308300B5843F010030B5070471423AB
:104F40000139594308300B5843F001030B507047A7
:104F500014230139594308300B5823F001030B5037
:104F600070471423013903FB01008368DB0758BF36
:104F7000026170471423013903FB01008368DB07DA
:104F800058BF426170471423013959430C30085807
:104F900080B270471423013959430C300A507047CE
:104FA00038B5064DEC68FFF76FFFB0F5007F84BFA2
:104FB000EB6C1C4304F0350038BD00BF00200240FC
:104FC00038B504460D4600F093F8FFF75DFFB0F5E5
:104FD000007F164B14D9164A944211D91A6D42F02B
:104FE00001021A65258000F083F8FFF74DFFB0F548
:104FF000007F14D90D4A136D23F00103136538BDEA
:105000001A6942F001021A61258000F071F8FFF779
:105010003BFFB0F5007F02D9054B9C42E9E7034A0C
:10502000136923F001031361E9E700BF0020024088
:10503000FFFF070810B5044600F05AF8FFF724FFF9
:10504000B0F5007F194B18D9194A944215D91A6D39
:1050500042F002021A655C651A6D42F040021A6560
:1050600000F046F8FFF710FFB0F5007F18D90F4A9F
:10507000136D23F00203136510BD1A6942F002029A
:105080001A615C611A6942F040021A6100F030F85E
:10509000FFF7FAFEB0F5007F02D9054B9C42E5E729
:1050A000024A136923F002031361E5E7002002407E
:1050B000FFFF0708034A136823F007030343136045
:1050C000704700BF00200240034B044A5A6002F1BF
:1050D00088325A60704700BF0020024023016745B4
:1050E000024A136943F080031361704700200240B5
:1050F00008B5FFF755FFC307FBD408BD38B5054613
:105100000C4689B2FFF75CFF210CA81CBDE83840B3
:10511000FFF756BF2DE9F04300264FF00F089C46DD
:10512000036847684CFA06F414F0010F06F1010E0B
:105130001DD0072E94BF9946B946B4B24FEA8404F5
:105140008ABF203CA4B2A4B208FA04F529EA0509F2
:10515000A51C02FA05F501FA04F42C43072E44EAD3
:10516000090405D8234676463C462746DAE73C46FE
:105170007646102EF9D103604460BDE8F08300004C
:10518000034A536823F0E0630B43034353607047C3
:105190000000014001617047090401617047C36864
:1051A00001EA030221EA030141EA02410161704779
:1051B0004AF6AA22014B1A60704700BF0030004037
:1051C000062824D8DFE800F004090E13181D20007B
:1051D000104B1868C0F3406070470E4B1868C0F35E
:1051E000C06070470B4B1868C0F340707047094BA4
:1051F0001868C0F340407047064B1868C0F3400081
:105200007047044B186AF9E7024B586AF6E700202A
:10521000704700BF00100240024608B51046FFF775
:10522000CFFF0028FAD008BD06282AD8DFE800F012
:10523000040A0F14191E2400124A136843F08073E5
:10524000136070470F4A136843F08063F8E70D4A14
:10525000136843F08053F3E70A4A136843F480333A
:10526000EEE7084A136843F00103E9E7054A136AC9
:1052700043F0010313627047024A536A43F001038B
:105280005362704700100240034A536823F003033F
:1052900003435360704700BF00100240034A536845
:1052A00023F4701343EA80435360704700100240B8
:1052B000034AD36A23F4706343EA0023D36270473E
:1052C00000100240034AD36A23F4704343EA0033D8
:1052D000D362704700100240034A536823F48033BE
:1052E00043EA00435360704700100240034A53688A
:1052F00023F4003343EA40435360704700100240F8
:10530000024B186A00F40040704700BF00100240D2
:10531000024A136A43F400431362704700100240CC
:1053200006283BD8DFE800F0353535253504150073
:105330001B4B1A6A42F001021A621A6A9007FCD5E6
:105340001A6A22F440721A621A6A42F480721A626D
:105350007047134B5A6A42F001025A625A6A910727
:10536000FCD51A6A22F440721A621A6A42F4007278
:10537000EDE70B4B1A6842F480321A601A68920308
:10538000FCD51A6A22F440721A621A6A42F4407218
:10539000DDE7034A136A23F440731362704700BFCA
:1053A00000100240034A536823F4404343EA803329
:1053B0005360704700100240034A536823F460535F
:1053C00043EAC0235360704700100240034A536809
:1053D00023F4E06343EA0023536070470010024067
:1053E000034A536823F0F00343EA00135360704705
:1053F00000100240044B5A6818B142F480025A600F
:10540000704722F48002FAE700100240034AD36A90
:1054100023F00F030343D362704700BF0010024024
:10542000034AD36A23F0F00343EA0013D3627047C0
:1054300000100240044BDA6A18B142F48032DA629A
:10544000704722F48032FAE70010024010B504469B
:105450004378012B0CBF03200420FFF7E5FEFFF784
:10546000DBFEA078FFF7BCFFE078FFF7AFFF207905
:10547000FFF7A2FF6079FFF795FF207BFFF7BAFFE8
:10548000A079FFF717FE2078FFF708FF6078FFF795
:1054900023FFE07901282DD9FFF7B8FF207A08B162
:1054A000FFF7C8FF607A08B1FFF7BAFFA07A30B102
:1054B000FFF7FEFE0120FFF7B7FEFFF7ADFEE07A33
:1054C00030B1FFF7FFFE0220FFF7AEFEFFF7A4FEAC
:1054D0000020FFF7A9FEFFF79FFE0220FFF7D4FE92
:1054E0002269064B1A606269054B1A60A269054B76
:1054F0001A6010BDFFF7FAFED0E700BF8800002059
:10550000900000208C0000200122430903F1804319
:1055100003F50433196800F01F0082400A431A6043
:1055200070470122430903F1804303F504331968EE
:1055300000F01F00824011431960196821EA02023D
:105540001A607047054BD3F804289206FBD5D3F8B0
:10555000042842F01002C3F80428704700200040DD
:10556000054BD3F8042822F01002C3F80428D3F81E
:1055700004289206FBD570470020004038B5044649
:1055800000254FF46770FFF7BFFF40F29B30FFF735
:10559000BBFF00F063FA2046124CFFF7C1FEC4F8CF
:1055A0000058C4F80458FFF7B3FEFFF7CBFF4FF6DF
:1055B000FF73C4F80858C4F80C58C4F81858C4F855
:1055C0001C58C4F82038C4F82438FFF7C9FFD4F8B1
:1055D000043823F00803C4F80438D4F804381B074F
:1055E000FBD538BD0020004008B5FFF7ABFF064BE8
:1055F00082B2C0F30340C3F80C28C3F80808BDE822
:105600000840FFF7ADBF00BF00200040034BD3F8B8
:105610001808D3F81C3843EA0040704700200040C7
:1056200008B5FFF78FFF054B020C80B2C3F81828AE
:10563000C3F81C08BDE80840FFF792BF00200040F7
:1056400008B54FF46770FFF75FFF40F29B30FFF73C
:105650005BFF00F003FA084BD3F8042822F008029D
:10566000C3F80428D3F804281107FBD5D3F804287D
:105670009206FBD508BD00BF0020004038B50546A6
:105680004FF467700C46FFF73FFF40F29B30FFF787
:105690003BFFFFF735FE18B1BDE83840FFF7D0BF3C
:1056A0002846FFF76BFF2046BDE83840FFF79CBF58
:1056B00083689B07FCD5C1607047C3680B43C36018
:1056C000704703690B4214BF012000207047C94393
:1056D00001617047036843F080030360704703680B
:1056E00023F0100303607047036843F00103036075
:1056F0007047036823F001030360704781627047BD
:10570000C162704706297AD8DFE801F0047933795D
:1057100063799200836923F0030383618369836162
:10572000836923F070038361072A68D8DFE802F0F9
:105730003304090D1115191D836943F010038361AA
:105740007047836943F02003F9E7836943F030032E
:10575000F5E7836943F04003F1E7836943F05003C1
:10576000EDE7836943F06003E9E7836943F0700381
:10577000E5E7836923F44073836183698361836907
:1057800023F4E0438361072A39D8DFE802F00406F6
:105790000A0E12161A1E8369D1E7836943F48053F7
:1057A000CDE7836943F40053C9E7836943F4405369
:1057B000C5E7836943F48043C1E7836943F4A043A9
:1057C000BDE7836943F4C043B9E7836943F4E04329
:1057D000B5E7C36923F00303C361C369C361C36948
:1057E00023F07003C361072A09D8DFE802F033040D
:1057F000090D1115191DC36943F01003C3617047EA
:10580000C36943F02003F9E7C36943F03003F5E7C8
:10581000C36943F04003F1E7C36943F05003EDE788
:10582000C36943F06003E9E7C36943F07003E5E748
:10583000C36923F44073C361C369C361C36923F4BB
:10584000E043C361072ADAD8DFE802F004060A0E53
:1058500012161A1EC369D1E7C36943F48053CDE71A
:10586000C36943F40053C9E7C36943F44053C5E730
:10587000C36943F48043C1E7C36943F4A043BDE770
:10588000C36943F4C043B9E7C36943F4E043B5E7F0
:1058900006290CD8DFE801F0040B060B080B0A0000
:1058A0004263704782637047C26370470264704707
:1058B000406A704741627047064A074B90421B6836
:1058C00004BF064B1B6803EB5103B3FBF1F181608E
:1058D000704700BF00380140900000208C0000207D
:1058E000C36808290CBF23F4805343F48053C3607A
:1058F0007047036923F440530B4303617047C36847
:1059000023F4C0630B43C3607047C36823F00C03E8
:105910000B43C3607047436923F440730B434361F7
:105920007047C36843F40053C360704738B50446FA
:105930000D4600F018F829462046BDE8384000F032
:105940000AB8436943F0400343617047436943F039
:10595000800343617047C1F30801416070474068AC
:10596000C0F30800704703681B06FCD57047036846
:105970000B4214BF012000207047FEE77047000073
:1059800038B51A4A1A4B1B498B421AD300211A4ABE
:1059900093421BD34FF0E022D2F8143D174C43F44E
:1059A0000073174DC2F8143DAC4212D3154C164D7E
:1059B000AC4212D3FBF778FE144C154DAC4210D319
:1059C00038BD52F8040B43F8040BDDE743F8041B21
:1059D000DEE754F8043B9847E6E754F8043B984761
:1059E000E6E754F8043B9847E8E700BF2C6B000853
:1059F0000000002094000020C8010020246B000853
:105A0000246B0008246B00082C6B00082C6B00082A
:105A10002C6B00084FF0E023014AC3F80C2DFEE781
:105A20000400FA05012243099B0003F1604300F0E2
:105A30001F0003F5614382401A607047432893BFFB
:105A400000F16040044B00F00F0000F564408CBF93
:105A5000C1540170704700BF14ED00E0024A1368A2
:105A600043F48073136070470070004080F0004082
:105A700002E000BF81F0004142001FBF5FEA410326
:105A800092EA030F7FEA226C7FEA236C6AD04FEA26
:105A90001262D2EB1363C1BFD2184140484041406B
:105AA000B8BF5B42192B88BF704710F0004F40F41D
:105AB000000020F07F4018BF404211F0004F41F439
:105AC000000121F07F4118BF494292EA030F3FD005
:105AD000A2F1010241FA03FC10EB0C00C3F1200318
:105AE00001FA03F100F0004302D5494260EB4000A7
:105AF000B0F5000F13D3B0F1807F06D340084FEA12
:105B0000310102F10102FE2A51D2B1F1004F40EB06
:105B1000C25008BF20F0010040EA0300704749006E
:105B200040EB0000013A28BFB0F5000FEDD2B0FA0B
:105B300080FCACF1080CB2EB0C0200FA0CF0AABF2E
:105B400000EBC25052421843BCBFD04018437047CC
:105B500092F0000F81F4000106BF80F400000132D2
:105B6000013BB5E74FEA41037FEA226C18BF7FEAA9
:105B7000236C21D092EA030F04D092F0000F08BFEB
:105B80000846704790EA010F1CBF0020704712F0D2
:105B90007F4F04D1400028BF40F00040704712F111
:105BA00000723CBF00F50000704700F0004343F076
:105BB000FE4040F4000070477FEA226216BF0846AC
:105BC0007FEA23630146420206BF5FEA412390EA6F
:105BD000010F40F4800070474FF0000304E000BF65
:105BE00010F0004348BF40425FEA000C08BF704716
:105BF00043F0964301464FF000001CE050EA0102DA
:105C000008BF70474FF000030AE000BF50EA0102EE
:105C100008BF704711F0004302D5404261EB4101DB
:105C20005FEA010C02BF84460146002043F0B64300
:105C300008BFA3F18053A3F50003BCFA8CF2083A25
:105C4000A3EBC25310DB01FA02FC634400FA02FC2E
:105C5000C2F12002BCF1004F20FA02F243EB020035
:105C600008BF20F00100704702F1200201FA02FC97
:105C7000C2F1200250EA4C0021FA02F243EB02008A
:105C800008BF20EADC7070474FF0FF0C1CEAD052CE
:105C90001EBF1CEAD15392EA0C0F93EA0C0F6FD08F
:105CA0001A4480EA010C400218BF5FEA41211ED06D
:105CB0004FF0006343EA501043EA5111A0FB013159
:105CC0000CF00040B1F5000F3EBF490041EAD3712E
:105CD0005B0040EA010062F17F02FD2A1DD8B3F1AA
:105CE000004F40EBC25008BF20F00100704790F019
:105CF000000F0CF0004C08BF49024CEA502040EA6B
:105D000051207F3AC2BFD2F1FF0340EAC250704730
:105D100040F400004FF00003013A5DDC12F1190F6E
:105D2000DCBF00F000407047C2F10002410021FAE0
:105D300002F1C2F1200200FA02FC5FEA310040F1F8
:105D4000000053EA4C0308BF20EADC70704792F071
:105D5000000F00F0004C02BF400010F4000F013AA9
:105D6000F9D040EA0C0093F0000F01F0004C02BFA4
:105D7000490011F4000F013BF9D041EA0C018FE713
:105D80000CEAD15392EA0C0F18BF93EA0C0F0AD019
:105D900030F0004C18BF31F0004CD8D180EA01003F
:105DA00000F00040704790F0000F17BF90F0004FD8
:105DB000084691F0000F91F0004F14D092EA0C0FBA
:105DC00001D142020FD193EA0C0F03D14B0218BF4D
:105DD000084608D180EA010000F0004040F0FE4093
:105DE00040F40000704740F0FE4040F4400070472F
:105DF0004FF0FF0C1CEAD0521EBF1CEAD15392EAAE
:105E00000C0F93EA0C0F69D0A2EB030280EA010C9D
:105E100049024FEA402037D04FF0805343EA111136
:105E200043EA10130CF000408B4238BF5B0042F194
:105E30007D024FF4000C8B4224BF5B1A40EA0C0039
:105E4000B3EB510F24BFA3EB510340EA5C00B3EB6B
:105E5000910F24BFA3EB910340EA9C00B3EBD10F59
:105E600024BFA3EBD10340EADC001B0118BF5FEAAB
:105E70001C1CE0D1FD2A3FF650AF8B4240EBC250D4
:105E800008BF20F0010070470CF0004C4CEA502095
:105E90007F32C2BFD2F1FF0340EAC250704740F4E4
:105EA00000004FF00003013A37E792F0000F00F0D6
:105EB000004C02BF400010F4000F013AF9D040EA54
:105EC0000C0093F0000F01F0004C02BF490011F4E8
:105ED000000F013BF9D041EA0C0195E70CEAD153E0
:105EE00092EA0C0F08D142027FF47DAF93EA0C0FC7
:105EF0007FF470AF084676E793EA0C0F04D14B02AB
:105F00003FF44CAF08466EE730F0004C18BF31F05C
:105F1000004CCAD130F000427FF45CAF31F0004356
:105F20007FF43CAF5FE700BF4FEA4002B2F1FE4FA3
:105F30000FD34FF09E03B3EB12620DD94FEA00234B
:105F400043F0004310F0004F23FA02F018BF404224
:105F500070474FF00000704712F1610F01D142020B
:105F600005D110F0004008BF6FF0004070474FF0BF
:105F7000000070470000000000000000111200083F
:105F8000111200080000000000000000511100087C
:105F900061110008000204064469676974616C209D
:105FA000492F4F20436F6E74726F6C004D315F4C00
:105FB0004F434B00303D4F46462C20313D4F4E0065
:105FC0004D325F4C4F434B006E6F64656964000057
:105FD0006765617200000000303D5041524B2C203B
:105FE000313D524556455253452C20323D4E455584
:105FF0005452414C2C20333D44524956452C2034B8
:106000003D4552524F5200004D4F444500000000A4
:10601000303D4F46462C20313D52554E0000000089
:106020004745415200000000564F4C54414745003F
:10603000560000004B4E4F425F4C4F434B00000058
:106040005041524B5F4C45440000000052455645BC
:106050005253455F4C4544004E45555452414C5FA8
:106060004C45440044524956455F4C4544000000AD
:106070004241434B4C49474854000000416E676C15
:10608000655F4C5342000000416E676C6500000084
:1060900044656772656500004552525F42697473DA
:1060A00000000000435243005669727475616C5FD2
:1060B0004761696E00000000526F6C6C696E675F2B
:1060C000436F756E746572004C6F636B3100000036
:1060D0004C6F636B3200000056455253494F4E00DF
:1060E000343D302E3032414B000000004350555FAC
:1060F0004C4F414400000000250000000A4F4B0DAA
:106100000A000000426175642072617465206E6F40
:10611000772000004563686F206F6E0D0A00000055
:106120004563686F206F66660D0A0000656E6162E8
:106130006C65756172740000666173747561727468
:10614000000000006563686F00000000556E6B6E14
:106150006F776E20636F6D6D616E6420736571750E
:10616000656E63650D0A0000253038583A253038D1
:10617000583A253038580D0A000000004465666121
:10618000756C7473206C6F616465640D0A000000A7
:106190007365740067657400666C616700000000D9
:1061A00073747265616D00006A736F6E00000000A9
:1061B00063616E0073617665000000006C6F61645E
:1061C000000000007265736574000000646566611C
:1061D000756C74730000000068656C70000000004E
:1061E00073657269616C00006572726F7273000092
:1061F000286E756C6C2900005B25755D3A2025734F
:10620000202D2025730D0A004E6F204572726F728B
:10621000730D0A0053544F50000000004445524192
:10622000544500005741524E00000000303D4E4F93
:106230004E452C20313D544553544552524F522C1B
:1062400000000000544553544552524F5200000084
:1062500063616E20000000007278200074782000D6
:1062600025732025642025642025642025662025AB
:10627000640D0A004E6F20706172616D6574657205
:106280002076616C756520676976656E0D0A000081
:10629000536574204F4B0D0A0000000056616C7569
:1062A00065206F7574206F662072616E67650D0AD8
:1062B00000000000556E6B6E6F776E20706172612A
:1062C0006D657465722025730D0A000025660D0A40
:1062D00000000000556E6B6E6F776E20706172610A
:1062E0006D657465723A20272573270D0A0000003A
:1062F0004E6F20666C616720676976656E0D0A00D7
:1063000068696464656E0000556E6B6E6F776E2011
:10631000666C61670D0A0000466C61672063686106
:106320006E6765204F4B0D0A0000000074727565A2
:106330000000000066616C73650000007B000000D7
:1063400025630D0A202020222573223A207B227506
:106350006E6974223A222573222C226964223A251E
:10636000642C2276616C7565223A25662C0000004B
:106370002263616E6964223A25642C2263616E6F28
:106380006666736574223A25642C2263616E6C65BF
:106390006E677468223A25642C2263616E676169B6
:1063A0006E223A25662C2263616E616464223A256E
:1063B000642C2269737278223A25732C0000000045
:1063C000226973706172616D223A66616C73657DDA
:1063D00000000000226973706172616D223A74726C
:1063E00075652C226D696E696D756D223A25662C76
:1063F000226D6178696D756D223A25662C2264657F
:106400006661756C74223A25662C22636174656737
:106410006F7279223A222573222C2269223A25644E
:106420007D0000002C0D0A20202022736572696116
:106430006C223A207B22756E6974223A22222C2229
:1064400076616C7565223A2225303858222C2269F3
:1064500073706172616D223A66616C73657D0000D4
:106460000D0A7D0D0A00000073000000416C6C20D5
:106470006D65737361676520646566696E697469CB
:106480006F6E7320636C65617265640D0A000000B5
:106490004D697373696E6720617267756D656E749F
:1064A0000D0A0000556E6B6E6F776E207061726121
:1064B0006D657465720D0A00256420656E747269DD
:1064C00065732072656D6F7665640D0A00000000CB
:1064D000496E76616C69642043414E2049642025F1
:1064E000780D0A00496E76616C6964204F666673A8
:1064F00065742025640D0A00496E76616C6964201C
:106500006C656E6774682025640D0A0043616E6EC9
:106510006F74206D617020616E796D6F7265206996
:1065200074656D7320746F2043414E20696420258B
:10653000640D0A004D6178206D6573736167652095
:10654000636F756E7420726561636865640D0A001F
:1065500043414E206D61702073756363657373668C
:10656000756C2C202564206D6573736167652573D8
:10657000206163746976650D0A00000043414E4D49
:1065800041502073746F7265640D0A00506172612E
:106590006D65746572732073746F7265642C20432B
:1065A00052433D25780D0A0057696C6C206E6F745C
:1065B00020777269746520746F20666C617368203F
:1065C000696E2072756E206D6F6465732C20706C1F
:1065D000656173652073746F70206265666F7265A4
:1065E00020736176696E67210D0A00005061726147
:1065F0006D6574657273206C6F616465640D0A006B
:10660000506172616D6574657220435243206572FA
:10661000726F720D0A00000055736167653A20734E
:10662000747265616D206E2076616C312C76616CC0
:10663000322E2E2E0D0A0000257325660000000064
:10664000985F0008AC5F0008B45F0008000000001D
:10665000200000000000000001000000985F00081A
:10666000C05F0008B45F00080000000020000000C8
:106670000000000002000000985F0008C85F0008EA
:106680002863000820000000E0070000A0000000D0
:1066900003000000985F0008D05F0008D85F000882
:1066A0000000000080000000000000000400000066
:1066B00000000000086000081060000800000000F2
:1066C0000000000000000000D007020000000000F1
:1066D00020600008D85F00080000000000000000F3
:1066E00000000000D1070200000000002860000840
:1066F0003060000800000000000000000000000002
:10670000D20702000000000034600008B45F0008F7
:10671000000000000000000000000000D30702009D
:106720000000000040600008B45F000800000000A6
:106730000000000000000000D4070200000000007C
:106740004C600008B45F000800000000000000007A
:1067500000000000D507020000000000586000089B
:10676000B45F00080000000000000000000000000E
:10677000D60702000000000064600008B45F000853
:10678000000000000000000000000000D707020029
:106790000000000070600008B45F00080000000006
:1067A0000000000000000000D80702000000000008
:1067B0007C60000828630008000000000000000062
:1067C00000000000D90702000000000088600008F7
:1067D00090600008000000000000000000000000C1
:1067E000DA07020000000000986000082863000833
:1067F000000000000000000000000000DB070200B5
:1068000000000000A46000082863000800000000E9
:106810000000000000000000DC0702000000000093
:10682000A8600008286300080000000000000000C5
:1068300000000000DD07020000000000B860000852
:1068400028630008000000000000000000000000B5
:10685000DE07020000000000C8600008286300088E
:10686000000000000000000000000000DF07020040
:1068700000000000D060000828630008000000004D
:106880000000000000000000E0070200000000001F
:10689000D8600008E0600008000000000000000070
:1068A00000000000E107020000000000EC600008AA
:1068B000F860000800000000000000000000000078
:1068C000E2070200000000000000000011120008B2
:1068D0000000000000000000251F000800380140F3
:1068E0000000024004050000000801400002000012
:1068F000000C014040000000004400400000024045
:1069000007060000000801400400000000140140D8
:106910002000000000480040000002400203000088
:10692000000C0140000400000010014000040000C1
:10693000004C00400004024005030000001001402C
:1069400000040000001001400004000090610008F5
:10695000593C000894610008C93C0008986100088F
:10696000213D0008A061000805420008A861000858
:10697000C1220008B06100081D3F0008B461000892
:1069800039410008BC61000885410008C461000865
:10699000B5410008CC610008A9220008D8610008B0
:1069A00075220008E061000881220008E861000803
:1069B0007722000800000000000000000000000036
:1069C00000000000C126000800240140002801400A
:1069D000146200081C620008246200082863000892
:1069E00003000000446200080000000000000000F6
:1069F000000000002D2C0008752C0008A12E0008B6
:106A00000000080000005000120000000000080014
:106A100000005000090000000000030000002000FA
:106A20000900000000000400000020000500000034
:106A30000000050000004000030000000000FF0708
:106A40000000FF0700000000000000001112000815
:106A500011120008111200080000000000000000E0
:106A6000A5310008A7310008000000000000000068
:106A700011360008973200080000000000000000F6
:106A80007D4800085F44000839440008FCFFFFFF10
:106A90000000000057440008040100040002020046
:106AA000000000000000000000A24A04005125027E
:106AB00000A24A04070100040002020100000000D5
:106AC0000000000000A24A040051250200A24A046E
:106AD0000701000400020204010406000000000097
